:020000040800F2
:10000000000001205D160008591200085B1200086C
:100010005D1200085F120008611200080000000075
:100020000000000000000000000000006312000853
:10003000651200080000000067120008691200083D
:10004000AD160008AD160008AD160008AD16000884
:10005000AD160008AD16000871120008AD160008B4
:10006000AD160008AD160008AD160008AD16000864
:10007000AD160008AD160008AD160008AD16000854
:10008000AD160008AD1600087D1200080000000043
:10009000000000000000000000000000AD16000895
:1000A000AD160008AD1600088D120008AD16000848
:1000B0009D120008AD160008AD160008AD16000828
:1000C000AD160008AD160008AD160008AD16000804
:1000D000AD160008AD160008AD16000800000000BF
:1000E000AD160008AD160008AD16000800000000AF
:1000F000000000000000000000000000AD16000835
:1001000000000000AD160008AD160008AD1600088E
:1001100000000000000000000000000000000000DF
:10012000AD160008AD160008AD160008AD160008A3
:10013000AD160008000000000000000000000000F4
:10014000000000000000000000000000AD160008E4
:10015000AD160008AD160008AD160008AD16000873
:10016000AD160008AD1600080000000000000000F9
:10017000000000000000000000000000000000007F
:1001800000000000AD1600080000000000000000A4
:04019000AD160008A0
:1001C00053B94AB9002908BF00281CBF4FF0FF31BE
:1001D0004FF0FF3000F00CB8ADF1080C6DE904CE23
:1001E00003F00AFDDDF804E0DDE9022304B0704706
:1001F000704700BF00000000000000000000000089
:1002000001F0FF01102A2BDB10F0070F08D010F8C7
:10021000013B013A8B422DD010F0070F42B3F6D1CB
:10022000F0B441EA012141EA014122F007047FF0E4
:1002300000070023F0E80256083C85EA010586EA3B
:10024000010685FA47F5A3FA87F586FA47F6A5FA77
:1002500087F68EB9EED1F0BC01F0FF0102F0070283
:1002600032B110F8013B013A83EA010313B1F8D12E
:100270000020704701387047002D06BF354603380F
:10028000073815F0010F07D1013015F4807F02BF48
:10029000013015F4C03F0130F0BC0138704700BF99
:1002A000844641EA000313F003036DD1403A41D381
:1002B00051F8043B40F8043B51F8043B40F8043B40
:1002C00051F8043B40F8043B51F8043B40F8043B30
:1002D00051F8043B40F8043B51F8043B40F8043B20
:1002E00051F8043B40F8043B51F8043B40F8043B10
:1002F00051F8043B40F8043B51F8043B40F8043B00
:1003000051F8043B40F8043B51F8043B40F8043BEF
:1003100051F8043B40F8043B51F8043B40F8043BDF
:1003200051F8043B40F8043B51F8043B40F8043BCF
:10033000403ABDD2303211D351F8043B40F8043B6F
:1003400051F8043B40F8043B51F8043B40F8043BAF
:1003500051F8043B40F8043B103AEDD20C3205D37F
:1003600051F8043B40F8043B043AF9D2043208D077
:10037000D2071CBF11F8013B00F8013B01D30B88E9
:1003800003806046704700BF082A13D38B078DD0C7
:1003900010F003038AD0C3F10403D21ADB071CBF99
:1003A00011F8013B00F8013B80D331F8023B20F803
:1003B000023B7BE7043AD9D3013A11F8013B00F83C
:1003C000013BF9D20B7803704B7843708B788370C4
:1003D00060467047000000000000000000000000C0
:1003E000000000000000000000000000000000000D
:1003F00000000000000000000000000000000000FD
:1004000030B490F800F020F007016FF0000C10F00D
:10041000070491F820F040F048804FF000046FF09E
:100420000700D1E9002391F840F000F1080082FABA
:100430004CF2A4FA8CF283FA4CF3A2FA8CF34BBB85
:10044000D1E9022382FA4CF200F10800A4FA8CF2FE
:1004500083FA4CF3A2FA8CF3E3B9D1E9042382FACC
:100460004CF200F10800A4FA8CF283FA4CF3A2FAE1
:100470008CF37BB9D1E9062301F1200182FA4CF219
:1004800000F10800A4FA8CF283FA4CF3A2FA8CF380
:10049000002BC6D0002A04BF04301A4612BAB2FAA2
:1004A00082F200EBD20030BC7047D1E9002304F0A7
:1004B0000305C4F100004FEAC50514F0040F91F8DC
:1004C00040F00CFA05F562EA05021CBF63EA050379
:1004D00062464FF00004AAE781F0004102E000BF4D
:1004E00083F0004330B54FEA41044FEA430594EAF4
:1004F000050F08BF90EA020F1FBF54EA000C55EA2F
:10050000020C7FEA645C7FEA655C00F0E2804FEAFF
:100510005454D4EB5555B8BF6D420CDD2C4480EAE1
:10052000020281EA030382EA000083EA010180EA11
:10053000020281EA0303362D88BF30BD11F0004F5F
:100540004FEA01314FF4801C4CEA113102D0404295
:1005500061EB410113F0004F4FEA03334CEA1333D0
:1005600002D0524263EB430394EA050F00F0A780E8
:10057000A4F10104D5F1200E0DDB02FA0EFC22FAE3
:1005800005F2801841F1000103FA0EF2801843FAD7
:1005900005F359410EE0A5F120050EF1200E012AC8
:1005A00003FA0EFC28BF4CF0020C43FA05F3C01806
:1005B00051EBE37101F0004507D54FF0000EDCF17F
:1005C000000C7EEB00006EEB0101B1F5801F1BD328
:1005D000B1F5001F0CD349085FEA30004FEA3C0C2C
:1005E00004F101044FEA445212F5800F80F09A8022
:1005F000BCF1004F08BF5FEA500C50F1000041EB26
:10060000045141EA050130BD5FEA4C0C404141EB29
:100610000101013C28BFB1F5801FE9D291F0000F24
:1006200004BF01460020B1FA81F308BF2033A3F1D3
:100630000B03B3F120020CDA0C3208DD02F1140CCA
:10064000C2F10C0201FA0CF021FA02F10CE002F105
:100650001402D8BFC2F1200C01FA02F120FA0CFCFE
:10066000DCBF41EA0C019040E41AA2BF01EB045147
:10067000294330BD6FEA04041F3C1CDA0C340EDC45
:1006800004F11404C4F1200220FA04F001FA02F388
:1006900040EA030021FA04F345EA030130BDC4F146
:1006A0000C04C4F1200220FA02F001FA04F340EA3B
:1006B0000300294630BD21FA04F0294630BD94F0EC
:1006C000000F83F4801306BF81F480110134013DD3
:1006D0004EE77FEA645C18BF7FEA655C29D094EA44
:1006E000050F08BF90EA020F05D054EA000C04BFC2
:1006F0001946104630BD91EA030F1EBF00210020AD
:1007000030BD5FEA545C05D14000494128BF41F04B
:10071000004130BD14F580043CBF01F5801130BDAF
:1007200001F0004545F0FE4141F470014FF000003A
:1007300030BD7FEA645C1ABF194610467FEA655CEB
:100740001CBF0B46024650EA013406BF52EA03358D
:1007500091EA030F41F4002130BD00BF90F0000F7B
:1007600004BF0021704730B54FF4806404F13204B7
:100770004FF000054FF0000150E700BF90F0000F70
:1007800004BF0021704730B54FF4806404F1320497
:1007900010F0004548BF40424FF000013EE700BF67
:1007A00042004FEAE2014FEA31014FEA02701FBFF7
:1007B00012F07F4393F07F4F81F06051704732F029
:1007C0007F4208BF704793F07F4F04BF41F4002180
:1007D000704730B54FF4607401F0004521F00041DE
:1007E0001CE700BF50EA010208BF704730B54FF068
:1007F00000050AE050EA010208BF704730B511F069
:10080000004502D5404261EB41014FF4806404F1A0
:1008100032045FEA915C3FF4D8AE4FF003025FEA26
:10082000DC0C18BF03325FEADC0C18BF033202EBAA
:10083000DC02C2F1200300FA03FC20FA02F001FA04
:1008400003FE40EA0E0021FA02F11444BDE600BFA7
:1008500070B54FF0FF0C4CF4E06C1CEA11541DBF56
:100860001CEA135594EA0C0F95EA0C0F00F0DEF821
:100870002C4481EA030621EA4C5123EA4C5350EA06
:10088000013518BF52EA033541F4801143F4801357
:1008900038D0A0FB02CE4FF00005E1FB02E506F0E8
:1008A0000042E0FB03E54FF00006E1FB03569CF03D
:1008B000000F18BF4EF0010EA4F1FF04B6F5007F43
:1008C00064F5407404D25FEA4E0E6D4146EB0606B5
:1008D00042EAC62141EA55514FEAC52040EA5E503E
:1008E0004FEACE2EB4F1FD0C88BFBCF5E06F1ED8E8
:1008F000BEF1004F08BF5FEA500E50F1000041EB1F
:10090000045170BD06F0004646EA010140EA0200CB
:1009100081EA0301B4EB5C04C2BFD4EB0C0541EAED
:10092000045170BD41F480114FF0000E013C00F302
:10093000AB8014F1360FDEBF002001F0004170BD26
:10094000C4F10004203C35DA0C341BDC04F114043F
:10095000C4F1200500FA05F320FA04F001FA05F2CB
:1009600040EA020001F0004221F0004110EBD37098
:1009700021FA04F642EB06015EEA430E08BF20EAC4
:10098000D37070BDC4F10C04C4F1200500FA04F367
:1009900020FA05F001FA04F240EA020001F00041F9
:1009A00010EBD37041F100015EEA430E08BF20EA6C
:1009B000D37070BDC4F1200500FA05F24EEA020EB4
:1009C00020FA04F301FA05F243EA020321FA04F0E3
:1009D00001F0004121FA04F220EA020000EBD3709A
:1009E0005EEA430E08BF20EAD37070BD94F0000F9A
:1009F0000FD101F00046400041EB010111F4801FCE
:100A000008BF013CF7D041EA060195F0000F18BF7E
:100A1000704703F00046520043EB030313F4801FBA
:100A200008BF013DF7D043EA0603704794EA0C0F74
:100A30000CEA135518BF95EA0C0F0CD050EA41068A
:100A400018BF52EA4306D1D181EA030101F0004107
:100A50004FF0000070BD50EA410606BF104619462F
:100A600052EA430619D094EA0C0F02D150EA01363B
:100A700013D195EA0C0F05D152EA03361CBF10467C
:100A800019460AD181EA030101F0004141F0FE411B
:100A900041F470014FF0000070BD41F0FE4141F49F
:100AA000780170BD70B54FF0FF0C4CF4E06C1CEA9F
:100AB00011541DBF1CEA135594EA0C0F95EA0C0F54
:100AC00000F0A7F8A4EB050481EA030E52EA03350F
:100AD0004FEA013100F088804FEA03334FF0805530
:100AE00045EA131343EA12634FEA022245EA11155D
:100AF00045EA10654FEA00260EF000419D4208BF0E
:100B0000964244F1FD0404F5407402D25B084FEABA
:100B10003202B61A65EB03055B084FEA32024FF466
:100B200080104FF4002CB6EB020E75EB030E22BFC3
:100B3000B61A754640EA0C005B084FEA3202B6EB83
:100B4000020E75EB030E22BFB61A754640EA5C0032
:100B50005B084FEA3202B6EB020E75EB030E22BFC2
:100B6000B61A754640EA9C005B084FEA3202B6EBC3
:100B7000020E75EB030E22BFB61A754640EADC0082
:100B800055EA060E18D04FEA051545EA16754FEAE4
:100B900006164FEAC30343EA52734FEAC2025FEA02
:100BA0001C1CC0D111F4801F0BD141EA00014FF091
:100BB00000004FF0004CB6E711F4801F04BF014362
:100BC0000020B4F1FD0C88BFBCF5E06F3FF6AFAE7E
:100BD000B5EB030C04BFB6EB020C5FEA500C50F10E
:100BE000000041EB045170BD0EF0004E4EEA113191
:100BF00014EB5C04C2BFD4EB0C0541EA045170BD98
:100C000041F480114FF0000E013C90E645EA060EDB
:100C10008DE60CEA135594EA0C0F08BF95EA0C0F09
:100C20003FF43BAF94EA0C0F0AD150EA01347FF451
:100C300034AF95EA0C0F7FF425AF104619462CE728
:100C400095EA0C0F06D152EA03353FF4FDAE10468B
:100C5000194622E750EA410618BF52EA43067FF4DC
:100C6000C5AE50EA41047FF40DAF52EA43057FF46C
:100C7000EBAE12E74FF0FF3C06E000BF4FF0010C77
:100C800002E000BF4FF0010C4DF804CD4FEA410CDB
:100C90007FEA6C5C4FEA430C18BF7FEA6C5C1BD0A8
:100CA00001B050EA410C0CBF52EA430C91EA030F29
:100CB00002BF90EA020F0020704710F1000F91EA86
:100CC000030F58BF994208BF90422CBFD8176FEA54
:100CD000E37040F0010070474FEA410C7FEA6C5C22
:100CE00002D150EA013C07D14FEA430C7FEA6C5C29
:100CF000D6D152EA033CD3D05DF8040B704700BF55
:100D00008446104662468C461946634600E000BFA2
:100D100001B5FFF7B7FF002848BF10F1000F01BD74
:100D20004DF808EDFFF7F4FF0CBF012000205DF83F
:100D300008FB00BF4DF808EDFFF7EAFF34BF0120C4
:100D400000205DF808FB00BF4DF808EDFFF7E0FF5D
:100D500094BF012000205DF808FB00BF4DF808EDAE
:100D6000FFF7CEFF94BF012000205DF808FB00BF15
:100D70004DF808EDFFF7C4FF34BF012000205DF8F7
:100D800008FB00BF4FEA410C7FEA6C5C02D150EADD
:100D9000013C0AD14FEA430C7FEA6C5C02D152EA73
:100DA000033C02D14FF0000070474FF00100704744
:100DB0004FEA410212F5001215D211D56FF4787383
:100DC000B3EB625212D94FEAC12343F0004343EA26
:100DD000505311F0004F23FA02F018BF4042704701
:100DE0004FF00000704750EA013005D111F000408B
:100DF00008BF6FF0004070474FF00000704700BF21
:100E00000348044B834202D0034B03B11847704799
:100E1000C4060020C4060020000000000548064B60
:100E20001B1AD90F01EBA301491002D0034B03B1E8
:100E300018477047C4060020C406002000000000C8
:100E400010B5064C237843B9FFF7DAFF044B13B112
:100E50000448AFF300800123237010BDC4060020B6
:100E60000000000098BE000808B5054B1BB10549FD
:100E70000548AFF30080BDE80840FFF7CFBF00BFD3
:100E800000000000C806002098BE000800B585B02C
:100E9000002300930193029303931D481D4A0260AF
:100EA0004FF480324260836001220261027680F852
:100EB00020304FF08051C1624FF000618162C36009
:100EC0000221C16180F83030426100F0F1FCB0B91C
:100ED00002230093012301930323029369460C48E4
:100EE00000F06AFE70B90323009302230193694660
:100EF000074800F061FE40B905B05DF804FB00F062
:100F0000BFF8E5E700F0BCF8EDE700F0B9F8F3E76B
:100F1000E00600200020014010B588B000230393B4
:100F20000493059306930793026803F1804303F546
:100F300090339A4201D008B010BD0024019403F50B
:100F40008C335A6C42F480725A645A6C02F4807288
:100F50000192019A02941A6B42F001021A631B6B10
:100F600003F001030293029B0C23039303230493D6
:100F700003A9064800F068FF22462146122000F02F
:100F80003BFF122000F048FFD5E700BF0000024001
:100F9000F0B58BB000240594069407940894099446
:100FA0000194334B1A6B42F004021A631A6B02F07D
:100FB00004020192019A02941A6B42F080021A63B1
:100FC0001A6B02F080020292029A03941A6B42F0AA
:100FD00001021A631A6B02F001020392039A04944D
:100FE0001A6B42F002021A631B6B03F002030493B4
:100FF000049B204F22464FF40051384601F013F86D
:101000001D4E22464FF48071304601F00CF84FF42B
:1010100000530593012506950794089405A93846C1
:1010200000F012FF032305930694079505A93046A7
:1010300000F00AFF05954FF444130693079405A9A1
:101040000E4800F001FF4FF4807305930695079456
:10105000089405A9304600F0F7FE224621460620F6
:1010600000F0CAFE062000F0D7FE0BB0F0BD00BFB6
:101070000038024000080240000002400004024024
:1010800072B6FEE700B595B03022002108A803F043
:101090007FF800230393049305930693079301932A
:1010A000204A116C41F080511164126C02F08052A0
:1010B0000192019A02931C4A136823F4404343F4BB
:1010C00000431360136803F440430293029B01231F
:1010D00008934FF48033099302230E934FF4800258
:1010E0000F9219221092A8221192129304231393A3
:1010F00008A800F0B5FF80B90F23039302210491E3
:10110000002305934FF480520692079303A801F041
:10111000F7F920B915B05DF804FBFFF7B1FFFFF751
:10112000AFFF00BF003802400070004008B500F07B
:10113000E5FAFFF7A7FFFFF72BFF00F019F800F023
:1011400039FA00F0B5F900F003F9FFF79FFE00F05F
:1011500077F902F03DFA4FF40051044800F069FFBE
:101160004FF47A7000F0F6FAF5E700BF000802408D
:1011700008B50D480D4B03604FF4827343600023A4
:101180008360C360036143614FF400728261C36195
:101190000362436283620A23C36201F087FA00B9E3
:1011A00008BDFFF76DFFFBE7280700200030014076
:1011B00000B589B000230393049305930693079326
:1011C0000268154B9A4202D009B05DF804FB002179
:1011D000019103F584335A6C42F480525A645A6C7C
:1011E00002F480520192019A02911A6B42F00102BC
:1011F0001A631B6B03F001030293029BE02303932A
:1012000002230493032306930523079303A90348AA
:1012100000F01AFED8E700BF003001400000024095
:1012200082B0002100910B4B5A6C42F480425A6408
:101230005A6C02F480420092009A01911A6C42F0BA
:1012400080521A641B6C03F080530193019B02B01F
:10125000704700BF00380240FEE7FEE7FEE7FEE70A
:10126000FEE770477047704708B500F061FA08BDA7
:1012700008B5012000F0E6FE08BD000008B50248F0
:1012800000F0F9FB08BD00BFE006002008B50248E9
:1012900001F079FB08BD00BF8407002008B50248B3
:1012A00001F071FB08BD00BF140800200120704749
:1012B00008B503F013F8162303604FF0FF3008BDA4
:1012C00008B54FF0FF31FFF7F3FFFEE770B50C46AE
:1012D0001646002506E0AFF30080214601F8010B19
:1012E00001350C46B542F6DB304670BD4FF0FF309D
:1012F00070474FF400534B60002070470120704747
:101300000020704710B503460C4A0D490D4800688F
:1013100040B10C4800680344521A934206D8094A67
:10132000136010BD0748084C0460F2E702F0D6FFD6
:101330000C2303604FF0FF30F3E700BF00000120F3
:101340000004000080070020100D002070470000FE
:1013500000B591B000230C930D930E930F93079358
:10136000089309930A930B930593069301930293B1
:101370000393049331484FF080420260532242604D
:1013800083604FF6FF72C26003618023836101F0C6
:10139000FBFB00283CD14FF480530C930CA9274849
:1013A00001F0EEFC002836D1244801F019FC002899
:1013B00034D10423079350230893002309930B93FC
:1013C00007A91E4801F0B7FD58BB002305930693FB
:1013D00005A91A4801F0FAFE30BB00220192012350
:1013E000029303920A23049301A9144801F05AFCC2
:1013F000E8B90223019302930023049304220DEB26
:1014000002010E4801F04EFCA0B911B05DF804FBDA
:10141000FFF736FEBFE7FFF733FEC5E7FFF730FE05
:10142000C7E7FFF72DFED0E7FFF72AFED5E7FFF766
:1014300027FEDEE7FFF724FEE7E700BF14080020E1
:1014400000B587B0002302930393049305930093A0
:1014500001931548154A02604360836040F2E73209
:10146000C2600361836101F08FFB98B94FF4805330
:10147000029302A90C4801F083FC70B92023009369
:10148000002301936946084801F0A0FE40B907B067
:101490005DF804FBFFF7F4FDE8E7FFF7F1FDEDE78A
:1014A000FFF7EEFDF3E700BFCC070020000400408B
:1014B00008B50A480A4B0360532343600023836046
:1014C00040F2E732C26003618023836101F05CFB7C
:1014D00000B908BDFFF7D4FDFBE700BF840700207B
:1014E0000048014010B58AB0002305930693079386
:1014F000089309930368B3F1804F07D0294A9342B8
:101500002FD0294A934239D00AB010BD002401944B
:1015100003F50E331A6C42F001021A641A6C02F0E1
:1015200001020192019A02941A6B42F001021A63BD
:101530001B6B03F001030293029B4FF400430593DE
:10154000022306930123099305A9184800F07CFCA7
:10155000224621461C2000F04FFC1C2000F05CFCC1
:10156000D2E700230393124B1A6C42F002021A6472
:101570001B6C03F002030393039BC5E70021049156
:101580000B4B5A6C42F480225A645B6C03F4802348
:101590000493049B0A461A2000F02EFC1A2000F047
:1015A0003BFCB1E70004004000480140000002405D
:1015B0000038024008B50A480A4B03604FF4E13393
:1015C000436000238360C36003610C224261836136
:1015D000C36101F034FF00B908BDFFF751FDFBE71F
:1015E0005C0800200010014000B589B0002303937F
:1015F0000493059306930793026803F1804303F570
:1016000088339A4202D009B05DF804FB00210191B1
:1016100003F594335A6C42F010025A645A6C02F08B
:1016200010020192019A02911A6B42F001021A63B0
:101630001B6B03F001030293029B4FF4C0630393FF
:1016400002230493032306930723079303A9024865
:1016500000F0FAFBD7E700BF00000240DFF834D00B
:10166000FFF774FE0C480D490D4A002302E0D458E0
:10167000C4500433C4188C42F9D30A4A0A4C0023DC
:1016800001E013600432A242FBD302F02DFEFFF70B
:101690004DFD70470000012000000020C40600201E
:1016A00000C30008C4060020100D0020FEE7000063
:1016B00010B504460E4B1A784FF47A73B3FBF2F36D
:1016C0000C4A1068B0FBF3F000F0AAFB68B90F2CCD
:1016D00001D901200AE0002221464FF0FF3000F03E
:1016E0008BFB054B1C60002000E0012010BD00BFFB
:1016F00004000020000000200800002008B50B4B6B
:101700001A6842F400721A601A6842F480621A6021
:101710001A6842F480721A60032000F05BFB0F200D
:10172000FFF7C6FFFFF77CFD002008BD003C02402C
:10173000034A1168034B1B780B441360704700BFCA
:10174000A408002004000020014B1868704700BF67
:10175000A408002038B50446FFF7F6FF0546B4F1AB
:10176000FF3F02D0044B1B781C44FFF7EDFF401BEA
:10177000A042FAD338BD00BF040000204A4B5A688B
:1017800022F440325A605A6841680A435A6002683B
:10179000536823F48073536002685368016943EA15
:1017A000012353600268536823F04073536002685A
:1017B000536881680B4353600268936823F40063A5
:1017C000936002689368C1680B439360826A374BE9
:1017D0009A4257D00268936823F07063936002685E
:1017E0009368816A0B4393600268936823F04053C7
:1017F000936002689368C16A0B43936002689368C0
:1018000023F00203936002689368017E43EA410378
:10181000936090F82030002B3FD00268536843F467
:10182000006353600268536823F4604353600168A7
:101830004B68426A013A43EA42334B600268D36A1A
:1018400023F47003D3620168CB6AC269013A43EAA8
:101850000253CB620268936823F4007393600268BA
:10186000936890F8301043EA4123936002689368CC
:1018700023F48063936002689368416943EA81239B
:10188000936070470268936823F070639360026806
:10189000936823F040539360B0E70268536823F4E1
:1018A00000635360CAE700BF002301400100000F3E
:1018B00038B310B50446036C43B1236C13F0100F1A
:1018C0000BD00120002384F83C3010BDFFF724FB2F
:1018D0000023636484F83C30EFE7236C23F48853DF
:1018E00023F0020343F0020323642046FFF746FF80
:1018F00000206064236C23F0030343F0010323649E
:10190000E0E701207047000082B00023019390F8C7
:101910003C30012B75D0012380F83C3003689A6875
:1019200012F0010F13D19A6842F001029A60384B0D
:101930001B68384AA2FB03239B0C03EB4303019370
:1019400002E0019B013B0193019B002BF9D102684E
:10195000936813F0010F49D0036C23F4E06323F084
:10196000010343F480730364536813F4806F05D05C
:10197000036C23F4405343F480530364036C13F467
:10198000805F20D0436C23F006034364002380F87B
:101990003C306FF0220313600268536843F08063A9
:1019A00043F0200353601C4B5B6813F01F0F0DD1F5
:1019B00003689A6812F0405F25D19A6842F080422D
:1019C0009A6000201BE000234364DFE70368134AAA
:1019D000934201D0002012E09A6812F0405F14D1C7
:1019E0009A6842F080429A60002008E0036C43F05D
:1019F00010030364436C43F001034364002002B00E
:101A000070470220FBE70020F9E70020F7E700BF5E
:101A10000000002083DE1B43002301400020014022
:101A200090F83C30012B1FD0012380F83C30026835
:101A3000936823F00103936003689A6812F0010F22
:101A40000DD15A6822F0806222F020025A60036CA5
:101A500023F4885323F0010343F0010303640023BC
:101A600080F83C3018467047022070470368D86CF5
:101A700070477047704770B5044603681E685D681C
:101A800016F0020F2FD005F0200262B3026C12F0A4
:101A9000100F03D1026C42F4007202649A6812F0D3
:101AA000405F19D1227EBAB9DA6A12F4700F03D0FE
:101AB0009A6812F4806F0FD15A6822F020025A609F
:101AC000236C23F480732364236C13F4805F03D1AD
:101AD000236C43F001032364204601F0BBFE23681E
:101AE0006FF012021A6005F0800316F0040F37D071
:101AF000002B35D0236C13F0100F03D1236C43F46B
:101B00000053236423689A6812F4401F21D19A6B12
:101B100012F4401F03D09A6812F4806F19D15A68EA
:101B200012F4806F15D19A6812F0405F11D1227EB5
:101B30007AB95A6822F080025A60236C23F48053E9
:101B40002364236C13F4807F03D1236C43F00103DF
:101B50002364204600F0FAF823686FF00C021A6044
:101B600005F0400316F0010F05D023B123681B6870
:101B700013F0010F06D105F0806516F0200F00D09C
:101B800065B970BD236C43F4803323642046FFF7AE
:101B900070FF23686FF001021A60ECE7636C43F09A
:101BA0000203636423686FF020051D602046FFF781
:101BB00061FF23681D60E4E730B482B00022019227
:101BC00090F83C20012A00F0B6800346012280F8FC
:101BD0003C200A68092A40D90468E06892B202EB06
:101BE00042021E3A4FF0070C0CFA02F220EA0202FF
:101BF000E2601C68E0680A8802EB42021E3A8D68C7
:101C000005FA02F20243E2604A68062A3CD81C68E0
:101C1000606B02EB8202053A4FF01F0C0CFA02F2E5
:101C200020EA020262631C68606B4A6802EB82026F
:101C3000053AB1F800C00CFA02F202436263186878
:101C40003E4A904250D018683C4A904255D00020FD
:101C500083F83C0002B030BC70470468206992B23F
:101C600002EB42024FF0070C0CFA02F220EA0202E9
:101C700022611C6820690A8802EB42028D6805FA1D
:101C800002F202432261BFE70C2A16D81D68286BB6
:101C900002EB8202233A1F2404FA02F220EA020233
:101CA0002A631D68286B4A6802EB8202233A0C887B
:101CB00004FA02F202432A63C1E71D68E86A02EBF4
:101CC0008202413A1F2404FA02F220EA0202EA6286
:101CD0001D68E86A4A6802EB8202413A0C8804FAFD
:101CE00002F20243EA62AAE70A68122AABD1144858
:101CF000426842F480024260A5E70A68103A012A6D
:101D0000A5D80F48426842F4000242600A68102ACF
:101D10009DD10C4A12680C49A1FB0212920C02EBF5
:101D200082025200019202E0019A013A0192019A64
:101D3000002AF9D18BE702208CE700BF0020014088
:101D4000002301400000002083DE1B437047000099
:101D5000002807DB00F01F02400901239340024ADC
:101D600042F82030704700BF00E100E0002808DBA7
:101D70000901C9B200F1604000F5614080F800132C
:101D8000704700F00F000901C9B2014B19547047A8
:101D900014ED00E000B500F00700C0F1070CBCF145
:101DA000040F28BF4FF0040C031D062B0FD9C31ED0
:101DB0004FF0FF3E0EFA0CF021EA000199400EFAB6
:101DC00003FE22EA0E0241EA02005DF804FB002352
:101DD000EEE70000074AD36823F4E0631B041B0C02
:101DE000000200F4E060034343F0BF6343F40033B8
:101DF000D360704700ED00E010B50446054BD8688D
:101E0000C0F30220FFF7C6FF01462046FFF7AEFFF2
:101E100010BD00BF00ED00E008B5FFF799FF08BD59
:101E20000138B0F1807F0BD24FF0E0235861054AB2
:101E3000F02182F823100020986107221A61704770
:101E40000120704700ED00E000230F2B00F2DA8044
:101E500030B583B068E085684FEA430E032404FA86
:101E60000EF425EA0405CC6804FA0EF42C438460D1
:101E7000446824EA02044A68C2F300129A402243EA
:101E800042605FE0DC08083450F8242003F00705C6
:101E9000AD004FF00F0E0EFA05FE22EA0E0E0A6993
:101EA000AA4042EA0E0240F824205FE0042200E04B
:101EB000002202FA0EF22A430234534D45F8242040
:101EC000524A94686FEA0C0224EA0C05D1F804E047
:101ED0001EF4801F01D04CEA04054C4CA560E46858
:101EE00002EA0405D1F804E01EF4001F01D04CEA18
:101EF0000405464CE560646802EA0405D1F804E094
:101F00001EF4003F01D04CEA0405404C6560246893
:101F100022404D6815F4803F01D04CEA04023B4C4E
:101F2000226001330F2B6BD801229A400C6804EA1F
:101F3000020C32EA0404F4D14C6804F00304013CBE
:101F4000012C88D94A6802F00302032A09D0C46828
:101F50005D000322AA4024EA02048A68AA402243C0
:101F6000C2604A6802F00302022A8BD004684FEA7A
:101F7000430E032202FA0EF224EA02044A6802F037
:101F8000030202FA0EF2224302604A6812F4403F52
:101F9000C7D0002201921E4A546C44F48044546419
:101FA000526C02F480420192019A9C08A51C164AC8
:101FB00052F8255003F0030E4FEA8E0E0F2202FA5C
:101FC0000EF225EA0205134A90423FF471AF02F582
:101FD000806290420ED002F5806290420CD002F5F1
:101FE000806290420AD002F5806290423FF45EAF78
:101FF00007225EE701225CE702225AE7032258E744
:1020000003B030BD704700BF00380140003C0140C4
:1020100000380240000002400369194201D001204B
:102020007047002070470AB18161704709048161DF
:102030007047436901EA030221EA030141EA0241D0
:102040008161704708B5054B5B69034200D108BD4B
:10205000024B586101F092FBF9E700BF003C0140E0
:10206000002800F0E08170B582B00446036813F0E8
:10207000010F3BD09F4B9B6803F00C03042B2CD02B
:102080009C4B9B6803F00C03082B21D06368B3F5CD
:10209000803F4FD0B3F5A02F52D0964B1A6822F450
:1020A00080321A601A6822F480221A606368002B5A
:1020B00050D0FFF749FB05468E4B1B6813F4003FD9
:1020C00014D1FFF741FB401B6428F5D90320B1E18F
:1020D000884B5B6813F4800FD8D0864B1B6813F4D1
:1020E000003F03D06368002B00F09F81236813F04A
:1020F000020F54D07F4B9B6813F00C0F3ED07D4BEA
:102100009B6803F00C03082B33D0E368002B68D0E6
:10211000794B01221A60FFF717FB0546754B1B68C8
:1021200013F0020F54D1FFF70FFB401B0228F5D923
:1021300003207FE16F4A136843F480331360B5E7EF
:102140006C4B1A6842F480221A601A6842F480329A
:102150001A60ABE7FFF7F8FA0546664B1B6813F405
:10216000003FC3D0FFF7F0FA401B6428F5D90320E5
:1021700060E1604B5B6813F4800FC6D15D4B1B6858
:1021800013F0020F03D0E368012B40F05081594A4D
:10219000136823F0F803216943EAC103136023683D
:1021A00013F0080F42D063696BB3534B0122C3F89D
:1021B000802EFFF7C9FA05464E4B5B6F13F0020FF6
:1021C00034D1FFF7C1FA401B0228F5D9032031E1D1
:1021D000484A136823F0F803216943EAC1031360F6
:1021E000DDE7454B00221A60FFF7AEFA0546414B8A
:1021F0001B6813F0020FD2D0FFF7A6FA401B02288B
:10220000F5D9032016E13C4B0022C3F8802EFFF7DE
:102210009BFA0546374B5B6F13F0020F06D0FFF7B2
:1022200093FA401B0228F5D9032003E1236813F039
:10223000040F77D02F4B1B6C13F0805F33D100233A
:1022400001932C4B1A6C42F080521A641B6C03F001
:1022500080530193019B0125284B1B6813F4807F59
:1022600023D0A368012B34D0052B38D0214B1A6F13
:1022700022F001021A671A6F22F004021A67A3689B
:10228000002B3DD0FFF760FA06461A4B1B6F13F088
:10229000020F46D1FFF758FA801B41F2883398426B
:1022A000F3D90320C6E00025D6E7144A136843F4A7
:1022B00080731360FFF748FA0646104B1B6813F44F
:1022C000807FCED1FFF740FA801B0228F5D903208A
:1022D000B0E0084A136F43F001031367CFE7054BE3
:1022E0001A6F42F004021A671A6F42F001021A676D
:1022F000C5E700BF003802400000474200700040C0
:10230000FFF722FA0646524B1B6F13F0020F08D05C
:10231000FFF71AFA801B41F288339842F3D9032061
:1023200088E0EDB9A369002B00F08380484A9268E9
:1023300002F00C02082A51D0022B17D0454B002284
:102340001A66FFF701FA0446414B1B6813F0007F41
:1023500042D0FFF7F9F9001B0228F5D9032069E004
:102360003B4A136C23F080531364DBE7394B0022A4
:102370001A66FFF7E9F90546354B1B6813F0007F35
:1023800006D0FFF7E1F9401B0228F5D9032051E000
:10239000E369226A1343626A43EA8213A26A52081B
:1023A000013A43EA0243E26A43EA0263284A53607D
:1023B000284B01221A66FFF7C7F90446244B1B6815
:1023C00013F0007F06D1FFF7BFF9001B0228F5D9F3
:1023D00003202FE000202DE000202BE0012B2BD04C
:1023E0001B4B5B6803F48001E269914226D103F044
:1023F0003F02216A8A4223D1616A47F6C0721A40BD
:10240000B2EB811F1ED103F44031A26A5208013A97
:10241000B1EB024F18D103F07063E26AB3EB026FC5
:1024200014D1002006E001207047012002E00120C5
:1024300000E0002002B070BD0120FBE70120F9E7B9
:102440000120F7E70120F5E70120F3E70120F1E79C
:10245000003802400000474208B5264B9B6803F055
:102460000C03042B41D0082B41D1224B5A6802F0B7
:102470003F025B6813F4800F12D01E4B5968C1F302
:1024800088111D480023A1FB0001FDF799FE194B9F
:102490005B68C3F3014301335B00B0FBF3F027E05B
:1024A000144B5868C0F388104FEA401CBCEB000C7A
:1024B0006EEB0E0E4FEA8E1343EA9C634FEA8C11CB
:1024C000B1EB0C0163EB0E03DB0043EA5173C9006F
:1024D00011EB000C43F10003990200234FEA8C201A
:1024E00041EA9C51FDF76CFED1E7034800E0034848
:1024F00008BD00BF0038024040787D010024F40090
:10250000002800F09B8070B50D4604464F4B1B68B9
:1025100003F007038B4208D2CBB24C4A1370136806
:1025200003F007038B4240F08B80236813F0020F07
:1025300017D013F0040F04D0454A936843F4E053D6
:102540009360236813F0080F04D0414A936843F462
:10255000604393603E4A936823F0F003A1680B4305
:102560009360236813F0010F32D06368012B21D0F0
:102570009A1E012A25D9364A126812F0020F61D03C
:1025800033498A6822F0030213438B60FFF7DCF8BB
:1025900006462F4B9B6803F00C036268B3EB820F77
:1025A00016D0FFF7D1F8801B41F288339842F0D95A
:1025B000032042E0264A126812F4003FE0D10120D5
:1025C0003BE0234A126812F0007FD9D1012034E0A9
:1025D0001E4B1B6803F00703AB4207D9EAB21B4B43
:1025E0001A701B6803F00703AB422DD1236813F068
:1025F000040F06D0164A936823F4E053E1680B43B6
:102600009360236813F0080F07D0114A936823F4EE
:102610006043216943EAC1039360FFF71DFF0C4B40
:102620009B68C3F303130B4AD35CD8400A4B186072
:102630000A4B1868FFF73CF8002070BD0120704776
:102640000120FAE70120F8E70120F6E7003C02400C
:1026500000380240B8BE000800000020080000203A
:10266000014B1868704700BF0000002008B5FFF755
:10267000F7FF044B9B68C3F38223034AD35CD84023
:1026800008BD00BF00380240B0BE000808B5FFF723
:10269000E7FF044B9B68C3F34233034AD35CD84043
:1026A00008BD00BF00380240B0BE000800285AD064
:1026B00010B50446436A33B94368B3F5827F05D049
:1026C0000023C36102E00023036143610023A3628E
:1026D00094F85130002B40D0022384F85130226806
:1026E000136823F040031360636803F48273A268E5
:1026F00002F404421343E26802F4006213432269C5
:1027000002F002021343626902F001021343A2695C
:1027100002F400721343E26902F038021343226AA2
:1027200002F080021343A26A02F4005221681343AC
:102730000B60638B03F00403626A02F010022168ED
:1027400013434B602268D36923F40063D3610020F4
:102750006065012384F8513010BD84F85030204664
:10276000FEF726FDB8E70120704710B4036A046A3B
:1027700024F001040462846924F0F00C4CEA021293
:1027800023F00A030B438261036210BC704730B42C
:10279000056A046A24F010040462846924F4407C0D
:1027A0004CEA022C2CF4704C1B039BB243EA0C0342
:1027B00025F0A005090101F0A00129438361016210
:1027C00030BC704710B4036A046A24F01004046239
:1027D000846924F4704C4CEA023223F0A00343EAEB
:1027E00001138261036210BC704730B4056A046A49
:1027F00024F480740462C46924F0030C4CEA020CD3
:102800002CF0F00C1B01DBB243EA0C0325F420652D
:10281000090201F420612943C361016230BC7047A1
:1028200030B4056A046A24F480540462C46924F450
:10283000407C4CEA022C2CF4704C1B039BB243EA04
:102840000C0325F42045090301F420412943C36109
:10285000016230BC7047836823F070030B4343F080
:10286000070383607047000090F83D30DBB2012B16
:102870002AD1022380F83D300368154A934218D0CC
:10288000B3F1804F15D0A2F57C42934211D002F5EE
:10289000806293420DD002F58062934209D002F526
:1028A0009A32934205D01A6842F001021A60002061
:1028B00070479A6802F00702062A07D01A6842F0A9
:1028C00001021A6000207047012070470020704705
:1028D0000000014090F83D30DBB2012B2FD10223E4
:1028E00080F83D300268D36843F00103D360036889
:1028F000154A934218D0B3F1804F15D0A2F57C420F
:10290000934211D002F5806293420DD002F58062AD
:10291000934209D002F59A32934205D01A6842F0E8
:1029200001021A60002070479A6802F00702062A26
:1029300007D01A6842F001021A6000207047012097
:1029400070470020704700BF0000014070470C290D
:1029500014D8DFE801F0071313130A1313130D1330
:10296000131310000368586B70470368986B704727
:102970000368D86B70470368186C70470020704775
:1029800070477047704770B504460368DE681D697C
:1029900015F0020F10D016F0020F0DD06FF00202EA
:1029A0001A610123037703689B6913F0030F5ED05C
:1029B00000F0FEFE0023237715F0040F12D016F06E
:1029C000040F0FD023686FF004021A6102232377EB
:1029D00023689B6913F4407F4FD0204600F0E8FE47
:1029E0000023237715F0080F12D016F0080F0FD030
:1029F00023686FF008021A61042323772368DB69D8
:102A000013F0030F40D0204600F0D2FE00232377BE
:102A100015F0100F12D016F0100F0FD023686FF0C2
:102A200010021A61082323772368DB6913F4407FBF
:102A300031D0204600F0BCFE0023237715F0010FB3
:102A400002D016F0010F2DD115F0800F02D016F034
:102A5000800F2FD115F0400F02D016F0400F31D16A
:102A600015F0200F02D016F0200F33D170BDFFF704
:102A700087FF2046FFF785FF9CE72046FFF780FF92
:102A80002046FFF77EFFABE72046FFF779FF2046A1
:102A9000FFF777FFBAE72046FFF772FF2046FFF700
:102AA00070FFC9E723686FF001021A61204600F049
:102AB00041FEC9E723686FF080021A61204600F0EA
:102AC000C4FBC7E723686FF040021A612046FFF796
:102AD00059FFC5E723686FF020021A61204600F015
:102AE000B3FBC3E70368274A90420ED0B0F1804F92
:102AF0000BD0A2F57C42904207D002F58062904252
:102B000003D002F58062904203D123F070034A683B
:102B100013431C4A90421AD0B0F1804F17D0A2F54F
:102B20007C42904213D002F5806290420FD002F5B1
:102B3000806290420BD002F59A32904207D002F5A3
:102B40008062904203D002F58062904203D123F468
:102B50004073CA68134323F080034A6913438A68A9
:102B6000C2620A688262074A904207D0026842F055
:102B70000402026001224261036070470A69026335
:102B8000F4E700BF0000014040B310B5044690F8E0
:102B90003D30F3B1022384F83D30214651F8040B57
:102BA000FFF7A0FF012384F8463084F83E3084F814
:102BB0003F3084F8403084F8413084F8423084F863
:102BC000433084F8443084F8453084F83D300020A8
:102BD00010BD80F83C30FEF785FCDBE70120704734
:102BE00040B310B5044690F83D30F3B1022384F8A9
:102BF0003D30214651F8040BFFF774FF012384F8A0
:102C0000463084F83E3084F83F3084F8403084F811
:102C1000413084F8423084F8433084F8443084F8FA
:102C2000453084F83D30002010BD80F83C30FFF77F
:102C30008DFEDBE70120704770B49446066A046A93
:102C400024F0010404628469144DA84214D0B0F148
:102C5000804F11D0124A90420ED002F5806290420D
:102C60000AD002F58062904206D002F59A32904274
:102C700002D044F0010203E024F0030242EA0C0215
:102C800022F0F0021B01DBB2134326F00A0201F02E
:102C90000A0111438361016270BC7047000001406A
:102CA0000004004038B590F83C30012B5AD004465F
:102CB0000D46012380F83C3052B1042A1AD0082A6C
:102CC0002BD00C2A3BD00120002384F83C3038BDA7
:102CD000CB684A6809680068FFF7AEFF226893690D
:102CE00023F00C03936122689369A9680B439361F5
:102CF0000020E9E7CB684A6809680068FFF747FDEC
:102D00002268936923F44063936122689369A968F8
:102D100043EA012393610020D6E7CB684A6809683B
:102D20000068FFF762FD2268D36923F00C03D361CA
:102D30002268D369A9680B43D3610020C4E7CB683C
:102D40004A6809680068FFF76BFD2268D36923F4BD
:102D50004063D3612268D369A96843EA0123D36140
:102D60000020B1E70220B2E710B4846824F47F4C5D
:102D700042EA03220A4342EA0C02826010BC704716
:102D800090F83C30012B78D010B50446012380F830
:102D90003C30022380F83D300268936823F47F437F
:102DA00023F0770393600B68602B4CD029D8402B1D
:102DB00054D00CD9502B22D1CA6849680068FFF75B
:102DC000D4FC50212068FFF746FD002005E0202BB1
:102DD0000DD009D9302B0AD00120012384F83D30D1
:102DE000002384F83C3010BD0BB1102B05D11946DF
:102DF0002068FFF730FD0020EFE70120EDE701201C
:102E0000EBE7B3F5805F34D0B3F5005F0CD1CB684E
:102E10004A6889680068FFF7A7FF2268936843F44F
:102E2000804393600020D8E7702B24D1CB684A6898
:102E300089680068FFF798FF2268936843F077037A
:102E400093600020C9E7CA6849680068FFF7BAFCC8
:102E500060212068FFF7FFFC0020BEE7CA684968D0
:102E60000068FFF782FC40212068FFF7F4FC002097
:102E7000B3E70020B1E70120AFE70220704710B5AB
:102E80000468A26822F070024B68134323F0070322
:102E90000A681A43A2604B68502B32D00BD9602BC2
:102EA00036D0702B43D10B698A68C9680068FFF778
:102EB0005BFF00200FE0402B0ED001D901200AE07B
:102EC000202B2CD003D9302B2FD1002003E043B38B
:102ED000102B28D1002010BD0B68052B29D00368CA
:102EE0001C6A1A6A22F001021A620268936923F0CE
:102EF000F003096943EA0113936103681C6200202F
:102F0000E9E70A6989680068FFF72FFC0020E2E71B
:102F10000A6989680068FFF755FC0020DBE700209C
:102F2000D9E70020D7E70120D5E70120D3E701202A
:102F3000D1E70120CFE790F83C30012B22D010B52B
:102F40000446012380F83C30022380F83D30FFF72F
:102F500096FF80B92268D36823F04003D3602268CB
:102F6000D36823F48043D360012384F83D300023E9
:102F700084F83C3010BD012084F83D00002384F823
:102F80003C30F7E70220704701F01F014FF0010CC1
:102F90000CFA01FC036A23EA0C030362036A8A4009
:102FA000134303627047000010B504460B46F1B9A5
:102FB00090F83E00C0B253BB94F84220D2B2012830
:102FC00040F09680012A40F0948083BB022184F86F
:102FD0003E1084F842100C2B00F28C80DFE803F0E6
:102FE000718A8A8A418A8A8A6B8A8A8A7700042946
:102FF00005D0082907D090F84100C0B2DBE790F86F
:103000003F00C0B2D7E790F84000C0B2D3E7042B2E
:1030100005D0082B07D094F84520D2B2CFE794F81A
:103020004320D2B2CBE794F84420D2B2C7E7042BB6
:103030000CD0082B0ED0022184F84110042B0DD0A7
:10304000082B35D0022184F84510C4E7022184F80A
:103050003F10F3E7022184F84010EFE7022284F8E2
:1030600043202168CA6842F00402CA60012219465E
:103070002068FFF789FF2368204A93422DD0B3F1DF
:10308000804F2AD0A2F57C42934226D002F580627E
:10309000934222D002F5806293421ED002F59A320A
:1030A00093421AD01A6842F001021A60002020E010
:1030B000022284F844202168CA6842F00802CA60EB
:1030C000D4E72168CA6842F00202CA60CEE72168EC
:1030D000CA6842F01002CA60C8E79A6802F00702A4
:1030E000062A09D01A6842F001021A60002000E0A6
:1030F000012010BD1046FCE70020FAE70000014067
:1031000038B505460C460C295DD8DFE801F0075CB0
:103110005C5C285C5C5C2E5C5C5C34000268D368A0
:1031200023F00203D360002221462868FFF72CFF1A
:103130002B68196A41F21112114208D1196A40F242
:103140004442114203D11A6822F001021A60C4B944
:10315000012385F83E3085F84230002034E00268D3
:10316000D36823F00403D360DDE70268D36823F05B
:103170000803D360D7E70268D36823F01003D36055
:10318000D1E7042C0DD0082C0FD0012385F8413055
:10319000042C0ED0082C11D0012385F845300020D6
:1031A00012E0012385F83F30F2E7012385F8403033
:1031B000EEE7012385F84330002005E0012385F880
:1031C0004430002000E0012038BD000090F83C2091
:1031D000012A34D010B40346012280F83C20022298
:1031E00080F83D2002685068946820F0700C0868F0
:1031F00040EA0C0050601A681248824212D0B2F1C4
:10320000804F0FD0A0F57C4082420BD000F580604B
:10321000824207D000F58060824203D000F59A30E8
:10322000824204D124F08004496821439160012244
:1032300083F83D20002083F83C0010BC704702203A
:10324000704700BF0000014070477047026802F1FC
:103250000C0353E8003F23F490730C3242E8003132
:103260000029F3D1026802F1140353E8003F23F070
:103270000103143242E800310029F3D1036B012B22
:1032800005D0202380F84230002303637047026892
:1032900002F10C0353E8003F23F010030C3242E824
:1032A00000310029F3D1ECE710B504460268136938
:1032B00023F44053C1680B431361836802691A43C6
:1032C00043691A43C3691A430168CB6823F4164360
:1032D00023F00C031343CB600268536923F440735B
:1032E00081690B4353610368314A934206D002F56A
:1032F0008062934202D0FFF7B9F901E0FFF7C6F907
:10330000E369B3F5004F29D00021031849411B1888
:1033100041F10001C90041EA5371DB0018186368EC
:103320004FEA83024FEA937341F10001FCF748FF33
:10333000204AA2FB00314909642303FB11031B014E
:103340003233A2FB03235B0903F0F00202EB01120C
:1033500003F00F03216813448B6010BD0023021893
:1033600043EB0301121841F10001C90041EA527117
:10337000D200101841F10001626892185B41FCF71D
:103380001FFF0C4AA2FB00314909642303FB110310
:10339000DB003233A2FB03235B095A0002F4F8720C
:1033A00002EB011203F00703216813448B60D4E79A
:1033B000001001401F85EB512DE9F04383B0054615
:1033C0000E4617469946DDF828802B681C6836EAB9
:1033D00004040CBF01240024BC4228D1B8F1FF3FF3
:1033E000F3D0FEF7B1F9A0EB0900404523D8B8F1BE
:1033F000000F22D02B68DA6812F0040FE5D0802E7F
:10340000E3D0402EE1D01A6812F0080FDDD000247E
:1034100001941A6801925B680193019B2846FFF7AB
:1034200015FF08236B6485F84040012000E0002070
:1034300003B0BDE8F0830320FAE70320F8E760B3A8
:1034400010B5044690F8413013B3242384F841307A
:103450002268D36823F40053D3602046FFF724FF8B
:103460002268136923F4904313612268536923F09F
:103470002A0353612268D36843F40053D3600020C9
:103480006064202384F8413084F84230606310BDCA
:1034900080F84030FEF7A8F8D7E7012070472DE903
:1034A000F04182B01E4690F84130DBB2202B56D15D
:1034B00004460D469046002955D00AB901204FE038
:1034C00000234364212380F84130FEF73DF907468D
:1034D000A4F82480A4F82680A368B3F5805F02D006
:1034E0004FF0000814E023692BB34FF000080FE001
:1034F000202384F84130032032E038F8023B226870
:10350000C3F308035360E28C92B2013A92B2E284B0
:10351000E38C9BB293B100963B460022802120466B
:10352000FFF74AFF0028E3D1002DE6D015F8012B64
:1035300023685A60E7E7A8460025E9E700963B467E
:10354000002240212046FFF737FF18B9202384F8D6
:10355000413005E0202384F84130032000E00220C0
:1035600002B0BDE8F0810120FAE7000000B583B0A9
:10357000124B1B68ADF804301B0C8DF80630104B55
:103580001B78834206D00F4B1B7883420DD003B0CB
:103590005DF804FB0429FAD10B4B01221A704FF499
:1035A00000510A48FEF745FDF1E70429EFD14FF439
:1035B00000510648FEF73DFDE9E700BFC8BE000820
:1035C0001209002011090020100900200008024003
:1035D00030B587B000F082FA64230722434944489B
:1035E000FFF75DFF434C01221146204600F0A4FA8C
:1035F000414B187001220221204600F09DFA3F4BFA
:1036000018703F4800F0CCFA3E48FFF763F93E4897
:10361000FFF72AF900243EE03C4B1B78012B3AD1FE
:103620003A4A002111701C4635E0394D00212846E8
:10363000FFF7BAFC04212846FFF7B6FC354B1B8880
:1036400093B13548FEF760F9344B1B78344AA2FB3E
:10365000031202F0F001A1EB1212A3EB420313F0EC
:10366000FF0F18D1022416E02B48FEF7D9F9EBE73B
:103670002C4B33F8143022462B4901A800F020FDD2
:103680006423142201A91A48FFF709FF0134E4B2A8
:103690001D2CEDD90324042CFDD801A353F824F0EC
:1036A000193600082B360008B5360008B936000870
:1036B000E93600080024EBE7154C00212046FFF70F
:1036C0001FFD04212046FFF71BFD0424E3E7174BF1
:1036D00053F824202146164800F0DEFC0134E4B201
:1036E000052CF4D90024D6E70024F9E7CCBE000865
:1036F0005C0800200000024012090020110900208F
:103700006D35000884070020CC0700201009002038
:103710001408002014090020E0060020D008002032
:1037200089888888D4080020D4BE0008B808002002
:10373000DCBE000808B50D4B834200D008BD00F088
:1037400051FA0B4B1A6801321A600A4BA3FB0213A1
:103750005B094FF4FA7101FB1323002BEED14FF4F8
:1037600000510548FEF765FCE8E700BF840700202C
:10377000B0080020D34D621000080240012800D09C
:10378000704708B501210848FEF746FC28B94FF4F8
:1037900080710648FEF74DFC08BD4FF48071034868
:1037A000FEF747FCF8E700BF0004024000000240BB
:1037B0000368B3F1804F00D0704710B5037F012B31
:1037C00002D0022B29D010BD0021FFF7C0F8431C06
:1037D0009BB2174A1380174C21781748A0FB012091
:1037E00000F0F002A2EB1012A1EB4202D2B2134899
:1037F00000881B1A124820F8123001312170002273
:10380000104B1A80104B1978481C18700F4B1C680D
:103810000F4840F821401A60D5E70421FFF797F8D8
:103820000130064B1880074B01221A80CBE700BFFE
:10383000AC080020D008002089888888AA080020C9
:10384000D408002014090020A8080020B408002093
:10385000B808002008B5FEF709F909490A88531C81
:103860009BB20B80074921F8120007490A68013210
:103870000A60482B00D008BD014B00221A80FAE7ED
:103880001609002018090020B408002070B50E4663
:103890001546002407E04FF0FF3301223119044898
:1038A000FFF7FDFD0134AC42F5DB284670BD00BFDB
:1038B0005C08002008B5724B1B78834240F2D78029
:1038C00000EB40026F4B03EBC20300225A741B7CD7
:1038D000052B00F2CD80DFE803F0031B426979B8C5
:1038E00000EB4002674B03EBC2035B7D002B00F053
:1038F000B380644B03EBC2031B7D002B40F0AC8014
:10390000604B03EBC20301221A7400225A82A3E027
:1039100000EB40025B4B03EBC2035B7DBBB1134684
:10392000584A02EBC302538A01339BB25382528935
:103930009342C0F0918000EB4002524B03EBC20374
:1039400002221A7400225A8201225A7484E000EB87
:1039500040024C4B03EBC20300221A747CE000EBE4
:103960004002484B03EBC2035B7D9BB11346454AC3
:1039700002EBC302538A01339BB253829289934272
:103980006AD300EB40023F4B03EBC20303221A74DD
:103990005A7461E000EB40023A4B03EBC20304228D
:1039A0001A7400225A8202225A7455E000EB400237
:1039B000344B03EBC2035B7D002B4DD1314B03EB4A
:1039C000C20300221A7402225A7445E000EB40033D
:1039D0002C4A02EBC302538A01339BB25382527DBD
:1039E00012B300EB4001274A02EBC102127DDAB9A3
:1039F000244A02EBC102937D0133DBB29375012BA4
:103A000009D000EB40021F4B03EBC20301221A74E2
:103A100000225A8220E01B4B03EBC10300221A74E0
:103A2000052159749A7517E000EB4001154A02EB25
:103A3000C102D28993420FD3124B03EBC103002280
:103A40001A74042159749A7506E000EB40020D4B7C
:103A500003EBC20300221A7400EB4002094B03EB94
:103A6000C203597C19B1084B1B6803B1984708BDC4
:103A700000EB4002034B03EBC20300221A74EBE796
:103A8000B0090020B4090020A8090020114B1B78C0
:103A900083421BD970B5044600EB40030E4A52F82E
:103AA0003300A8B11546660002EBC3039988FEF700
:103AB000B3FA0246003818BF0120264405EBC605BC
:103AC0002B7A13B1B2FA82F0400970BD0020704722
:103AD0000020FAE7B0090020B409002010B400214A
:103AE00016E0114C01EB4103D800231800221A7490
:103AF0005A745A821A755A759A7522505A60012260
:103B00001A7204225A81C8229A813C22DA81013138
:103B10000229E6DD0023054A1370054A1360054AB1
:103B2000136010BC704700BFB4090020B00900202A
:103B3000AC090020A80900202DE9F041164B1C78A3
:103B4000022C24D828B3631C134D2B70134E04EBA6
:103B5000440306EBC30546F8330069602A72042368
:103B60006B81C823AB813C23EB814FF0000885F8C3
:103B7000108085F81180A5F812802046FFF786FF97
:103B80002875687585F816802046BDE8F081FF2409
:103B9000FAE7FF24F8E700BFB0090020B4090020CD
:103BA000014B1860704700BFA8090020F8B5002439
:103BB0000FE02046FFF76AFF084D04EB440605EBD3
:103BC000C60670752046FFF775FE737D33750134A8
:103BD000E4B2034B1B78A342EBD8F8BDB409002034
:103BE000B009002008B5034A136801331360FFF7DA
:103BF000DDFF08BDAC0900202DE9F047089D0C460B
:103C0000002B4ED194468C458646B2FA82F262D998
:103C10004AB1C2F12003914020FA03F30CFA02FCEE
:103C2000194300FA02FE4FEA1C471FFA8CF6B1FB5B
:103C3000F7F44FEA1E4307FB141143EA014304FB68
:103C400006F199420AD91CEB030304F1FF3080F01E
:103C50001281994240F20F81023C6344591A1FFAC3
:103C60008EF3B1FBF7F007FB101143EA014300FBB1
:103C700006F69E420AD91CEB030300F1FF3180F0E7
:103C8000FC809E4240F2F980634402389B1B40EA6C
:103C9000044000211DB1D3400022C5E90032BDE837
:103CA000F0878B4205D90DB1C5E900010021084616
:103CB000F5E7B3FA83F1002946D1A34202D390423B
:103CC000C0F0F080861A64EB03030120002DE6D0DB
:103CD000C5E90063E3E7002A40F09080A1EB0C0403
:103CE0004FEA1C481FFA8CF70121B4FBF8F64FEAA3
:103CF0001E4308FB164443EA044307FB06F09842C0
:103D000008D91CEB030306F1FF3402D2984200F2FB
:103D1000CD8026461C1A1FFA8EF3B4FBF8F008FB80
:103D2000104443EA044300FB07F79F4208D91CEB09
:103D3000030300F1FF3402D29F4200F2B08020461C
:103D4000DB1B40EA0640A5E7C1F120068B4022FAC2
:103D500006F71F4320FA06FC04FA01F343EA0C03BA
:103D6000F44000FA01F8380C4FEA1349B4FBF0FEB6
:103D70001FFA87FC00FB1E4449EA04440EFB0CF9C1
:103D8000A14502FA01F20AD93C190EF1FF3A80F07E
:103D90008480A14540F28180AEF1020E3C44A4EB48
:103DA00009041FFA83F9B4FBF0F300FB134449EA5A
:103DB000044403FB0CFCA44507D93C1903F1FF3074
:103DC00067D2A44565D9023B3C4443EA0E40A0FBC0
:103DD0000293A4EB0C049C42CE469C4651D34ED099
:103DE00055B1B8EB0E0364EB0C0404FA06F6CB40B5
:103DF0001E43CC40C5E90064002150E7C2F1200316
:103E000020FA03F10CFA02FC24FA03F394400C4369
:103E10004FEA1C4800FA02FE1FFA8CF7B3FBF8F0D9
:103E200008FB1031230C43EA014300FB07F19942E0
:103E300008D91CEB030300F1FF362CD299422AD992
:103E4000023863445B1AA4B2B3FBF8F108FB1133E8
:103E500044EA034401FB07F3A34208D91CEB040422
:103E600001F1FF3613D2A34211D902396444E41A96
:103E700041EA004139E70446F0E6084606E7C8454E
:103E8000AED2B9EB020E63EB070C0138A8E731465E
:103E9000EDE7034699E73046D4E7D6467FE763442B
:103EA00002384DE70646234608460FE7023E6344C4
:103EB00030E700BF024A0349034800F0C9B800BF19
:103EC0000C000020C1940008200000200C4B416829
:103ED000994210B5044601D005F0F2FAA168094BE9
:103EE000994202D0204605F0EBFAE168064B994270
:103EF00004D02046BDE8104005F0E2BA10BD00BF76
:103F0000FC090020640A0020CC0A00202DE9F843B7
:103F1000314C324B3248DFF8CC90DFF8CC80334F55
:103F20001860002529460423082204F15C00304E65
:103F3000E360C4E90055C4E90455A5606566A56160
:103F400000F026F904F15800C4E90749C4E90987DB
:103F5000E66200F0F1F92946264B6367082204F176
:103F6000C400C4E91A55C4E91E552567C4F8CC50ED
:103F7000C4F8805000F00CF904F1680304F1C000AB
:103F8000C4F88430C4E92298C4E9247600F0D4F956
:103F9000194BC4F8DC30294604F596700822C4E9B0
:103FA0003455C4E93855C4F8D850C4F83451C4F86D
:103FB000E85000F0EDF804F1D003C4E93D87C4F8FF
:103FC000F09004F59470C4F8FC60C4F8EC30BDE8DF
:103FD000F84300F0B1B900BFFC090020340B002009
:103FE000B53E000801410008254100086541000870
:103FF00089410008090001001200020010B50446C2
:104000000A4800F09DF9636B23B9094B094A1B6804
:10401000626323B1BDE81040044800F093B9FFF794
:1040200075FFBDE81040014800F08CB9440B00203A
:10403000340B0020CD3E0008014800F081B900BFDC
:10404000440B0020014800F07DB900BF440B002064
:104050002DE9F84380460F4616464FF00009D6E991
:104060000154013D11D4A389012B05F1FF3508D975
:10407000B4F90E300133214603D04046B84749EA2F
:1040800000096B1C04F16804EDD13668002EE6D1FE
:104090004846BDE8F88300BF0FB400B5074983B0B8
:1040A00004AB086853F8042B8168019302F048FBC5
:1040B00003B05DF804EB04B0704700BF18000020A7
:1040C0000EB410B59DB06FF000411FAB0491079185
:1040D000094953F8042B02900690084C0868019394
:1040E00002A9059400F060FD029B00221A701DB029
:1040F000BDE8104003B07047180000200802FFFF21
:1041000010B50C46B1F90E1000F0BCF8002803DB26
:10411000236D0344236510BDA38923F48053A38139
:1041200010BD00BF2DE9F0410C46B1F90C101F463F
:10413000CB05054616460BD421F48051A1813B46A0
:10414000B4F90E1032462846BDE8F04100F0B0B890
:10415000B4F90E100223002200F07EF8B4F90C101E
:10416000EAE700BF10B50C46B1F90E1000F074F884
:10417000B4F90C30421C0EBF23F4805343F4805337
:104180002065A38110BD00BFB1F90E1000F052B838
:10419000830730B547D0541E002A3ED0CAB203462A
:1041A00001E0013C39D303F8012B9D07F9D1032C21
:1041B0002CD9CDB205EB05250F2C05EB054535D9DE
:1041C000A4F1100222F00F0C03F1100EE6444FEAA6
:1041D000121C1A46156055609560D5601032724504
:1041E000F8D10CF1010214F00C0F03EB021204F0F1
:1041F0000F0C13D0ACF1040323F003030433134476
:1042000042F8045B9A42FBD10CF003042CB1C9B212
:104210001C4403F8011B9C42FBD130BD644613468D
:10422000002CF4D1F9E703461446C0E71A46A44629
:10423000E0E700BF38B5074D0022044608462A6073
:10424000FDF754F8431C00D038BD2B68002BFBD081
:10425000236038BD380B002038B50C46084D844625
:10426000114620461A4600232B606446FDF748F8A5
:10427000431C00D038BD2B68002BFBD0236038BD19
:10428000380B002038B50C46084D844611462046B0
:104290001A4600232B606446FDF718F8431C00D033
:1042A00038BD2B68002BFBD0236038BD380B0020B5
:1042B00038B50C46084D8446114620461A46002360
:1042C0002B606446FFF7E2FA431C00D038BD2B6830
:1042D000002BFBD0236038BD380B0020014B186841
:1042E000704700BF1800002070B50F4B0F4DAB4258
:1042F000A3EB050607D0B610002455F8043B0134A3
:104300009847A642F9D807F0C7FD094D094B5E1B37
:10431000AB424FEAA60606D0002455F8043B013410
:104320009847A642F9D870BDF4C20008F4C200084C
:10433000F4C20008FCC20008704700BF704700BF0D
:10434000704700BF704700BF024B13B1024800F036
:1043500005B8704700000000319D000800230146A9
:104360001A46184605F03EBD2DE9F84306460820DA
:10437000894605F0F1FCDFF89C800546304600F0E8
:1043800007FCD8F808305F6827F00307A7F111048D
:10439000A4EB09042C44B4FBF5F4013C05FB04F444
:1043A000A54208DC0021304605F0B0FCD8F8083002
:1043B0003B44984205D0304600F0F0FB0020BDE8B9
:1043C000F8836142304605F0A1FC01300FD0124A5B
:1043D000D8F808303F1B47F001075F60136830468C
:1043E0001B1B136000F0DAFB0120BDE8F8830021FD
:1043F000304605F08BFCD8F80820831A0F2BDADD45
:1044000043F001035360054B03491B68C01A086061
:10441000D1E700BF500100204C0B002044010020D8
:1044200000297CD0F8B50C46064600F0B1FB54F8E4
:10443000043C774FA4F1080523F001016818D7F870
:1044400008C04268844522F0030200F08380DB0745
:10445000426000EB020C33D454F8084CDCF8043012
:104460002D1B2144AC6807F1080C644503F00103DF
:1044700064D0D5F80CE0C4F80CE0CEF80840002B6E
:1044800000F0818041F001036B600160B1F5007FB5
:1044900022D27868CB080122490901338A400243BD
:1044A00057F833107A6007EBC302083AC5E90212E5
:1044B00047F83350CD603046BDE8F84000F06EBBA1
:1044C000DCF80430DB072BD541F00103B1F5007FA8
:1044D00044F8043C0160DCD3B1F5206F4FEA51236E
:1044E00053D28B0903F1390003F13802C300F818E5
:1044F000FB580838984203D163E09B68984204D087
:104500005A6822F003028A42F7D8D868C5E9023017
:104510008560DD603046BDE8F84000F03FBB704785
:10452000114407F1080C836863453FD0C268DA6024
:10453000936041F001036B606950A7E7002B61D1E4
:104540000A44D0E90213CB60996042F001036B602A
:10455000AA50B0E70A44D90707D454F8083CED1A2A
:104560001A44D5E90213CB60996042F001036B60F5
:10457000284BBD601B6893429DD8274B3046196875
:10458000FFF7F2FE97E71144CDE7142B08D9542B1F
:104590001FD80B0B03F16F0003F16E02C300A6E7F7
:1045A00003F15C0003F15B02C300A0E741F00103EB
:1045B0003D617D61C5F808C0C5F80CC06B606950ED
:1045C00079E779689210012404FA02F20A437A60CA
:1045D0009CE7B3F5AA7F06D8CB0B03F1780003F173
:1045E0007702C30083E740F25452934206D88B0C03
:1045F00003F17D0003F17C02C30078E74FF47E7382
:104600007E2274E741F001036B60016053E700BF55
:1046100050010020480100207C0B00202DE9F04FC4
:1046200001F10B05162D85B0064624D8102900F29D
:10463000B18000F0ADFA102518234FF0020CBA4FEC
:104640003B44A3F108025C68944200F02281636855
:10465000E268A16823F00303CA60234430469160F6
:104660005A6842F001025A60083400F097FA204676
:1046700005B0BDE8F08F35F0070500F18B80A94249
:1046800000F2888000F084FAB5F5FC7FC0F07381F9
:104690006B0A00F08380042B00F22281AB0903F146
:1046A000390C03F1380E4FEACC039F4F3B44A3F182
:1046B00008005C68A04207D10DE0002AE16880F2A2
:1046C000E280884207D00C46636823F003035A1B3C
:1046D0000F2AF2DDF446DFF854823C69444500F0CD
:1046E000BF80636823F00309A9EB05030F2B00F3D8
:1046F0004781002BC7E9048880F23181B9F5007F3A
:10470000D7F804E080F0CC804FEAD90101314FEABC
:104710005919012303FA09F357F83120A2604EEA30
:10472000030E07EBC103083BE360C7F804E047F85A
:104730003140D4604FEAAC0301209840704534D832
:1047400010EA0E0F07D12CF0030C400010EA0E0FF8
:104750000CF1040CF9D007EBCC0A5246E146D168C3
:104760000EE04B6823F00303A3EB050EBEF10F0F21
:104770000C46C96800F3C180BEF1000F80F2E280F0
:104780008A42EED109F1010919F0030F02F1080282
:10479000E5D121E10C233360002468E74FF4007376
:1047A0004FF0400C4FF03F0E7FE7BC68636823F08A
:1047B0000309A94503D3A9EB05030F2B53DC5C4B7D
:1047C000DFF870B11B68082003F1100805F0C4FA87
:1047D000DBF8003001900133A84404EB090205D056
:1047E00008F1FF388044434203EA08084146304656
:1047F000029205F08BFAB0F1FF3F029A824600F078
:10480000DC80824200F2D7804B4B0199186840440B
:1048100001F1FF311860844640F0FC801AEA010F74
:1048200040F0F880D7F808A0C84448F00102CAF860
:104830000420424B1968814238BF1860404B196808
:10484000814238BF1860544622F00308A845A8EBFF
:10485000050301D30F2B06DC304600F09FF99BE7E0
:10486000D7F804E066E7621943F0010345F001055B
:1048700065603046BA60536000F090F90834204615
:1048800005B0BDE8F08FA2682344D16030468A604D
:10489000E6E6DC68A3427FF4DAAE0CF1020C1AE71C
:1048A000B9F5206F4FEA59227ED3142A00F2158100
:1048B00002F15C03DB005B32F918FB5808399942BE
:1048C00003D1F0E09B68994204D05A6822F00302B9
:1048D0004A45F7D8D968C4E902318C60DC6029E721
:1048E000142B6DD9542B00F201812B0B03F16F0CAB
:1048F00003F16E0E4FEACC03D7E63046A668621984
:1049000045F001056560F1608E604EF00101C7E978
:104910000422C2F80880C2F80C80516044F803E019
:1049200000F03CF90834A2E65001002058010020B4
:104930007C0B0020440100204C0B0020780B002051
:10494000740B0020234430465A6842F001025A603A
:1049500054F8083FD9608B6000F020F987E6A14445
:104960003046D9F8043043F00103C9F80430083464
:1049700000F014F97BE64FEAD50C05F108035EE67A
:10498000621943F0010145F0010565603046C7E951
:104990000422C2F80880C2F80C80516044F8093043
:1049A00000F0FCF8083462E64FEA991202F139038C
:1049B000DB00383280E7BC4224D0BC68626843E741
:1049C00003F15C0C03F15B0E4FEACC036DE65AF881
:1049D0000839534540F0D8801CF0030F0CF1FF3C20
:1049E000F5D17B6823EA00037B60400098423FF6E4
:1049F000DCAE18B9D9E6400009F104091842FAD032
:104A0000CC46A8E6614B0199186808EB000C013907
:104A1000C3F800C0DBF8000001301BBFAAEB0202A4
:104A20006244CBF800A01A601AF00702CDE9022315
:104A300042D0C2F10802019B9244D044134408EAD8
:104A400001001A1A02EA010B5946304605F05EF9D8
:104A5000421C039B7AD0A0EB0A0000EB0B081868FD
:104A6000C7F808A048F001025844BC42CAF8042024
:104A700018603FF4DEAEB9F10F0F42D96168A9F1B9
:104A80000C0222F0070201F0010111436160A1183C
:104A90004FF0050C0F2AC1F804C0C1F808C04AD86D
:104AA000DAF80420C5E69210012000FA02F24EEA7C
:104AB000020EC7F804E00EE7019B0AEB08020A4069
:104AC0009A1A02EA010B5946304605F01FF9431CB9
:104AD000039BC0D1DDF808B0C1E7542A15D84FEACE
:104AE000193202F16F03DB006E32E5E6B3F5AA7FFF
:104AF00015D8EB0B03F1780C03F1770E4FEACC03DA
:104B0000D3E50123CAF80430A6E6B2F5AA7F25D87A
:104B10004FEAD93202F17803DB007732CCE640F27B
:104B20005452934225D8AB0C03F17D0C03F17C0E5B
:104B30004FEACC03B9E5304604F108010193FFF7D1
:104B40006FFC019BD7F808A01868A9E7029A083AF9
:104B50009044A8EB0A084FF0000B80E740F2545352
:104B60009A420DD84FEA994202F17D03DB007C3274
:104B7000A2E64FF47E734FF07F0C4FF07E0E94E56B
:104B80004FF47E737E2297E67B682EE74C0B002065
:104B90000148FFF7D5BB00BF3C0B00200148FFF7E1
:104BA000D1BB00BF3C0B00202DE9F04FDFB00C461D
:104BB000099191460D93834605F0A4F803681A9372
:104BC0001846FBF71DFC0021189008222EA8FFF7BD
:104BD000DFFAA389190603D52369002B00F0888723
:104BE0000023CDE93333CDE91B33CDE91D331393D6
:104BF00019930A9300240023CDE9163435AA329282
:104C00009046CDF81CB04D46079F2E46734BD3F807
:104C1000E44005F071F803462EA8009032462AA918
:104C20003846A047002800F0A980C0F29F802A9A49
:104C3000252A034601D01E44E8E7771B044640F0CE
:104C4000A08000238DF89F3099460B934FF0FF32E0
:104C500073780892741C0134A3F120025A2A00F2DE
:104C6000BF80DFE812F0E602BD00BD00E202BD0039
:104C7000BD00BD006A00BD00BD0048025702BD0076
:104C80005302F402BD00F0025B005B005B005B00BE
:104C90005B005B005B005B005B00BD00BD00BD0016
:104CA000BD00BD00BD00BD003E01BD00C7010E033B
:104CB0003E013E013E01BD00BD00BD00BD00DE0263
:104CC000BD00BD005C02BD00BD00BD00F101BD0026
:104CD000CB02BD00BD000607BD00BD00BD00BD008C
:104CE000BD00BD00BD00BD003E01BD00C7012302E7
:104CF0003E013E013E018D0223027F00BD00A6025F
:104D0000BD009702FB06B9027F00BD00F1017D00E6
:104D10000107BD00BD002A07BD007D00A3F13002E0
:104D2000002114F8013B01EB810102EB4101A3F1E9
:104D30003002092AF5D90B918EE7079F384604F017
:104D4000E1FF43681D931846FBF75AFB1E90064689
:104D5000384604F0D7FF83681B93002E40F0168678
:104D6000237878E7237849F0200974E708220021A6
:104D70002EA8FFF70DFA01231E4447E7771B0446D0
:104D800011D0349B3B443493339B0133072BC8E948
:104D90000057339318DC08F108080A9B3B440A9338
:104DA000002C7FF44EAF349BDDF81CB0002B41F09B
:104DB000ED81099B9B8903F04003002B41F0BD83EB
:104DC0000A985FB0BDE8F08F0999079832AA06F0FB
:104DD000B5FD0028EDD10DF1D408DEE7580500201F
:104DE000CDE90E34002BDED000228DF814310123E2
:104DF0008DF89F2006930C929B4608921492109275
:104E0000129245AD19F0020302D0069902310691C3
:104E100019F08407349C05D10B9906980E1A002EC0
:104E200000F3A78082B10122C8F80420339A01322E
:104E300001340DF19F01072A34943392C8F8001011
:104E400000F3038408F1080883B1339B28AA0133D7
:104E50000234C8F80020072B4FF002023494339339
:104E6000C8F8042000F3E58308F10808802F00F05B
:104E7000BE82089BA3EB0B06002E00F3FD8219F403
:104E8000807F40F01782339BC8F8005001335C44A8
:104E9000072BC8F804B03494339300F36A8308F105
:104EA000080819F0040F05D00B9B069A9D1A002DD7
:104EB00000F3DA83DDE90A3206998A42ACBF9B1817
:104EC0005B180A93002C40F01683002333930C9B4D
:104ED0001BB10C990798FFF7A3FA0DF1D4080F9DA9
:104EE00092E6CDE90E340D9B073323F00703F3E878
:104EF00002670D9327F0004323932296DDE922AB4E
:104F0000B14B4FF0FF3250465946CDE91667FBF7DB
:104F100039FF002840F04785AB4B4FF0FF32504639
:104F20005946FBF711FF002840F03D850022002381
:104F300030463946FBF7FEFE002841F053809DF8CD
:104F40009F20A24DA24B29F080090E994729C8BF86
:104F50001D46002303210C9306918B46089314935E
:104F600010931293002A3FF44DAF069B0133069332
:104F700048E7102E339A41F3798296482195CDE97E
:104F80001F372146099D079C15904FF0100A0746D0
:104F900004E0103E102E08F1080816DD0132103131
:104FA000072AC8E9007ACDE93321F2DD32AA294681
:104FB00020460DF1D40806F0C1FC002840F0F1862F
:104FC000103E102EDDE93321E8DCDDE91F37219D9D
:104FD0000C4601321599C8F800103444072ACDE96F
:104FE0003324C8F8046000F3CB869DF89F2008F1B5
:104FF000080817E70D9A432BCDE90E3402F104049B
:1050000003D019F0100F00F05D850822002130A8B0
:10501000FFF7BEF80D9B07981A6845AD30AB2946DF
:1050200006F058FCB0F1FF3F834601F0818220EA90
:10503000E073069300220D948DF89F200C92089245
:10504000149210921292DDE60D9E56F8045BCDE9A3
:105050000E3400238DF89F30002D00F058850E9BF4
:10506000532B00F0BA8619F01003129340F0B58666
:10507000089B5A1C01F0958012991A462846FBF7A6
:10508000BFF80C90002801F0F0820C9B0D96A3EB6A
:10509000050B129B08932BEAEB71149310930C935E
:1050A00073239DF89F2006910E935BE719F0200F64
:1050B000CDE90E3400F0ED800D9B073323F007039C
:1050C0001A46596852F8083B0D920A460029C0F268
:1050D0001A840899013100F09D8253EA020129F0F7
:1050E000800440F09882089A002A40F09982A146F4
:1050F00093465EAD52E10D9B53F8042B0B92002AB0
:1051000080F225840B9A0D9352420B92237849F03A
:105110000409A0E52B238DF89F3023789BE5CDE98A
:105120000E3449F0100919F0200200F0B5830D9BF0
:10513000073323F0070319465A6851F8083B0D91CD
:1051400029F4806400210020089D8DF89F006F1CC9
:1051500000F00D8153EA020024F0800940F006813E
:10516000002D40F02886002940F0C98314F0010B7F
:1051700000F0F18330238DF877310DF277150DE1D2
:105180002378682B03BF637849F40079013449F030
:10519000400960E519F0200F0F9400F0E6830D9BA5
:1051A0000A9A1B681A60D2175A600D9B04330D933C
:1051B00095E623786C2B03BF637849F0200901340E
:1051C00049F0100947E500BFFFFFEF7FE4BE00088C
:1051D000E8BE000838BF00080D9A0F9452F8043B4F
:1051E0000D9247F63002ADF8A0207820A84A199217
:1051F00049F00204002202210E90A4E7CDE90E340A
:1052000049F0100414F0200200F055830D9B073381
:1052100023F0070319465A6851F8083B0D91012104
:1052200091E7237849F0080915E5237849F0010949
:1052300011E59DF89F202378002A7FF40CAD2022F1
:105240008DF89F2007E5237849F0800903E5214682
:1052500011F8013B2A2B01F02B82A3F13002092A1D
:105260000C4698BF002101F2328114F8013B01EB9A
:10527000810102EB4101A3F13002092AF5D908911D
:10528000EAE449F0100919F0200FCDE90E347FF45B
:1052900013AF0D9A19F0100F52F8043B0D9240F025
:1052A000608319F0400F00F0588343F3C032114679
:1052B0001BB20BE70E9B652B40F36681DDE91601FF
:1052C00000220023FBF72CFD002800F01182339B05
:1052D000704AC8F80020013301340122072B3494AE
:1052E0003393C8F8042000F36B8508F10808299B64
:1052F000139A934280F22683189B1A9A1C44C8E999
:105300000023339B34940133072B339300F3E4835E
:1053100008F10808139B5D1E002D7FF7C2AD102D0C
:10532000339B40F3AE855C4FDDF81CB0DDF824A064
:105330001597102605E008F10808103D102D40F3E0
:10534000A28501331034072BC8E90076CDE9333448
:10535000F1DD32AA5146584606F0F0FA002840F036
:10536000C082DDE933340DF1D408E6E74C4601296B
:1053700000F0518102295EAD1ED1199803F00F0192
:105380001B09415C05F8011D43EA0273120953EA47
:105390000201F3D15EABA146A3EB050B08999DF882
:1053A0009F2059454FF00003B8BF59460C93069112
:1053B000149310931293D5E503F00701DB0843EA39
:1053C0004273D208303153EA0206284605F8011D1F
:1053D000F2D1E607DED53029DCD03023023805F8DB
:1053E000013C5EABA146A3EB000B0546D6E70B9B49
:1053F000069A9E1A002E7FF73CAD102E339B41F388
:10540000A1802548DDF81CA01590214610271A46DA
:10541000044604E0103E102E08F1080816DD0132A3
:105420001031072AC8E90047CDE93321F2DD099997
:1054300032AA50460DF1D40806F080FA002840F058
:10544000B284103E102EDDE93321E8DC0C46134611
:105450000133159AC8F800203444072BCDE93334C2
:10546000C8F8046000F31D85089BA3EB0B06002E13
:1054700008F108087FF703AD074A339B1592102EF9
:105480002ADD2246079F099C4FF0100A0BE000BF5F
:10549000F4BE000824BF000828BF0008103E102EEC
:1054A00008F1080817DD01338E491032072BC8E9CF
:1054B000001ACDE93332F1DD32AA2146384606F032
:1054C0003DFA002840F00C82103E102EDDE9333208
:1054D0000DF1D408E7DC14460133159AC8F8002012
:1054E0003444072BCDE93334C8F8046000F3C78196
:1054F00008F10808C3E40999079832AA06F01EFAD1
:1055000000283FF4E2ACDDF81CB0EAE1339B7649B9
:10551000C8F80010013301340121072B3494339370
:10552000C8F8041000F3748508F10808002A40F058
:10553000E684139A09F0010313433FF4B2AC189BBD
:105540001A9A1C44C8E90023339B34940133072B77
:10555000339300F3458608F10808139AC8F8005001
:1055600001331444072BCDE93334C8F804207FF706
:1055700096AC0999079832AA06F0E0F90028C2D142
:10558000349C0DF1D4088CE4139B339E012B04F161
:10559000010406F1010608F1080740F329810123FF
:1055A000072ECDE93364C8F80050C8F8043000F382
:1055B000B181189B1A9A01361C44072EC7E90023B3
:1055C000CDE9336400F3B2810837139BDDE916019E
:1055D00003F1FF3800220023FBF7A2FB002840F074
:1055E0002181013601354444072ECDE933643D6005
:1055F000C7F8048000F30A8108371C9B7B600136E2
:105600001C44072E2CABCDE933643B60B1DC07F1C1
:10561000080846E44C460A2B72F1000180F05383DF
:1056200030338DF87731A1464FF0010B0DF277152D
:10563000B4E60999079832AA06F080F900287FF4A9
:1056400062AF349C0DF1D40810E4099907981593C2
:1056500032AA06F073F900287FF455AF349C159BED
:105660000DF1D408FFF7F0BB102D339B40F33387C7
:105670001E4FDDF81C90DDF824A01597102604E0DD
:10568000103D102D08F1080816DD01331034072BEA
:10569000C8E90076CDE93334F2DD32AA51464846F6
:1056A0000DF1D40806F04AF9002840F0E883103DD7
:1056B000102DDDE93334E8DC0133159A2C44072B37
:1056C000C8E90025CDE933347FF7F4AB0999079891
:1056D00032AA06F033F900287FF415AF349CFFF7A7
:1056E000E9BB00BF28BF000824BF000838BF00087E
:1056F000299A002A7FF70AAFDDE912739F42A8BFFB
:105700001F46002F05EB030B0BDD339B01333C449D
:10571000072BC8E900573494339300F3428608F10D
:105720000808129E002FA8BFF61B002E00F300826F
:10573000DDF848A019F4806FAA4440F02182299D29
:10574000139B9D4203DB19F0010F00F06F84189B3F
:105750001A9A1C44C8E90023339B34940133072B65
:10576000339300F3758608F10808139BABEB0A0628
:105770005D1BAE42A8BF2E46002E0DDD339BC8F840
:1057800000A001333444072BC8F8046034943393E9
:1057900000F3708608F10808002EA8BFAD1B002D8D
:1057A0007FF77FAB102D339B40F36B83AD4FDDF85C
:1057B0001CB0DDF824A01597102605E008F10808B4
:1057C000103D102D40F35F8301331034072BC8E9DF
:1057D0000076CDE93334F1DD32AA5146584606F061
:1057E000ADF800287DD1DDE933340DF1D408E7E7C9
:1057F00019F0010F7FF4D3AE0123072ECDE93364F6
:10580000C8F80050C8F804307FF7F7AE0999079838
:1058100032AA06F093F800287FF475AEDDE9336410
:1058200035AFEAE6139B012B7FF7E7AE112B8D4BCB
:10583000159340F35883CDF82090DDF81CA0DDF8D7
:1058400024B01025994606E00837A8F11008B8F1F1
:10585000100F40F3468301361034072EC7E9009538
:10586000CDE93364F0DD32AA5946504606F066F8B9
:10587000002840F09882DDE9336435AFE5E7099907
:10588000079832AA06F05AF800287FF43CAE349C00
:105890000DF1D408FFF7F3BA0D9951F8043B0D91BF
:1058A00019F010017FF44CAC19F0400000F0638354
:1058B0009BB20A4644E40D9951F8043B0D9114F053
:1058C00010010BD114F0400003D00A469BB2012115
:1058D00039E414F400721CBFDBB20246012132E449
:1058E000BB460C9B002B3FF464AA0C995846FEF76C
:1058F00097FD099B9B8903F04003FFF75EBADDF833
:1059000020B05EAD4AE55B4262EB42024C462D2080
:10591000012119E40999079832AA06F00FF8002826
:105920007FF4F1ADDDE9336435AF42E609990798BC
:1059300032AA06F003F800287FF4E5ADDDE9336410
:1059400035AF42E619F0010F3FF4ABAAD4E40D9352
:105950002378FFF780B95EAD20E519F4007F40F0B1
:105960007483DA171146FFF7B1BB19F0100F40F03E
:10597000B28219F0400F40F0628319F4007F00F00A
:10598000AA820D9B0A9A1B681A700EE41B9A237850
:10599000002A3FF460A91278002A3FF45CA949F478
:1059A0008069FFF758B9DDE9160102460B46FBF79F
:1059B000E9F9002840F00F860E9B612B00F0068568
:1059C000412B00F08285089B013300F017840E9B69
:1059D00023F02003472B04D1089B002B08BF012391
:1059E0000893DDE9161249F48070002A1590CDF86D
:1059F00018904FF00003C0F22185CDE924121F93C7
:105A00000C930E9B413B252B00F22883DFE813F01B
:105A10000104260326032603FA03FE0326032603B6
:105A2000260326032603260326032603260326032E
:105A3000260326032603260326032603260326031E
:105A4000260326032603260326032603260326030E
:105A50002603260326032603FA03FE03CDE90E34AC
:105A6000FFF761BB28BF0008CDE90E344C46FFF7B5
:105A7000C9BBCDE90E34BD4B199319F0200200F0DB
:105A800008810D9B073323F0070319465A6851F824
:105A9000083B0D9119F0010F0AD053EA020107D01B
:105AA0000E998DF8A110302149F002098DF8A0104F
:105AB00029F480640221FFF746BBCDE90E34AC4BDC
:105AC0001993DAE70D9B1B688DF8143101230693B7
:105AD0009B4645ADFFF7AEBA0999079832AA05F083
:105AE0002DFF00287FF40FAD349C0DF1D40811E494
:105AF00040215846FEF792FD099B18601861002866
