:020000040800F2
:100000000000012031150008491100084B110008BB
:100010004D1100084F1100085111000800000000A8
:100020000000000000000000000000005311000864
:100030005511000800000000571100085911000870
:100040008115000881150008811500088115000838
:100050008115000881150008811500088115000828
:100060008115000881150008811500088115000818
:100070008115000881150008811500088115000808
:100080008115000881150008811500080000000096
:1000900000000000000000000000000081150008C2
:1000A00081150008811500086111000881150008FC
:1000B00071110008811500088115000881150008DC
:1000C00081150008811500088115000881150008B8
:1000D0008115000881150008811500080000000046
:1000E0008115000881150008811500080000000036
:1000F0000000000000000000000000008115000862
:100100000000000081150008811500088115000815
:1001100000000000000000000000000000000000DF
:100120008115000881150008811500088115000857
:100130008115000800000000000000000000000021
:100140000000000000000000000000008115000811
:100150008115000881150008811500088115000827
:100160008115000881150008000000000000000053
:10017000000000000000000000000000000000007F
:1001800000000000811500080000000000000000D1
:0401900081150008CD
:1001C00081F0004102E000BF83F0004330B54FEA08
:1001D00041044FEA430594EA050F08BF90EA020F75
:1001E0001FBF54EA000C55EA020C7FEA645C7FEA08
:1001F000655C00F0E2804FEA5454D4EB5555B8BF2B
:100200006D420CDD2C4480EA020281EA030382EA9B
:10021000000083EA010180EA020281EA0303362D2D
:1002200088BF30BD11F0004F4FEA01314FF4801C00
:100230004CEA113102D0404261EB410113F0004F12
:100240004FEA03334CEA133302D0524263EB4303C9
:1002500094EA050F00F0A780A4F10104D5F1200E67
:100260000DDB02FA0EFC22FA05F2801841F10001C2
:1002700003FA0EF2801843FA05F359410EE0A5F196
:1002800020050EF1200E012A03FA0EFC28BF4CF0C7
:10029000020C43FA05F3C01851EBE37101F000457D
:1002A00007D54FF0000EDCF1000C7EEB00006EEB8A
:1002B0000101B1F5801F1BD3B1F5001F0CD3490814
:1002C0005FEA30004FEA3C0C04F101044FEA44526B
:1002D00012F5800F80F09A80BCF1004F08BF5FEAF2
:1002E000500C50F1000041EB045141EA050130BDD2
:1002F0005FEA4C0C404141EB0101013C28BFB1F5E4
:10030000801FE9D291F0000F04BF01460020B1FA2E
:1003100081F308BF2033A3F10B03B3F120020CDA01
:100320000C3208DD02F1140CC2F10C0201FA0CF0DF
:1003300021FA02F10CE002F11402D8BFC2F1200C44
:1003400001FA02F120FA0CFCDCBF41EA0C019040FA
:10035000E41AA2BF01EB0451294330BD6FEA040443
:100360001F3C1CDA0C340EDC04F11404C4F120022E
:1003700020FA04F001FA02F340EA030021FA04F340
:1003800045EA030130BDC4F10C04C4F1200220FA97
:1003900002F001FA04F340EA0300294630BD21FAD5
:1003A00004F0294630BD94F0000F83F4801306BF9B
:1003B00081F480110134013D4EE77FEA645C18BF8F
:1003C0007FEA655C29D094EA050F08BF90EA020F26
:1003D00005D054EA000C04BF1946104630BD91EA1E
:1003E000030F1EBF0021002030BD5FEA545C05D121
:1003F0004000494128BF41F0004130BD14F5800460
:100400003CBF01F5801130BD01F0004545F0FE41D3
:1004100041F470014FF0000030BD7FEA645C1ABF08
:10042000194610467FEA655C1CBF0B46024650EA3F
:10043000013406BF52EA033591EA030F41F400216B
:1004400030BD00BF90F0000F04BF0021704730B5F1
:100450004FF4806404F132044FF000054FF00001C6
:1004600050E700BF90F0000F04BF0021704730B587
:100470004FF4806404F1320410F0004548BF40425C
:100480004FF000013EE700BF42004FEAE2014FEAB1
:1004900031014FEA02701FBF12F07F4393F07F4F8C
:1004A00081F06051704732F07F4208BF704793F08F
:1004B0007F4F04BF41F40021704730B54FF46074A2
:1004C00001F0004521F000411CE700BF50EA0102A5
:1004D00008BF704730B54FF000050AE050EA01024E
:1004E00008BF704730B511F0004502D5404261EBBE
:1004F00041014FF4806404F132045FEA915C3FF4FF
:10050000D8AE4FF003025FEADC0C18BF03325FEA9B
:10051000DC0C18BF033202EBDC02C2F1200300FA4C
:1005200003FC20FA02F001FA03FE40EA0E0021FA71
:1005300002F11444BDE600BF70B54FF0FF0C4CF45F
:10054000E06C1CEA11541DBF1CEA135594EA0C0F11
:1005500095EA0C0F00F0DEF82C4481EA030621EA4C
:100560004C5123EA4C5350EA013518BF52EA033587
:1005700041F4801143F4801338D0A0FB02CE4FF039
:100580000005E1FB02E506F00042E0FB03E54FF069
:100590000006E1FB03569CF0000F18BF4EF0010E61
:1005A000A4F1FF04B6F5007F64F5407404D25FEA5D
:1005B0004E0E6D4146EB060642EAC62141EA555110
:1005C0004FEAC52040EA5E504FEACE2EB4F1FD0C52
:1005D00088BFBCF5E06F1ED8BEF1004F08BF5FEAD0
:1005E000500E50F1000041EB045170BD06F0004682
:1005F00046EA010140EA020081EA0301B4EB5C042F
:10060000C2BFD4EB0C0541EA045170BD41F4801126
:100610004FF0000E013C00F3AB8014F1360FDEBF4B
:10062000002001F0004170BDC4F10004203C35DA27
:100630000C341BDC04F11404C4F1200500FA05F3AA
:1006400020FA04F001FA05F240EA020001F000424B
:1006500021F0004110EBD37021FA04F642EB0601C1
:100660005EEA430E08BF20EAD37070BDC4F10C04EB
:10067000C4F1200500FA04F320FA05F001FA04F2AF
:1006800040EA020001F0004110EBD37041F100019B
:100690005EEA430E08BF20EAD37070BDC4F12005A6
:1006A00000FA05F24EEA020E20FA04F301FA05F20E
:1006B00043EA020321FA04F001F0004121FA04F2B6
:1006C00020EA020000EBD3705EEA430E08BF20EA86
:1006D000D37070BD94F0000F0FD101F000464000C0
:1006E00041EB010111F4801F08BF013CF7D041EA42
:1006F000060195F0000F18BF704703F00046520046
:1007000043EB030313F4801F08BF013DF7D043EA16
:100710000603704794EA0C0F0CEA135518BF95EACC
:100720000C0F0CD050EA410618BF52EA4306D1D153
:1007300081EA030101F000414FF0000070BD50EA72
:10074000410606BF1046194652EA430619D094EAFC
:100750000C0F02D150EA013613D195EA0C0F05D1E6
:1007600052EA03361CBF104619460AD181EA03013A
:1007700001F0004141F0FE4141F470014FF00000F2
:1007800070BD41F0FE4141F4780170BD70B54FF08D
:10079000FF0C4CF4E06C1CEA11541DBF1CEA13550D
:1007A00094EA0C0F95EA0C0F00F0A7F8A4EB0504EF
:1007B00081EA030E52EA03354FEA013100F08880E6
:1007C0004FEA03334FF0805545EA131343EA1263AF
:1007D0004FEA022245EA111545EA10654FEA002664
:1007E0000EF000419D4208BF964244F1FD0404F51D
:1007F000407402D25B084FEA3202B61A65EB030579
:100800005B084FEA32024FF480104FF4002CB6EB35
:10081000020E75EB030E22BFB61A754640EA0C00B5
:100820005B084FEA3202B6EB020E75EB030E22BFF5
:10083000B61A754640EA5C005B084FEA3202B6EB36
:10084000020E75EB030E22BFB61A754640EA9C00F5
:100850005B084FEA3202B6EB020E75EB030E22BFC5
:10086000B61A754640EADC0055EA060E18D04FEA83
:10087000051545EA16754FEA06164FEAC30343EA23
:1008800052734FEAC2025FEA1C1CC0D111F4801FF0
:100890000BD141EA00014FF000004FF0004CB6E7E9
:1008A00011F4801F04BF01430020B4F1FD0C88BF88
:1008B000BCF5E06F3FF6AFAEB5EB030C04BFB6EB93
:1008C000020C5FEA500C50F1000041EB045170BD86
:1008D0000EF0004E4EEA113114EB5C04C2BFD4EBB3
:1008E0000C0541EA045170BD41F480114FF0000E37
:1008F000013C90E645EA060E8DE60CEA135594EAB3
:100900000C0F08BF95EA0C0F3FF43BAF94EA0C0FB5
:100910000AD150EA01347FF434AF95EA0C0F7FF42A
:1009200025AF104619462CE795EA0C0F06D152EA7E
:1009300003353FF4FDAE1046194622E750EA410662
:1009400018BF52EA43067FF4C5AE50EA41047FF473
:100950000DAF52EA43057FF4EBAE12E753B94AB943
:10096000002908BF00281CBF4FF0FF314FF0FF30B7
:1009700000F00CB8ADF1080C6DE904CE03F008FAF4
:10098000DDF804E0DDE9022304B07047704700BFE2
:1009900001F0FF01102A2BDB10F0070F08D010F830
:1009A000013B013A8B422DD010F0070F42B3F6D134
:1009B000F0B441EA012141EA014122F007047FF04D
:1009C00000070023F0E80256083C85EA010586EAA4
:1009D000010685FA47F5A3FA87F586FA47F6A5FAE0
:1009E00087F68EB9EED1F0BC01F0FF0102F00702EC
:1009F00032B110F8013B013A83EA010313B1F8D197
:100A00000020704701387047002D06BF3546033877
:100A1000073815F0010F07D1013015F4807F02BFB0
:100A2000013015F4C03F0130F0BC0138704700BF01
:100A3000844641EA000313F003036DD1403A41D3E9
:100A400051F8043B40F8043B51F8043B40F8043BA8
:100A500051F8043B40F8043B51F8043B40F8043B98
:100A600051F8043B40F8043B51F8043B40F8043B88
:100A700051F8043B40F8043B51F8043B40F8043B78
:100A800051F8043B40F8043B51F8043B40F8043B68
:100A900051F8043B40F8043B51F8043B40F8043B58
:100AA00051F8043B40F8043B51F8043B40F8043B48
:100AB00051F8043B40F8043B51F8043B40F8043B38
:100AC000403ABDD2303211D351F8043B40F8043BD8
:100AD00051F8043B40F8043B51F8043B40F8043B18
:100AE00051F8043B40F8043B103AEDD20C3205D3E8
:100AF00051F8043B40F8043B043AF9D2043208D0E0
:100B0000D2071CBF11F8013B00F8013B01D30B8851
:100B100003806046704700BF082A13D38B078DD02F
:100B200010F003038AD0C3F10403D21ADB071CBF01
:100B300011F8013B00F8013B80D331F8023B20F86B
:100B4000023B7BE7043AD9D3013A11F8013B00F8A4
:100B5000013BF9D20B7803704B7843708B7883702C
:100B60006046704700000000000000000000000028
:100B70000000000000000000000000000000000075
:100B800030B490F800F020F007016FF0000C10F086
:100B9000070491F820F040F048804FF000046FF017
:100BA0000700D1E9002391F840F000F1080082FA33
:100BB0004CF2A4FA8CF283FA4CF3A2FA8CF34BBBFE
:100BC000D1E9022382FA4CF200F10800A4FA8CF277
:100BD00083FA4CF3A2FA8CF3E3B9D1E9042382FA45
:100BE0004CF200F10800A4FA8CF283FA4CF3A2FA5A
:100BF0008CF37BB9D1E9062301F1200182FA4CF292
:100C000000F10800A4FA8CF283FA4CF3A2FA8CF3F8
:100C1000002BC6D0002A04BF04301A4612BAB2FA1A
:100C200082F200EBD20030BC7047D1E9002304F01F
:100C30000305C4F100004FEAC50514F0040F91F854
:100C400040F00CFA05F562EA05021CBF63EA0503F1
:100C500062464FF00004AAE74FF0FF3C06E000BFF9
:100C60004FF0010C02E000BF4FF0010C4DF804CD35
:100C70004FEA410C7FEA6C5C4FEA430C18BF7FEAF5
:100C80006C5C1BD001B050EA410C0CBF52EA430C23
:100C900091EA030F02BF90EA020F0020704710F1A3
:100CA000000F91EA030F58BF994208BF90422CBF32
:100CB000D8176FEAE37040F0010070474FEA410C2B
:100CC0007FEA6C5C02D150EA013C07D14FEA430C49
:100CD0007FEA6C5CD6D152EA033CD3D05DF8040BBA
:100CE000704700BF8446104662468C4619466346EC
:100CF00000E000BF01B5FFF7B7FF002848BF10F1C3
:100D0000000F01BD4DF808EDFFF7F4FF0CBF012007
:100D100000205DF808FB00BF4DF808EDFFF7EAFF83
:100D200034BF012000205DF808FB00BF4DF808ED3E
:100D3000FFF7E0FF94BF012000205DF808FB00BF33
:100D40004DF808EDFFF7CEFF94BF012000205DF8BD
:100D500008FB00BF4DF808EDFFF7C4FF34BF0120CA
:100D600000205DF808FB00BF4FEA410C7FEA6C5C95
:100D700002D150EA013C0AD14FEA430C7FEA6C5C95
:100D800002D152EA033C02D14FF0000070474FF00D
:100D9000010070474FEA410212F5001215D211D539
:100DA0006FF47873B3EB625212D94FEAC12343F068
:100DB000004343EA505311F0004F23FA02F018BFEA
:100DC000404270474FF00000704750EA013005D1B3
:100DD00011F0004008BF6FF0004070474FF0000076
:100DE000704700BF0348044B834202D0034B03B15A
:100DF00018477047C4060020C40600200000000009
:100E00000548064B1B1AD90F01EBA301491002D06C
:100E1000034B03B118477047C4060020C4060020E6
:100E20000000000010B5064C237843B9FFF7DAFF45
:100E3000044B13B10448AFF300800123237010BDAD
:100E4000C406002000000000DCA3000808B5054B24
:100E50001BB105490548AFF30080BDE80840FFF726
:100E6000CFBF00BF00000000C8060020DCA30008C0
:100E70002DE9F0418AB00024059406940794089463
:100E800009940194364B1A6B42F004021A631A6BF0
:100E900002F004020192019A02941A6B42F080025D
:100EA0001A631A6B02F080020292029A03941A6B80
:100EB00042F001021A631A6B02F001020392039AD4
:100EC00004941A6B42F002021A631B6B03F00203D4
:100ED0000493049BDFF88C8022464FF40051404677
:100EE00000F021FD204F22460621384600F01BFD70
:100EF0001E4E22464FF48071304600F014FD4FF430
:100F000000530593012506950794089405A94046CA
:100F100000F01AFC032305930694079505A93046B3
:100F200000F012FC05950694079505A9384600F0D7
:100F30000BFC0623059306950794089405A93846EB
:100F400000F002FC4FF48073059306950794089413
:100F500005A9304600F0F8FB0AB0BDE8F08100BFFB
:100F60000038024000080240000402400000024035
:100F700072B6FEE700B595B03022002108A803F054
:100F8000BBF90023039304930593069307930193FE
:100F9000204A116C41F080511164126C02F08052B1
:100FA0000192019A02931C4A136823F4404343F4CC
:100FB00000431360136803F440430293029B012330
:100FC00008934FF48033099302230E934FF4800269
:100FD0000F9219221092A8221192129304231393B4
:100FE00008A800F0AFFC80B90F23039302210491FD
:100FF000002305934FF480520692079303A800F054
:10100000F1FE20B915B05DF804FBFFF7B1FFFFF763
:10101000AFFF00BF003802400070004008B500F08C
:10102000D7FAFFF7A7FFFFF723FF00F017F800F04C
:101030002BFA00F0A7F900F0F5F800F06BF902F0D8
:1010400037FA4FF40051044800F073FC4FF47A7003
:1010500000F0EAFAF5E700BF0008024008B50E48C4
:101060000E4B03604FF48273436000238360C360C0
:10107000036143614FF4007282613022C2610362F6
:10108000436283620A23C36201F06CF800B908BDB1
:10109000FFF76EFFFBE700BFE006002000300140D5
:1010A00000B589B000230393049305930693079337
:1010B0000268154B9A4202D009B05DF804FB00218A
:1010C000019103F584335A6C42F480525A645A6C8D
:1010D00002F480520192019A02911A6B42F00102CD
:1010E0001A631B6B03F001030293029BE02303933B
:1010F00002230493032306930523079303A90348BC
:1011000000F022FBD8E700BF0030014000000240A1
:1011100082B0002100910B4B5A6C42F480425A6419
:101120005A6C02F480420092009A01911A6C42F0CB
:1011300080521A641B6C03F080530193019B02B030
:10114000704700BF00380240FEE7FEE7FEE7FEE71B
:10115000FEE770477047704708B500F053FA08BDC6
:1011600008B5024801F039FC08BD00BF3C0700206B
:1011700008B5024801F031FC08BD00BFCC070020D3
:101180000120704708B503F05DF9162303604FF0A6
:10119000FF3008BD08B54FF0FF31FFF7F3FFFEE762
:1011A00070B50C461646002506E0AFF300802146D8
:1011B00001F8010B01350C46B542F6DB304670BD37
:1011C0004FF0FF3070474FF400534B6000207047E2
:1011D000012070470020704710B503460C4A0D49A6
:1011E0000D48006840B10C4800680344521A93420D
:1011F00006D8094A136010BD0748084C0460F2E79E
:1012000003F020F90C2303604FF0FF30F3E700BF39
:10121000000001200004000038070020380C0020E6
:101220007047000000B591B000230C930D930E930E
:101230000F930793089309930A930B9305930693CF
:10124000019302930393049331484FF0804202606C
:101250005322426083604FF6FF72C26003618023B5
:10126000836101F0BBFC00283CD14FF480530C9308
:101270000CA9274801F0AEFD002836D1244801F022
:10128000D9FC002834D1042307935023089300236A
:1012900009930B9307A91E4801F077FE58BB002362
:1012A0000593069305A91A4801F098FE30BB002269
:1012B00001920123029303920A23049301A9144883
:1012C00001F01AFDE8B9022301930293002304936D
:1012D00004220DEB02010E4801F00EFDA0B911B081
:1012E0005DF804FBFFF744FEBFE7FFF741FEC5E7EB
:1012F000FFF73EFEC7E7FFF73BFED0E7FFF738FEFC
:10130000D5E7FFF735FEDEE7FFF732FEE7E700BF80
:10131000CC07002000B587B0002302930393049309
:101320000593009301931548154A0260436083605A
:1013300040F2E732C2600361836101F04FFC98B96B
:101340004FF48053029302A90C4801F043FD70B999
:1013500020230093002301936946084801F03EFED4
:1013600040B907B05DF804FBFFF702FEE8E7FFF7BE
:10137000FFFDEDE7FFF7FCFDF3E700BF840700206A
:101380000004004008B50A480A4B03605323436039
:101390000023836040F2E732C260036180238361EF
:1013A00001F01CFC00B908BDFFF7E2FDFBE700BF40
:1013B0003C0700200048014010B58AB00023059387
:1013C00006930793089309930368B3F1804F07D0FE
:1013D000294A93422FD0294A934239D00AB010BDEE
:1013E0000024019403F50E331A6C42F001021A64D2
:1013F0001A6C02F001020192019A02941A6B42F0F7
:1014000001021A631B6B03F001030293029B4FF46A
:1014100000430593022306930123099305A9184865
:1014200000F092F9224621461C2000F065F91C20AC
:1014300000F072F9D2E700230393124B1A6C42F0CA
:1014400002021A641B6C03F002030393039BC5E7BB
:10145000002104910B4B5A6C42F480225A645B6C5D
:1014600003F480230493049B0A461A2000F044F9F5
:101470001A2000F051F9B1E7000400400048014093
:10148000000002400038024008B50A480A4B0360D9
:101490004FF4E133436000238360C36003610C2297
:1014A00042618361C36101F0D2FE00B908BDFFF75C
:1014B0005FFDFBE7140800200010014000B589B073
:1014C000002303930493059306930793026803F1A3
:1014D000804303F588339A4202D009B05DF804FBDB
:1014E0000021019103F594335A6C42F010025A64C2
:1014F0005A6C02F010020192019A02911A6B42F0AA
:1015000001021A631B6B03F001030293029B4FF469
:10151000C0630393022304930323069307230793D3
:1015200003A9024800F010F9D7E700BF000002400D
:10153000DFF834D0FFF774FE0C480D490D4A002344
:1015400002E0D458C4500433C4188C42F9D30A4A78
:101550000A4C002301E013600432A242FBD302F0E4
:1015600077FFFFF75BFD70470000012000000020BF
:10157000C406002068A80008C4060020380C00201B
:10158000FEE7000010B504460E4B1A784FF47A734C
:10159000B3FBF2F30C4A1068B0FBF3F000F0C0F8B4
:1015A00068B90F2C01D901200AE0002221464FF032
:1015B000FF3000F0A1F8054B1C60002000E0012086
:1015C00010BD00BF04000020000000200800002023
:1015D00008B50B4B1A6842F400721A601A6842F49C
:1015E00080621A601A6842F480721A60032000F068
:1015F00071F80F20FFF7C6FFFFF78AFD002008BD36
:10160000003C0240034A1168034B1B780B441360F3
:10161000704700BF5C08002004000020014B1868E0
:10162000704700BF5C08002038B50446FFF7F6FF9E
:101630000546B4F1FF3F02D0044B1B781C44FFF772
:10164000EDFF401BA042FAD338BD00BF04000020CC
:10165000002807DB00F01F02400901239340024AE3
:1016600042F82030704700BF00E100E0002808DBAE
:101670000901C9B200F1604000F5614080F8001333
:10168000704700F00F000901C9B2014B19547047AF
:1016900014ED00E000B500F00700C0F1070CBCF14C
:1016A000040F28BF4FF0040C031D062B0FD9C31ED7
:1016B0004FF0FF3E0EFA0CF021EA000199400EFABD
:1016C00003FE22EA0E0241EA02005DF804FB002359
:1016D000EEE70000074AD36823F4E0631B041B0C09
:1016E000000200F4E060034343F0BF6343F40033BF
:1016F000D360704700ED00E010B50446054BD86894
:10170000C0F30220FFF7C6FF01462046FFF7AEFFF9
:1017100010BD00BF00ED00E008B5FFF799FF08BD60
:101720000138B0F1807F0BD24FF0E0235861054AB9
:10173000F02182F823100020986107221A61704777
:101740000120704700ED00E000230F2B00F2DA804B
:1017500030B583B068E085684FEA430E032404FA8D
:101760000EF425EA0405CC6804FA0EF42C438460D8
:10177000446824EA02044A68C2F300129A402243F1
:1017800042605FE0DC08083450F8242003F00705CD
:10179000AD004FF00F0E0EFA05FE22EA0E0E0A699A
:1017A000AA4042EA0E0240F824205FE0042200E052
:1017B000002202FA0EF22A430234534D45F8242047
:1017C000524A94686FEA0C0224EA0C05D1F804E04E
:1017D0001EF4801F01D04CEA04054C4CA560E4685F
:1017E00002EA0405D1F804E01EF4001F01D04CEA1F
:1017F0000405464CE560646802EA0405D1F804E09B
:101800001EF4003F01D04CEA0405404C656024689A
:1018100022404D6815F4803F01D04CEA04023B4C55
:10182000226001330F2B6BD801229A400C6804EA26
:10183000020C32EA0404F4D14C6804F00304013CC5
:10184000012C88D94A6802F00302032A09D0C4682F
:101850005D000322AA4024EA02048A68AA402243C7
:10186000C2604A6802F00302022A8BD004684FEA81
:10187000430E032202FA0EF224EA02044A6802F03E
:10188000030202FA0EF2224302604A6812F4403F59
:10189000C7D0002201921E4A546C44F48044546420
:1018A000526C02F480420192019A9C08A51C164ACF
:1018B00052F8255003F0030E4FEA8E0E0F2202FA63
:1018C0000EF225EA0205134A90423FF471AF02F589
:1018D000806290420ED002F5806290420CD002F5F8
:1018E000806290420AD002F5806290423FF45EAF7F
:1018F00007225EE701225CE702225AE7032258E74B
:1019000003B030BD704700BF00380140003C0140CB
:1019100000380240000002400369194201D0012052
:101920007047002070470AB18161704709048161E6
:101930007047436901EA030221EA030141EA0241D7
:1019400081617047002800F0E08170B582B00446E4
:10195000036813F0010F3BD09F4B9B6803F00C030F
:10196000042B2CD09C4B9B6803F00C03082B21D03C
:101970006368B3F5803F4FD0B3F5A02F52D0964B9C
:101980001A6822F480321A601A6822F480221A60DF
:101990006368002B50D0FFF741FE05468E4B1B6855
:1019A00013F4003F14D1FFF739FE401B6428F5D92A
:1019B0000320B1E1884B5B6813F4800FD8D0864BCD
:1019C0001B6813F4003F03D06368002B00F09F8175
:1019D000236813F0020F54D07F4B9B6813F00C0F59
:1019E0003ED07D4B9B6803F00C03082B33D0E3689B
:1019F000002B68D0794B01221A60FFF70FFE0546D5
:101A0000754B1B6813F0020F54D1FFF707FE401B04
:101A10000228F5D903207FE16F4A136843F480332D
:101A20001360B5E76C4B1A6842F480221A601A689A
:101A300042F480321A60ABE7FFF7F0FD0546664BD3
:101A40001B6813F4003FC3D0FFF7E8FD401B642878
:101A5000F5D9032060E1604B5B6813F4800FC6D1B9
:101A60005D4B1B6813F0020F03D0E368012B40F0BD
:101A70005081594A136823F0F803216943EAC103EE
:101A80001360236813F0080F42D063696BB3534BA4
:101A90000122C3F8802EFFF7C1FD05464E4B5B6F58
:101AA00013F0020F34D1FFF7B9FD401B0228F5D91E
:101AB000032031E1484A136823F0F803216943EA1F
:101AC000C1031360DDE7454B00221A60FFF7A6FD56
:101AD0000546414B1B6813F0020FD2D0FFF79EFD65
:101AE000401B0228F5D9032016E13C4B0022C3F825
:101AF000802EFFF793FD0546374B5B6F13F0020F07
:101B000006D0FFF78BFD401B0228F5D9032003E127
:101B1000236813F0040F77D02F4B1B6C13F0805FFA
:101B200033D1002301932C4B1A6C42F080521A647B
:101B30001B6C03F080530193019B0125284B1B680C
:101B400013F4807F23D0A368012B34D0052B38D029
:101B5000214B1A6F22F001021A671A6F22F0040259
:101B60001A67A368002B3DD0FFF758FD06461A4BB5
:101B70001B6F13F0020F46D1FFF750FD801B41F29F
:101B800088339842F3D90320C6E00025D6E7144AEB
:101B9000136843F480731360FFF740FD0646104B53
:101BA0001B6813F4807FCED1FFF738FD801B02281D
:101BB000F5D90320B0E0084A136F43F0010313671F
:101BC000CFE7054B1A6F42F004021A671A6F42F012
:101BD00001021A67C5E700BF003802400000474213
:101BE00000700040FFF71AFD0646524B1B6F13F0C2
:101BF000020F08D0FFF712FD801B41F28833984294
:101C0000F3D9032088E0EDB9A369002B00F08380AD
:101C1000484A926802F00C02082A51D0022B17D0D1
:101C2000454B00221A66FFF7F9FC0446414B1B683E
:101C300013F0007F42D0FFF7F1FC001B0228F5D91A
:101C4000032069E03B4A136C23F080531364DBE705
:101C5000394B00221A66FFF7E1FC0546354B1B683D
:101C600013F0007F06D0FFF7D9FC401B0228F5D9FE
:101C7000032051E0E369226A1343626A43EA821354
:101C8000A26A5208013A43EA0243E26A43EA026363
:101C9000284A5360284B01221A66FFF7BFFC04460E
:101CA000244B1B6813F0007F06D1FFF7B7FC001B25
:101CB0000228F5D903202FE000202DE000202BE0A2
:101CC000012B2BD01B4B5B6803F48001E26991422E
:101CD00026D103F03F02216A8A4223D1616A47F686
:101CE000C0721A40B2EB811F1ED103F44031A26AC8
:101CF0005208013AB1EB024F18D103F07063E26A67
:101D0000B3EB026F14D1002006E0012070470120E0
:101D100002E0012000E0002002B070BD0120FBE7DE
:101D20000120F9E70120F7E70120F5E70120F3E7BB
:101D30000120F1E7003802400000474208B5264B79
:101D40009B6803F00C03042B41D0082B41D1224B9C
:101D50005A6802F03F025B6813F4800F12D01E4BEA
:101D60005968C1F388111D480023A1FB0001FEF74B
:101D7000F5FD194B5B68C3F3014301335B00B0FB16
:101D8000F3F027E0144B5868C0F388104FEA401C6A
:101D9000BCEB000C6EEB0E0E4FEA8E1343EA9C6315
:101DA0004FEA8C11B1EB0C0163EB0E03DB0043EA4D
:101DB0005173C90011EB000C43F100039902002399
:101DC0004FEA8C2041EA9C51FEF7C8FDD1E7034859
:101DD00000E0034808BD00BF0038024040787D01A4
:101DE0000024F400002800F09B8070B50D460446E6
:101DF0004F4B1B6803F007038B4208D2CBB24C4A0F
:101E00001370136803F007038B4240F08B80236844
:101E100013F0020F17D013F0040F04D0454A936853
:101E200043F4E0539360236813F0080F04D0414A51
:101E3000936843F4604393603E4A936823F0F00351
:101E4000A1680B439360236813F0010F32D06368DD
:101E5000012B21D09A1E012A25D9364A126812F088
:101E6000020F61D033498A6822F0030213438B606A
:101E7000FFF7D4FB06462F4B9B6803F00C03626808
:101E8000B3EB820F16D0FFF7C9FB801B41F28833FA
:101E90009842F0D9032042E0264A126812F4003F2B
:101EA000E0D101203BE0234A126812F0007FD9D133
:101EB000012034E01E4B1B6803F00703AB4207D937
:101EC000EAB21B4B1A701B6803F00703AB422DD11B
:101ED000236813F0040F06D0164A936823F4E053E6
:101EE000E1680B439360236813F0080F07D0114A91
:101EF000936823F46043216943EAC1039360FFF7C9
:101F00001DFF0C4B9B68C3F303130B4AD35CD840F3
:101F10000A4B18600A4B1868FFF734FB002070BDAD
:101F2000012070470120FAE70120F8E70120F6E7D9
:101F3000003C02400038024000A4000800000020DD
:101F400008000020014B1868704700BF0000002007
:101F500008B5FFF7F7FF044B9B68C3F38223034ADE
:101F6000D35CD84008BD00BF00380240F8A3000889
:101F700008B5FFF7E7FF044B9B68C3F34233034AFE
:101F8000D35CD84008BD00BF00380240F8A3000869
:101F90002DE9F04782B00546884617461E46FFF7F2
:101FA0003DFB0A9B1B1A03EB0609FFF737FB824632
:101FB000284B1B68C3F3CB3309FB03F301932B6856
:101FC0009C6838EA04040CBF01230023BB423DD0C7
:101FD000B6F1FF3FF3D0FFF721FBA0EB0A00484525
:101FE00003D2019B73BB9946E9E72A68536823F043
:101FF000E00353606B68B3F5827F0BD0AB6AB3F537
:10200000005F14D0012385F85130002385F850304B
:1020100003201CE0AB68B3F5004F02D0B3F5806F2E
:10202000ECD12A68136823F040031360E6E72A68BE
:10203000136823F4005313602A68136843F40053B1
:102040001360DFE7019B013B0193B8E7002002B07A
:10205000BDE8F0870000002070B584B004460D464E
:10206000164600920B4601220221FFF791FFD0B9DC
:10207000174B1B68174AA2FB03235B0D4FF47A72C0
:1020800002FB03F303936368B3F5827F11D0039BD4
:102090003BB1039B013B039323689B6813F0800FC4
:1020A000F5D104B070BD636D43F020036365032078
:1020B000F7E700962B46002280212046FFF768FFB5
:1020C0000028EED0636D43F0200363650320E8E74A
:1020D00000000020819F5E1610B582B004460B46BA
:1020E0004168B1F5827F14D06168B1F5827F2AD151
:1020F000A168B1F5806F19D000920022802120469E
:10210000FFF746FF30B3636D43F0200363650320A0
:1021100020E08168B1F5004F02D0B1F5806FE3D1C6
:102120002068016821F040010160DDE70092002293
:1021300001212046FFF72CFF60B1636D43F02003BF
:102140006365032006E00092002201212046FFF78C
:102150001FFF08B902B010BD636D43F02003636533
:102160000320F7E700285AD010B50446436A33B974
:102170004368B3F5827F05D00023C36102E00023EA
:10218000036143610023A36294F85130002B40D0D7
:10219000022384F851302268136823F0400313604F
:1021A000636803F48273A26802F404421343E26892
:1021B00002F400621343226902F0020213436269CF
:1021C00002F001021343A26902F400721343E269B0
:1021D00002F038021343226A02F080021343A26A1B
:1021E00002F40052216813430B60638B03F0040375
:1021F000626A02F01002216813434B602268D369BF
:1022000023F40063D36100206065012384F851301A
:1022100010BD84F850302046FEF742FFB8E7012099
:1022200070472DE9F04383B00446894690461D4629
:10223000FFF7F4F994F85160F6B2012E40F0CC802B
:102240000746B9F1000F00F0C880B8F1000F00F0A8
:10225000C48094F85030012B00F0C380012384F82F
:102260005030032384F8513000236365C4F8309064
:10227000A4F83480A4F83680A363A387E38763645B
:102280002364A368B3F5004F1ED023681A6812F0C8
:10229000400F03D11A6842F040021A60E368B3F5B8
:1022A000006F1CD0636813B1B8F1010F5FD1226BCE
:1022B000236812781A73236B01332363E38E9BB276
:1022C000013B9BB2E38652E02268136823F040038F
:1022D00013602268136843F480431360D5E7636892
:1022E00013B1B8F1010F15D1226B23681288DA609F
:1022F000236B02332363E38E9BB2013B9BB2E386E5
:1023000008E0FFF78BF9C01BA84202D3B5F1FF3FED
:1023100015D1A5B1E38E9BB2002B42D023689A68F9
:1023200012F0020FEDD0226B1288DA60236B0233B9
:102330002363E38E9BB2013B9BB2E386EAE7012372
:1023400084F85130002384F85030032645E0226B96
:1023500012781A73236B01332363B4F836C01FFA63
:102360008CFC0CF1FF3C1FFA8CFCA4F836C0E38E09
:102370009BB2B3B123689A6812F0020FE7D1FFF75E
:102380004DF9C01BA84202D3B5F1FF3F01D1002D8A
:10239000EDD1012384F85130002384F85030032616
:1023A0001BE03A4629462046FFF756FE08B1202397
:1023B0006365A36833B901932368DA6801929B6867
:1023C0000193019B012384F85130002384F850309D
:1023D000636D13B9002600E00226304603B0BDE865
:1023E000F0830226F9E72DE9F04383B004468846DE
:1023F00091461F460A9DFFF711F9064694F85130A1
:10240000DBB26268012B0AD0B2F5827F40F0058111
:10241000A268002A40F00581042B40F00481B8F145
:10242000000F00F00281B9F1000F00F00081002FD1
:1024300000F0FF8094F85030012B00F0FC80012365
:1024400084F8503094F85130DBB2042B02D00523CD
:1024500084F8513000236365C4F83890E787A78774
:10246000C4F83080E786A7862364636423681A680B
:1024700012F0400F03D11A6842F040021A60E3687C
:10248000B3F5006F11D063680BB1012F0BD1226B34
:10249000236812781A73236B01332363E38E9BB294
:1024A000013B9BB2E386012771E063680BB1012F0A
:1024B0000BD1226B23681288DA60236B023323630B
:1024C000E38E9BB2013B9BB2E38601271BE02368AE
:1024D0009A6812F0010F0ED0E28F92B25AB1DA6808
:1024E000A36B1A80A36B0233A363E38F9BB2013B00
:1024F0009BB2E3870127FFF791F8801BA84202D324
:10250000B5F1FF3F1ED1E38E9BB21BB9E38F9BB2A7
:10251000002B62D023689A6812F0020FD7D0E28EA7
:1025200092B2002AD3D0002FD1D0226B1288DA6069
:10253000236B02332363E38E9BB2013B9BB2E386A2
:102540000027C4E7012384F85130002384F8503079
:10255000032063E023689A6812F0010F0ED0E28F27
:1025600092B25AB1DA68A36B1A70A36B0133A363FA
:10257000E38F9BB2013B9BB2E3870127FFF74EF845
:10258000831BAB4202D3B5F1FF3F1ED1EDB1E38E09
:102590009BB213B9E38F9BB2FBB123689A6812F028
:1025A000020FD7D0E28E92B2002AD3D0002FD1D022
:1025B000226B12781A73236B01332363E38E9BB271
:1025C000013B9BB2E3860027C4E7012384F8513026
:1025D000002384F85030032020E03246294620466C
:1025E000FFF73AFD90B9A36833B901932368DA681D
:1025F00001929B680193019B012384F851300023D1
:1026000084F85030636D4BB1012007E020236365EF
:10261000002384F85030012000E0022003B0BDE820
:10262000F0830220FAE70220F8E70120F6E7012014
:10263000F4E70120F2E70220F0E72DE9F04383B050
:1026400090F85160F6B2012E40F0B28004468946FF
:1026500090461D46002900F0AC80002A00F0A980B9
:102660004368B3F5827F01D1836853B3FEF7D6FF89
:10267000074694F85030012B00F09F80012384F826
:102680005030042384F8513000236365C4F8389037
:10269000A4F83C80A4F83E802363A386E3862364E9
:1026A0006364A368B3F5004F15D023681A6812F06D
:1026B000400F03D11A6842F040021A60E368F3B198
:1026C00043E0042380F85130009513460A46FFF793
:1026D0008AFE06466DE02268136823F0400313600B
:1026E0002268136823F480431360DEE7FEF796FF49
:1026F000C01BA84202D3B5F1FF3F15D1A5B1E38FAE
:102700009BB2002B42D023689A6812F0010FEDD0E3
:10271000A26B1B7B1370A36B0133A363E38F9BB28C
:10272000013B9BB2E387EAE7012384F851300023A1
:1027300084F8503003263CE0FEF770FFC01BA8422F
:1027400002D3B5F1FF3F19D1C5B1E38F9BB2EBB115
:1027500023689A6812F0010FEED0DA68A36B1A8032
:10276000A36B0233A363B4F83EC01FFA8CFC0CF1D8
:10277000FF3C1FFA8CFCA4F83EC0E6E7012384F876
:102780005130002384F85030032612E03A4629469F
:102790002046FFF7A1FC08B120236365012384F8DC
:1027A0005130002384F85030636D13B9002600E0E7
:1027B0000226304603B0BDE8F0830226F9E710B4E4
:1027C000036A046A24F001040462846924F0F00CB2
:1027D0004CEA021223F00A030B438261036210BC2D
:1027E000704730B4056A046A24F0100404628469F6
:1027F00024F4407C4CEA022C2CF4704C1B039BB25A
:1028000043EA0C0325F0A005090101F0A0012943CA
:102810008361016230BC704710B4036A046A24F01B
:1028200010040462846924F4704C4CEA023223F0F0
:10283000A00343EA01138261036210BC704730B405
:10284000056A046A24F480740462C46924F0030CE9
:102850004CEA020C2CF0F00C1B01DBB243EA0C0337
:1028600025F42065090201F420612943C361016256
:1028700030BC704730B4056A046A24F480540462A2
:10288000C46924F4407C4CEA022C2CF4704C1B03E9
:102890009BB243EA0C0325F42045090301F42041CF
:1028A0002943C361016230BC7047836823F0700321
:1028B0000B4343F0070383607047000090F83D30FE
:1028C000DBB2012B2AD1022380F83D300368154A80
:1028D000934218D0B3F1804F15D0A2F57C429342B9
:1028E00011D002F5806293420DD002F580629342CE
:1028F00009D002F59A32934205D01A6842F00102DB
:102900001A60002070479A6802F00702062A07D072
:102910001A6842F001021A600020704701207047D7
:10292000002070470000014090F83D30DBB2012BE1
:102930002FD1022380F83D300268D36843F00103B1
:10294000D3600368154A934218D0B3F1804F15D075
:10295000A2F57C42934211D002F5806293420DD0E1
:1029600002F58062934209D002F59A32934205D073
:102970001A6842F001021A60002070479A6802F05B
:102980000702062A07D01A6842F001021A600020E6
:102990007047012070470020704700BF00000140D1
:1029A00070470C2914D8DFE801F0071313130A133A
:1029B00013130D13131310000368586B704703684B
:1029C000986B70470368D86B70470368186C704742
:1029D0000020704770477047704770B50446036821
:1029E000DE681D6915F0020F10D016F0020F0DD031
:1029F0006FF002021A610123037703689B6913F0E9
:102A0000030F5ED000F0B6FD0023237715F0040F0E
:102A100012D016F0040F0FD023686FF004021A6171
:102A20000223237723689B6913F4407F4FD020460D
:102A300000F0A0FD0023237715F0080F12D016F048
:102A4000080F0FD023686FF008021A610423237760
:102A50002368DB6913F0030F40D0204600F08AFDA5
:102A60000023237715F0100F12D016F0100F0FD09F
:102A700023686FF010021A61082323772368DB694B
:102A800013F4407F31D0204600F074FD00232377FB
:102A900015F0010F02D016F0010F2DD115F0800FA7
:102AA00002D016F0800F2FD115F0400F02D016F093
:102AB000400F31D115F0200F02D016F0200F33D186
:102AC00070BDFFF787FF2046FFF785FF9CE7204694
:102AD000FFF780FF2046FFF77EFFABE72046FFF7BA
:102AE00079FF2046FFF777FFBAE72046FFF772FF2E
:102AF0002046FFF770FFC9E723686FF001021A61F3
:102B0000204600F013FDC9E723686FF080021A61C8
:102B1000204600F0A2FAC7E723686FF040021A616E
:102B20002046FFF759FFC5E723686FF020021A61BE
:102B3000204600F091FAC3E70368274A90420ED07E
:102B4000B0F1804F0BD0A2F57C42904207D002F545
:102B50008062904203D002F58062904203D123F05C
:102B600070034A6813431C4A90421AD0B0F1804F58
:102B700017D0A2F57C42904213D002F580629042B9
:102B80000FD002F5806290420BD002F59A3290424B
:102B900007D002F58062904203D002F58062904235
:102BA00003D123F44073CA68134323F080034A69B6
:102BB00013438A68C2620A688262074A904207D059
:102BC000026842F004020260012242610360704721
:102BD0000A690263F4E700BF0000014040B310B58A
:102BE000044690F83D30F3B1022384F83D3021468D
:102BF00051F8040BFFF7A0FF012384F8463084F856
:102C00003E3084F83F3084F8403084F8413084F816
:102C1000423084F8433084F8443084F8453084F8F6
:102C20003D30002010BD80F83C30FEF7C5FBDBE7EF
:102C30000120704740B310B5044690F83D30F3B121
:102C4000022384F83D30214651F8040BFFF774FF4E
:102C5000012384F8463084F83E3084F83F3084F80D
:102C6000403084F8413084F8423084F8433084F8AE
:102C7000443084F8453084F83D30002010BD80F8A1
:102C80003C30FFF78DFEDBE70120704770B49446BF
:102C9000066A046A24F0010404628469144DA8429F
:102CA00014D0B0F1804F11D0124A90420ED002F5EC
:102CB000806290420AD002F58062904206D002F50E
:102CC0009A32904202D044F0010203E024F0030261
:102CD00042EA0C0222F0F0021B01DBB2134326F0A1
:102CE0000A0201F00A0111438361016270BC70475E
:102CF000000001400004004038B590F83C30012B42
:102D00005AD004460D46012380F83C3052B1042AC3
:102D10001AD0082A2BD00C2A3BD00120002384F89B
:102D20003C3038BDCB684A6809680068FFF7AEFFE1
:102D30002268936923F00C03936122689369A96860
:102D40000B4393610020E9E7CB684A680968006893
:102D5000FFF747FD2268936923F44063936122687B
:102D60009369A96843EA012393610020D6E7CB6801
:102D70004A6809680068FFF762FD2268D36923F09A
:102D80000C03D3612268D369A9680B43D361002087
:102D9000C4E7CB684A6809680068FFF76BFD2268E2
:102DA000D36923F44063D3612268D369A96843EAF5
:102DB0000123D3610020B1E70220B2E710B4846898
:102DC00024F47F4C42EA03220A4342EA0C02826066
:102DD00010BC704790F83C30012B78D010B50446F9
:102DE000012380F83C30022380F83D30026893686C
:102DF00023F47F4323F0770393600B68602B4CD060
:102E000029D8402B54D00CD9502B22D1CA684968FC
:102E10000068FFF7D4FC50212068FFF746FD002032
:102E200005E0202B0DD009D9302B0AD00120012339
:102E300084F83D30002384F83C3010BD0BB1102BDA
:102E400005D119462068FFF730FD0020EFE701208B
:102E5000EDE70120EBE7B3F5805F34D0B3F5005F19
:102E60000CD1CB684A6889680068FFF7A7FF226821
:102E7000936843F4804393600020D8E7702B24D1FB
:102E8000CB684A6889680068FFF798FF22689368F2
:102E900043F0770393600020C9E7CA684968006877
:102EA000FFF7BAFC60212068FFF7FFFC0020BEE7B7
:102EB000CA6849680068FFF782FC40212068FFF774
:102EC000F4FC0020B3E70020B1E70120AFE70220C7
:102ED000704710B50468A26822F070024B68134373
:102EE00023F007030A681A43A2604B68502B32D0C4
:102EF0000BD9602B36D0702B43D10B698A68C96817
:102F00000068FFF75BFF00200FE0402B0ED001D9D7
:102F100001200AE0202B2CD003D9302B2FD1002008
:102F200003E043B3102B28D1002010BD0B68052B04
:102F300029D003681C6A1A6A22F001021A62026828
:102F4000936923F0F003096943EA0113936103686D
:102F50001C620020E9E70A6989680068FFF72FFC16
:102F60000020E2E70A6989680068FFF755FC002045
:102F7000DBE70020D9E70020D7E70120D5E70120D3
:102F8000D3E70120D1E70120CFE790F83C30012BB7
:102F900022D010B50446012380F83C30022380F88B
:102FA0003D30FFF796FF80B92268D36823F04003D5
:102FB000D3602268D36823F48043D360012384F86C
:102FC0003D30002384F83C3010BD012084F83D00E2
:102FD000002384F83C30F7E70220704790F83C204B
:102FE000012A34D010B40346012280F83C2002228A
:102FF00080F83D2002685068946820F0700C0868E2
:1030000040EA0C0050601A681248824212D0B2F1B5
:10301000804F0FD0A0F57C4082420BD000F580603D
:10302000824207D000F58060824203D000F59A30DA
:10303000824204D124F08004496821439160012236
:1030400083F83D20002083F83C0010BC704702202C
:10305000704700BF0000014070477047026802F1EE
:103060000C0353E8003F23F490730C3242E8003124
:103070000029F3D1026802F1140353E8003F23F062
:103080000103143242E800310029F3D1036B012B14
:1030900005D0202380F84230002303637047026884
:1030A00002F10C0353E8003F23F010030C3242E816
:1030B00000310029F3D1ECE710B50446026813692A
:1030C00023F44053C1680B431361836802691A43B8
:1030D00043691A43C3691A430168CB6823F4164352
:1030E00023F00C031343CB600268536923F440734D
:1030F00081690B4353610368314A934206D002F55C
:103100008062934202D0FEF723FF01E0FEF730FF1A
:10311000E369B3F5004F29D00021031849411B187A
:1031200041F10001C90041EA5371DB0018186368DE
:103130004FEA83024FEA937341F10001FDF70EFC61
:10314000204AA2FB00314909642303FB11031B0140
:103150003233A2FB03235B0903F0F00202EB0112FE
:1031600003F00F03216813448B6010BD0023021885
:1031700043EB0301121841F10001C90041EA527109
:10318000D200101841F10001626892185B41FDF70E
:10319000E5FB0C4AA2FB00314909642303FB110340
:1031A000DB003233A2FB03235B095A0002F4F872FE
:1031B00002EB011203F00703216813448B60D4E78C
:1031C000001001401F85EB512DE9F04383B0054607
:1031D0000E4617469946DDF828802B681C6836EAAB
:1031E00004040CBF01240024BC4228D1B8F1FF3FE5
:1031F000F3D0FEF713FAA0EB0900404523D8B8F14D
:10320000000F22D02B68DA6812F0040FE5D0802E70
:10321000E3D0402EE1D01A6812F0080FDDD0002470
:1032200001941A6801925B680193019B2846FFF79D
:1032300015FF08236B6485F84040012000E0002062
:1032400003B0BDE8F0830320FAE70320F8E760B39A
:1032500010B5044690F8413013B3242384F841306C
:103260002268D36823F40053D3602046FFF724FF7D
:103270002268136923F4904313612268536923F091
:103280002A0353612268D36843F40053D3600020BB
:103290006064202384F8413084F84230606310BDBC
:1032A00080F84030FEF70AF9D7E7012070472DE992
:1032B000F04182B01E4690F84130DBB2202B56D14F
:1032C00004460D469046002955D00AB901204FE02A
:1032D00000234364212380F84130FEF79FF907461D
:1032E000A4F82480A4F82680A368B3F5805F02D0F8
:1032F0004FF0000814E023692BB34FF000080FE0F3
:10330000202384F84130032032E038F8023B226861
:10331000C3F308035360E28C92B2013A92B2E284A2
:10332000E38C9BB293B100963B460022802120465D
:10333000FFF74AFF0028E3D1002DE6D015F8012B56
:1033400023685A60E7E7A8460025E9E700963B4670
:10335000002240212046FFF737FF18B9202384F8C8
:10336000413005E0202384F84130032000E00220B2
:1033700002B0BDE8F0810120FAE7000000B583B09B
:10338000124B1B68ADF804301B0C8DF80630104B47
:103390001B78834206D00F4B1B7883420DD003B0BD
:1033A0005DF804FB0429FAD10B4B01221A704FF48B
:1033B00000510A48FEF7BDFAF1E70429EFD14FF4B6
:1033C00000510648FEF7B5FAE9E700BF10A400086F
:1033D000CA080020C9080020C808002000080240D0
:1033E00010B586B000238DF8093008228DF80A2028
:1033F00001228DF808208DF80B308DF80D308DF8F6
:103400000C3082238DF80E300022264BCDE90423A8
:1034100006AB13E90F0000F0C7FBC8B900F032FBA0
:1034200000F0D4FA0028FBD100F042FC00F0CEFA04
:103430000028FBD100F014FB00F024FB00F0C6FADA
:103440000028FBD100F0CAFA0F20FEF7EDF811E0DA
:1034500006AB13E90F0000F0A7FB0146124800F08D
:10346000E7FE4FF47A70FEF7DFF8D7E721460F4802
:1034700000F0DEFE00F0AAFA0028FBD100F014FBF9
:103480000446012300930022064B00F02FFC024665
:103490000B4614F4000FE9D0E44324F07F44644267
:1034A000E4E700BF0000044014A4000840A40008A2
:1034B00010B500F0D9F9002202211348FEF733FAC3
:1034C0006423072211491248FFF7F1FE114C012233
:1034D0001146204600F0F6F90F4B18700122022128
:1034E000204600F0EFF90D4B18700D4800F01EFA61
:1034F0000C48FFF719FA0C48FFF7E0F94FF47A701F
:10350000FEF792F8FFF76CFF0004024058A4000891
:103510001408002000000240CA080020C90800204A
:103520007D3300083C0700208407002008B50D4BC0
:10353000834200D008BD00F01BFA0B4B1A68013221
:103540001A600A4BA3FB02135B094FF4FA7101FBEB
:103550001323002BEED14FF400510548FEF7E9F993
:10356000E8E700BF3C07002068080020D34D621048
:10357000000802400368B3F1804F00D0704710B5D7
:10358000037F012B02D0022B29D010BD0021FFF7B1
:1035900008FA431C9BB2174A1380174C217817482E
:1035A000A0FB012000F0F002A2EB1012A1EB4202FE
:1035B000D2B2134800881B1A124820F81230013189
:1035C00021700022104B1A80104B1978481C18707B
:1035D0000F4B1C680F4840F821401A60D5E70421C2
:1035E000FFF7DFF90130064B1880074B01221A80E4
:1035F000CBE700BF640800208808002089888888FD
:10360000620800208C080020CC0800206008002000
:103610006C0800207008002070B50E461546002486
:1036200007E04FF0FF33012231190448FFF73FFE56
:103630000134AC42F5DB284670BD00BF1408002001
:1036400008B5724B1B78834240F2D78000EB4002F2
:103650006F4B03EBC20300225A741B7C052B00F254
:10366000CD80DFE803F0031B426979B800EB40022C
:10367000674B03EBC2035B7D002B00F0B380644B10
:1036800003EBC2031B7D002B40F0AC80604B03EBCF
:10369000C20301221A7400225A82A3E000EB400206
:1036A0005B4B03EBC2035B7DBBB11346584A02EB95
:1036B000C302538A01339BB2538252899342C0F0B2
:1036C000918000EB4002524B03EBC20302221A74BA
:1036D00000225A8201225A7484E000EB40024C4BD3
:1036E00003EBC20300221A747CE000EB4002484B5B
:1036F00003EBC2035B7D9BB11346454A02EBC30259
:10370000538A01339BB25382928993426AD300EB6E
:1037100040023F4B03EBC20303221A745A7461E068
:1037200000EB40023A4B03EBC20304221A7400225E
:103730005A8202225A7455E000EB4002344B03EBEC
:10374000C2035B7D002B4DD1314B03EBC203002242
:103750001A7402225A7445E000EB40032C4A02EB33
:10376000C302538A01339BB25382527D12B300EBE2
:103770004001274A02EBC102127DDAB9244A02EB6A
:10378000C102937D0133DBB29375012B09D000EBAD
:1037900040021F4B03EBC20301221A7400225A821B
:1037A00020E01B4B03EBC10300221A74052159745E
:1037B0009A7517E000EB4001154A02EBC102D2896D
:1037C00093420FD3124B03EBC10300221A7404215E
:1037D00059749A7506E000EB40020D4B03EBC203EF
:1037E00000221A7400EB4002094B03EBC203597C20
:1037F00019B1084B1B6803B1984708BD00EB4002A4
:10380000034B03EBC20300221A74EBE7D808002035
:10381000DC080020D0080020114B1B7883421BD904
:1038200070B5044600EB40030E4A52F83300A8B1CD
:103830001546660002EBC3039988FEF76DF8024651
:10384000003818BF0120264405EBC6052B7A13B1BA
:10385000B2FA82F0400970BD002070470020FAE7FC
:10386000D8080020DC08002010B4002116E0114C1C
:1038700001EB4103D800231800221A745A745A82AB
:103880001A755A759A7522505A6001221A720422CA
:103890005A81C8229A813C22DA8101310229E6DD6F
:1038A0000023054A1370054A1360054A136010BCD3
:1038B000704700BFDC080020D8080020D408002092
:1038C000D00800202DE9F041164B1C78022C24D89A
:1038D00028B3631C134D2B70134E04EB440306EB0B
:1038E000C30546F8330069602A7204236B81C8233C
:1038F000AB813C23EB814FF0000885F8108085F800
:103900001180A5F812802046FFF786FF287568759C
:1039100085F816802046BDE8F081FF24FAE7FF24F1
:10392000F8E700BFD8080020DC080020014B186031
:10393000704700BFD0080020F8B500240FE02046F3
:10394000FFF76AFF084D04EB440605EBC6067075E9
:103950002046FFF775FE737D33750134E4B2034BE7
:103960001B78A342EBD8F8BDDC080020D808002063
:1039700008B5034A136801331360FFF7DDFF08BD84
:10398000D408002000B583B08DF80700642301221D
:103990000DF107010248FEF744FC03B05DF804FB9B
:1039A000E006002000B583B000238DF807306423C3
:1039B00001220DF107010448FEF73FFE9DF80700C4
:1039C00003B05DF804FB00BFE006002008B501214C
:1039D0000148FDF7A1FF08BD0004024010B5012118
:1039E0000948FDF799FF0028F9D1074C0022022170
:1039F0002046FDF798FF0320FFF7C4FF01220221B4
:103A00002046FDF790FF10BD0004024010B50121D3
:103A10000948FDF781FF0028F9D1074C0022022157
:103A20002046FDF780FF0F20FFF7ACFF01220221A7
:103A30002046FDF778FF10BD0004024010B5074C8A
:103A4000002202212046FDF76EFFF020FFF79AFFCB
:103A5000012202212046FDF766FF10BD000402404E
:103A600010B5074C002202212046FDF75CFFFC2028
:103A7000FFF788FF012202212046FDF754FF10BD09
:103A80000004024010B5074C002202212046FDF739
:103A90004AFFFF20FFF776FF012202212046FDF7B3
:103AA00042FF10BD00040240F8B50D4F0022022174
:103AB0003846FDF738FFFFF775FF0646FFF772FF40
:103AC0000446FFF76FFF0546012202213846FDF745
:103AD0002AFF240244EA064444EA0500F8BD00BF78
:103AE00000040240F0B583B00D46144600F00F000C
:103AF00040F050008DF80400531E8DF805300E4E36
:103B0000002202213046FDF70EFF0C4F4FF0FF332D
:103B1000022201A93846FEF784FB4FF0FF3322460C
:103B200029463846FEF77DFB012202213046FDF78B
:103B3000FAFE03B0F0BD00BF00040240E006002022
:103B400030B583B00D46144600F00F0040F0100071
:103B50008DF80400531E8DF8053000220221104814
:103B6000FDF7E1FE4FF0FF33022201A90D48FEF7F9
:103B700058FB0023009302E0009B01330093009B5D
:103B8000312BF9DD4FF0FF33224629460548FEF779
:103B900054FD012202210248FDF7C5FE03B030BDED
:103BA00000040240E006002030B589B06C4684E88D
:103BB0000F00002306938DF81C3004938DF8143009
:103BC0009DF8003013B102238DF810309DF80130BC
:103BD0001B01DBB28DF811309DF8022013438DF8E4
:103BE00011309DF803305B01DBB28DF812309DF887
:103BF000042043EAC203DBB28DF812309DF80520A1
:103C000013438DF812309DF806308DF813300522DD
:103C100004A90020FFF766FF052206A90020FFF790
:103C20008FFF00240EE004F120030DEB030515F8CF
:103C3000101C1D4800F0FCFA15F8081C1B4800F089
:103C4000F7FA0134042CEEDD0A2000F005FB9DF8A4
:103C500018009DF81030584010F006001AD19DF859
:103C600019209DF811309A4217D19DF81A209DF81D
:103C700012309A4213D19DF81B209DF813309A42BE
:103C80000FD19DF81C309DF814205340012B02D910
:103C9000052000E0012009B030BD0220FBE7032031
:103CA000F9E70420F7E700BF60A4000864A4000857
:103CB00008B5FFF7E7FE0F20FDF7B6FCFFF786FE1D
:103CC0000028FBD1FFF7A2FE0F20FDF7ADFCFFF7A8
:103CD0007DFE0028FBD1FFF7B1FE0F20FDF7A4FC0D
:103CE000FFF774FE0028FBD108BD00002DE97043EA
:103CF00014461D469DF8186010F4000F25D0C043EF
:103D000020F07F40FCF79EFB4FF040421F4BFCF73A
:103D10003DFD804601F1004922462B4620462946BA
:103D2000FCF754FA04460D463046FCF78BFB02467E
:103D30000B4620462946FCF729FD02460B46404625
:103D40004946FCF7F9FBBDE87083FCF77BFB4FF0BD
:103D500040420E4BFCF71AFD8046894622462B4610
:103D600020462946FCF732FA04460D463046FCF759
:103D700069FB02460B4620462946FCF707FD024632
:103D80000B4640464946FCF7D7FBDCE7FFFF5F41A7
:103D90002DE9F047089D0C46002B4ED194468C45EA
:103DA0008646B2FA82F262D94AB1C2F1200391404A
:103DB00020FA03F30CFA02FC194300FA02FE4FEA60
:103DC0001C471FFA8CF6B1FBF7F44FEA1E4307FBC2
:103DD000141143EA014304FB06F199420AD91CEB92
:103DE000030304F1FF3080F01281994240F20F8109
:103DF000023C6344591A1FFA8EF3B1FBF7F007FB3C
:103E0000101143EA014300FB06F69E420AD91CEB5F
:103E1000030300F1FF3180F0FC809E4240F2F98004
:103E2000634402389B1B40EA044000211DB1D3408B
:103E30000022C5E90032BDE8F0878B4205D90DB1FB
:103E4000C5E9000100210846F5E7B3FA83F100292E
:103E500046D1A34202D39042C0F0F080861A64EBB0
:103E600003030120002DE6D0C5E90063E3E7002A43
:103E700040F09080A1EB0C044FEA1C481FFA8CF72D
:103E80000121B4FBF8F64FEA1E4308FB164443EA4F
:103E9000044307FB06F0984208D91CEB030306F124
:103EA000FF3402D2984200F2CD8026461C1A1FFA37
:103EB0008EF3B4FBF8F008FB104443EA044300FB24
:103EC00007F79F4208D91CEB030300F1FF3402D22D
:103ED0009F4200F2B0802046DB1B40EA0640A5E787
:103EE000C1F120068B4022FA06F71F4320FA06FC98
:103EF00004FA01F343EA0C03F44000FA01F8380C29
:103F00004FEA1349B4FBF0FE1FFA87FC00FB1E4486
:103F100049EA04440EFB0CF9A14502FA01F20AD960
:103F20003C190EF1FF3A80F08480A14540F2818077
:103F3000AEF1020E3C44A4EB09041FFA83F9B4FB72
:103F4000F0F300FB134449EA044403FB0CFCA445D2
:103F500007D93C1903F1FF3067D2A44565D9023B6C
:103F60003C4443EA0E40A0FB0293A4EB0C049C42A9
:103F7000CE469C4651D34ED055B1B8EB0E0364EB00
:103F80000C0404FA06F6CB401E43CC40C5E900649D
:103F9000002150E7C2F1200320FA03F10CFA02FCE1
:103FA00024FA03F394400C434FEA1C4800FA02FE43
:103FB0001FFA8CF7B3FBF8F008FB1031230C43EA2F
:103FC000014300FB07F1994208D91CEB030300F100
:103FD000FF362CD299422AD9023863445B1AA4B224
:103FE000B3FBF8F108FB113344EA034401FB07F388
:103FF000A34208D91CEB040401F1FF3613D2A342FB
:1040000011D902396444E41A41EA004139E704460F
:10401000F0E6084606E7C845AED2B9EB020E63EB00
:10402000070C0138A8E73146EDE7034699E730462B
:10403000D4E7D6467FE7634402384DE70646234679
:1040400008460FE7023E634430E700BF024A0349D7
:10405000034800F0C9B800BF0C000020917A0008A6
:10406000200000200C4B4168994210B5044601D055
:1040700003F00EFDA168094B994202D0204603F0DF
:1040800007FDE168064B994204D02046BDE8104088
:1040900003F0FEBC10BD00BF240900208C090020E5
:1040A000F40900202DE9F843314C324B3248DFF857
:1040B000CC90DFF8CC80334F1860002529460423CC
:1040C000082204F15C00304EE360C4E90055C4E905
:1040D0000455A5606566A56100F00EF904F158006D
:1040E000C4E90749C4E90987E66200F0D9F929461D
:1040F000264B6367082204F1C400C4E91A55C4E9D9
:104100001E552567C4F8CC50C4F8805000F0F4F870
:1041100004F1680304F1C000C4F88430C4E92298B3
:10412000C4E9247600F0BCF9194BC4F8DC30294608
:1041300004F596700822C4E93455C4E93855C4F82A
:10414000D850C4F83451C4F8E85000F0D5F804F160
:10415000D003C4E93D87C4F8F09004F59470C4F826
:10416000FC60C4F8EC30BDE8F84300F099B900BF3A
:10417000240900205C0A00204D4000086942000824
:104180008D420008CD420008F142000809000100FC
:104190001200020010B504460A4800F085F9636B6E
:1041A00023B9094B094A1B68626323B1BDE810407B
:1041B000044800F07BB9FFF775FFBDE810400148E7
:1041C00000F074B96C0A00205C0A00206540000809
:1041D000014800F069B900BF6C0A0020014800F0F6
:1041E00065B900BF6C0A00202DE9F84380460F46F0
:1041F00016464FF00009D6E90154013D11D4A389B8
:10420000012B05F1FF3508D9B4F90E3001332146F1
:1042100003D04046B84749EA00096B1C04F1680422
:10422000EDD13668002EE6D14846BDE8F88300BFE0
:104230000FB400B5074983B004AB086853F8042BEA
:104240008168019300F064FD03B05DF804EB04B0F5
:10425000704700BF18000020024B014618688268B2
:1042600003F0B0BE1800002010B50C46B1F90E10D6
:1042700000F0BCF8002803DB236D0344236510BD68
:10428000A38923F48053A38110BD00BF2DE9F04121
:104290000C46B1F90C101F46CB05054616460BD44B
:1042A00021F48051A1813B46B4F90E1032462846D4
:1042B000BDE8F04100F0B0B8B4F90E1002230022BE
:1042C00000F07EF8B4F90C10EAE700BF10B50C4618
:1042D000B1F90E1000F074F8B4F90C30421C0EBFA6
:1042E00023F4805343F480532065A38110BD00BFA5
:1042F000B1F90E1000F052B8830730B547D0541E04
:10430000002A3ED0CAB2034601E0013C39D303F88B
:10431000012B9D07F9D1032C2CD9CDB205EB052536
:104320000F2C05EB054535D9A4F1100222F00F0C36
:1043300003F1100EE6444FEA121C1A461560556050
:104340009560D56010327245F8D10CF1010214F07D
:104350000C0F03EB021204F00F0C13D0ACF10403AA
:1043600023F003030433134442F8045B9A42FBD165
:104370000CF003042CB1C9B21C4403F8011B9C428D
:10438000FBD130BD64461346002CF4D1F9E7034657
:104390001446C0E71A46A446E0E700BF38B5074D0B
:1043A0000022044608462A60FCF70AFF431C00D09E
:1043B00038BD2B68002BFBD0236038BD600A00207D
:1043C00038B50C46084D8446114620461A4600234F
:1043D0002B606446FCF7FEFE431C00D038BD2B6802
:1043E000002BFBD0236038BD600A002038B50C4696
:1043F000084D8446114620461A4600232B60644629
:10440000FCF7CEFE431C00D038BD2B68002BFBD040
:10441000236038BD600A002038B50C46084D84463C
:10442000114620461A4600232B606446FFF7F4F835
:10443000431C00D038BD2B68002BFBD0236038BD57
:10444000600A0020014B1868704700BF1800002068
:1044500070B50F4B0F4DAB42A3EB050607D0B6105E
:10446000002455F8043B01349847A642F9D805F0DA
:10447000B5FF094D094B5E1BAB424FEAA60606D0BD
:10448000002455F8043B01349847A642F9D870BD82
:104490005CA800085CA800085CA8000864A80008E4
:1044A000704700BF704700BF704700BF704700BF34
:1044B000024B13B1024800F005B87047000000003D
:1044C00025840008002301461A46184604F004B863
:1044D0002DE9F84306460820894603F0B7FFDFF8C8
:1044E0009C800546304600F007FCD8F808305F682D
:1044F00027F00307A7F11104A4EB09042C44B4FB33
:10450000F5F4013C05FB04F4A54208DC002130462B
:1045100003F076FFD8F808303B44984205D0304687
:1045200000F0F0FB0020BDE8F8836142304603F064
:1045300067FF01300FD0124AD8F808303F1B47F010
:1045400001075F60136830461B1B136000F0DAFB45
:104550000120BDE8F8830021304603F051FFD8F870
:104560000820831A0F2BDADD43F001035360054B5B
:1045700003491B68C01A0860D1E700BF5001002042
:10458000740A00204401002000297CD0F8B50C46B4
:10459000064600F0B1FB54F8043C774FA4F108053F
:1045A00023F001016818D7F808C04268844522F05A
:1045B000030200F08380DB07426000EB020C33D47F
:1045C00054F8084CDCF804302D1B2144AC6807F18A
:1045D000080C644503F0010364D0D5F80CE0C4F87E
:1045E0000CE0CEF80840002B00F0818041F0010380
:1045F0006B600160B1F5007F22D27868CB080122A0
:10460000490901338A40024357F833107A6007EBB7
:10461000C302083AC5E9021247F83350CD6030466C
:10462000BDE8F84000F06EBBDCF80430DB072BD5AA
:1046300041F00103B1F5007F44F8043C0160DCD394
:10464000B1F5206F4FEA512353D28B0903F13900A2
:1046500003F13802C300F818FB580838984203D118
:1046600063E09B68984204D05A6822F003028A42B1
:10467000F7D8D868C5E902308560DD603046BDE80E
:10468000F84000F03FBB7047114407F1080C836805
:1046900063453FD0C268DA60936041F001036B600C
:1046A0006950A7E7002B61D10A44D0E90213CB601F
:1046B000996042F001036B60AA50B0E70A44D90741
:1046C00007D454F8083CED1A1A44D5E90213CB601C
:1046D000996042F001036B60284BBD601B689342F8
:1046E0009DD8274B30461968FFF7F2FE97E7114433
:1046F000CDE7142B08D9542B1FD80B0B03F16F00F7
:1047000003F16E02C300A6E703F15C0003F15B0254
:10471000C300A0E741F001033D617D61C5F808C019
:10472000C5F80CC06B60695079E779689210012474
:1047300004FA02F20A437A609CE7B3F5AA7F06D82E
:10474000CB0B03F1780003F17702C30083E740F25B
:104750005452934206D88B0C03F17D0003F17C0286
:10476000C30078E74FF47E737E2274E741F00103C3
:104770006B60016053E700BF50010020480100203A
:10478000A40A00202DE9F04F01F10B05162D85B08C
:10479000064624D8102900F2B18000F0ADFA1025A9
:1047A00018234FF0020CBA4F3B44A3F108025C6897
:1047B000944200F022816368E268A16823F0030359
:1047C000CA602344304691605A6842F001025A6040
:1047D000083400F097FA204605B0BDE8F08F35F0B8
:1047E000070500F18B80A94200F2888000F084FA6E
:1047F000B5F5FC7FC0F073816B0A00F08380042B59
:1048000000F22281AB0903F1390C03F1380E4FEAB3
:10481000CC039F4F3B44A3F108005C68A04207D142
:104820000DE0002AE16880F2E280884207D00C4661
:10483000636823F003035A1B0F2AF2DDF446DFF806
:1048400054823C69444500F0BF80636823F003094B
:10485000A9EB05030F2B00F34781002BC7E9048860
:1048600080F23181B9F5007FD7F804E080F0CC8088
:104870004FEAD90101314FEA5919012303FA09F32B
:1048800057F83120A2604EEA030E07EBC103083B44
:10489000E360C7F804E047F83140D4604FEAAC0366
:1048A00001209840704534D810EA0E0F07D12CF043
:1048B000030C400010EA0E0F0CF1040CF9D007EBCA
:1048C000CC0A5246E146D1680EE04B6823F0030360
:1048D000A3EB050EBEF10F0F0C46C96800F3C180B3
:1048E000BEF1000F80F2E2808A42EED109F10109A7
:1048F00019F0030F02F10802E5D121E10C23336026
:10490000002468E74FF400734FF0400C4FF03F0E67
:104910007FE7BC68636823F00309A94503D3A9EBCB
:1049200005030F2B53DC5C4BDFF870B11B680820CC
:1049300003F1100803F08AFDDBF800300190013329
:10494000A84404EB090205D008F1FF388044434233
:1049500003EA080841463046029203F051FDB0F1E7
:10496000FF3F029A824600F0DC80824200F2D7804C
:104970004B4B01991868404401F1FF31186084469F
:1049800040F0FC801AEA010F40F0F880D7F808A048
:10499000C84448F00102CAF80420424B1968814219
:1049A00038BF1860404B1968814238BF18605446C0
:1049B00022F00308A845A8EB050301D30F2B06DC62
:1049C000304600F09FF99BE7D7F804E066E76219EC
:1049D00043F0010345F0010565603046BA6053605D
:1049E00000F090F90834204605B0BDE8F08FA268C9
:1049F0002344D16030468A60E6E6DC68A3427FF457
:104A0000DAAE0CF1020C1AE7B9F5206F4FEA592221
:104A10007ED3142A00F2158102F15C03DB005B32C5
:104A2000F918FB580839994203D1F0E09B68994284
:104A300004D05A6822F003024A45F7D8D968C4E97D
:104A400002318C60DC6029E7142B6DD9542B00F205
:104A500001812B0B03F16F0C03F16E0E4FEACC03B7
:104A6000D7E63046A668621945F001056560F16039
:104A70008E604EF00101C7E90422C2F80880C2F836
:104A80000C80516044F803E000F03CF90834A2E6E1
:104A90005001002058010020A40A002044010020F9
:104AA000740A0020A00A00209C0A002023443046FB
:104AB0005A6842F001025A6054F8083FD9608B608E
:104AC00000F020F987E6A1443046D9F8043043F0DD
:104AD0000103C9F80430083400F014F97BE64FEA0A
:104AE000D50C05F108035EE6621943F0010145F0BB
:104AF000010565603046C7E90422C2F80880C2F8A3
:104B00000C80516044F8093000F0FCF8083462E68B
:104B10004FEA991202F13903DB00383280E7BC42D8
:104B200024D0BC68626843E703F15C0C03F15B0EC0
:104B30004FEACC036DE65AF80839534540F0D88067
:104B40001CF0030F0CF1FF3CF5D17B6823EA000356
:104B50007B60400098423FF6DCAE18B9D9E64000D1
:104B600009F104091842FAD0CC46A8E6614B019934
:104B7000186808EB000C0139C3F800C0DBF800002E
:104B800001301BBFAAEB02026244CBF800A01A60FE
:104B90001AF00702CDE9022342D0C2F10802019BBC
:104BA0009244D044134408EA01001A1A02EA010BA5
:104BB0005946304603F024FC421C039B7AD0A0EBFC
:104BC0000A0000EB0B081868C7F808A048F00102BB
:104BD0005844BC42CAF8042018603FF4DEAEB9F174
:104BE0000F0F42D96168A9F10C0222F0070201F00F
:104BF000010111436160A1184FF0050C0F2AC1F8A3
:104C000004C0C1F808C04AD8DAF80420C5E69210FA
:104C1000012000FA02F24EEA020EC7F804E00EE7A5
:104C2000019B0AEB08020A409A1A02EA010B594654
:104C3000304603F0E5FB431C039BC0D1DDF808B010
:104C4000C1E7542A15D84FEA193202F16F03DB008D
:104C50006E32E5E6B3F5AA7F15D8EB0B03F1780CBD
:104C600003F1770E4FEACC03D3E50123CAF80430F1
:104C7000A6E6B2F5AA7F25D84FEAD93202F1780329
:104C8000DB007732CCE640F25452934225D8AB0C8D
:104C900003F17D0C03F17C0E4FEACC03B9E53046FD
:104CA00004F108010193FFF76FFC019BD7F808A0FE
:104CB0001868A9E7029A083A9044A8EB0A084FF04E
:104CC000000B80E740F254539A420DD84FEA9942C4
:104CD00002F17D03DB007C32A2E64FF47E734FF0DD
:104CE0007F0C4FF07E0E94E54FF47E737E2297E6A4
:104CF0007B682EE7740A00200148FFF7D5BB00BF90
:104D0000640A00200148FFF7D1BB00BF640A0020FD
:104D10002DE9F04FDFB01C4607919146834603F022
:104D20006BFB036819931846FBF72AFF08221890BB
:104D300000212EA80D94FFF7DFFABBF1000F04D07D
:104D4000DBF83430002B01F07F80079B5A6EB3F9FB
:104D50000C30D50702D4980540F19F86990407D4FA
:104D600007994A6E43F4005322F400528B814A663D
:104D70001A0740F1CC80079A1269002A00F0C78018
:104D800003F01A020A2A00F0D1800023CDE9333360
:104D9000CDE91B33CDE91D3313931A930A930024F5
:104DA0000023CDE9163435AA32929046CDF820B0D2
:104DB0004D46089F2E468D4BD3F8E44003F016FB7A
:104DC00003462EA8009032462AA93846A04700285C
:104DD00000F0CB80C0F2C1802A9A252A034601D078
:104DE0001E44E8E7771B044640F0C28000238DF89C
:104DF0009F3099460B934FF0FF3273780992741CE1
:104E00000134A3F120025A2A00F2F280DFE812F006
:104E1000C702F000F000C302F000F000F0006A00EA
:104E2000F000F0007D02A002F0008802A902F0006C
:104E3000A5025B005B005B005B005B005B005B004E
:104E40005B005B00F000F000F000F000F000F0000C
:104E5000F0007101F000080222037101710171017B
:104E6000F000F000F000F0001E03F000F000DA02A5
:104E7000F000F000F0002602F0000B03F000F0005C
:104E80001707F000F000F000F000F000F000F00074
:104E9000F0007101F0000802580271017101710106
:104EA000960258020402F0008C02F0004D033F0706
:104EB0003B030402F00026027D003A07F000F000F8
:104EC0004307F0007D00A3F13002002114F8013BFC
:104ED00001EB810102EB4101A3F13002092AF5D96E
:104EE0000B918EE7089F384603F086FA43681D93BE
:104EF0001846FBF745FE1E900646384603F07CFA3E
:104F000083681B93002E40F02186237878E7079D65
:104F10005846294603F0E8F8002841F0A683B5F981
:104F20000C3003F01A020A2A7FF42FAF0799B1F967
:104F30000E20002AFFF629AF4A6ED50702D4980545
:104F400041F1BF81079923464A46584601F004FDC6
:104F50000A900A985FB0BDE8F08F082200212EA8C1
:104F6000FFF7CAF901231E4425E7771B044611D039
:104F7000349B3B443493339B0133072BC8E90057E0
:104F8000339313DC08F108080A9B3B440A93002C76
:104F90007FF42CAF349BDDF820B0002B41F0D6809D
:104FA000079B0022B3F90C30339212E0DDE90710C1
:104FB00032AA01F04DFD48B90DF1D408E4E7BB4633
:104FC0000C9B1BB10C995846FFF7DEFA079BB3F90F
:104FD0000C30079A526ED40740F11481590601F142
:104FE00050830A985FB0BDE8F08F00BF58050020DD
:104FF000CDE90E34002BCDD000228DF814310123E1
:105000008DF89F2006930C929B4609921492109261
:10501000129245AD19F0020302D0069902310691B1
:1050200019F08407349C05D10B9906980E1A002EAE
:1050300000F3A78082B10122C8F80420339A01321C
:1050400001340DF19F01072A34943392C8F80010FF
:1050500000F3E18308F1080883B1339B28AA0133E8
:105060000234C8F80020072B4FF002023494339327
:10507000C8F8042000F3DD8308F10808802F00F051
:10508000BE82099BA3EB0B06002E00F3FD8219F4F0
:10509000807F40F01982339BC8F8005001335C4494
:1050A000072BC8F804B03494339300F34D8308F110
:1050B000080819F0040F05D00B9B069A9D1A002DC5
:1050C00000F3C383DDE90A3206998A42ACBF9B181C
:1050D0005B180A93002C40F00F83002333930C9B42
:1050E0001BB10C990898FFF74FFA0DF1D4080F9DEA
:1050F0005FE6CDE90E340D9B073323F00703F3E899
:1051000002670D9327F0004323932296DDE922AB3B
:10511000A84B4FF0FF3250465946CDE91667FBF7D2
:1051200023FE002840F03085A24B4FF0FF3250465E
:105130005946FBF7FBFD002840F02685002200239E
:1051400030463946FBF7E8FD002841F00F819DF815
:105150009F20994D994B29F080090E994729C8BF86
:105160001D46002303210C9306918B46099314934B
:1051700010931293002A3FF44DAF069B0133069320
:1051800048E7102E339A41F33D828D482195CDE9B1
:105190001F372146079D089C15904FF0100A0746BF
:1051A00004E0103E102E08F1080816DD013210311F
:1051B000072AC8E9007ACDE93321F2DD32AA29466F
:1051C00020460DF1D40801F043FC002840F036865B
:1051D000103E102EDDE93321E8DCDDE91F37219D8B
:1051E0000C4601321599C8F800103444072ACDE95D
:1051F0003324C8F8046000F310869DF89F2008F15E
:10520000080817E798053FF5E9AE079CA06DFFF782
:105210004DF9B4F90C30E1E6237849F02009EFE5C7
:105220000D9A432BCDE90E3402F1040400F062859F
:1052300019F0100F40F05E850D9B1B688DF814313E
:10524000012306939B4645AD00220D948DF89F20C7
:105250000C920992149210921292DBE60D9E56F86F
:10526000045BCDE90E3400238DF89F30002D00F053
:1052700030850E9B532B00F0018619F0100312931A
:1052800040F0FC85099B5A1C00F06A8712991A4667
:105290002846FBF77DFB0C90002801F0C5820C9B93
:1052A0000D96A3EB050B129B09932BEAEB7114935C
:1052B00010930C9373239DF89F2006910E9359E74A
:1052C00019F0200FCDE90E3400F0CC800D9B073390
:1052D00023F007031A46596852F8083B0D920A4614
:1052E0000029C0F225840999013100F0858253EA32
:1052F000020129F0800440F08082099A002A40F0DF
:105300008182A14693465EAD50E10D9B53F8042B7C
:105310000B92002A80F2CE830B9A0D9352420B928D
:10532000237849F004096BE523786C2B03BF63787D
:1053300049F02009013449F0100961E52378682B10
:1053400003BF637849F40079013449F0400957E517
:105350002B238DF89F30237852E5237849F080097C
:105360004EE5214611F8013B2A2B01F0DB82A3F127
:105370003002092A0C4698BF002101F2728114F80C
:10538000013B01EB810102EB4101A3F13002092A4B
:10539000F5D9099135E5237849F0010930E59DF803
:1053A0009F202378002A7FF42BAD20228DF89F20A8
:1053B00026E500BFFFFFEF7F68A400086CA400088B
:1053C000BCA40008CDE90E3449F0100919F0200200
:1053D00000F054830D9B073323F0070319465A68E6
:1053E00051F8083B0D9129F4806400210020099DAB
:1053F0008DF89F006F1C00F0C28053EA020024F079
:10540000800940F0BB80002D40F02385002940F04A
:10541000968414F0010B00F0518330238DF877311E
:105420000DF27715C2E0CDE90E3449F0100414F006
:10543000200200F015830D9B073323F00703194664
:105440005A6851F8083B0D910121CFE7237849F0C4
:105450000809D5E449F0100919F0200FCDE90E3400
:105460007FF434AF0D9A19F0100F52F8043B0D92EF
:1054700040F0598319F0400F00F0518343F3C032DC
:1054800011461BB22CE70D9A0F9452F8043B0D9273
:1054900047F63002ADF8A0207820B14A1A9249F0C0
:1054A0000204002202210E90A0E719F0200F0F94B1
:1054B00000F059830D9B0A9A1B681A60D2175A6034
:1054C0000D9B04330D9312E60E9B652B40F34E812A
:1054D000DDE9160100220023FBF714FC002800F090
:1054E000EE81339B9F4AC8F800200133013401222A
:1054F000072B34943393C8F8042000F3AF8408F1E9
:105500000808299B139A934280F2CF82189B199A1C
:105510001C44C8E90023339B34940133072B339395
:1055200000F3CB8308F10808139B5D1E002D7FF765
:10553000C0AD102D339B40F3FA848B4F1597DDE9F6
:1055400007AB102605E008F10808103D102D40F3C8
:10555000F08401331034072BC8E90076CDE93334E9
:10556000F1DD32AA5146584601F072FA00287FF464
:1055700027ADDDE933340DF1D408E6E74C460129C7
:1055800000F03B8102295EAD1ED11A9803F00F0195
:105590001B09415C05F8011D43EA0273120953EA35
:1055A0000201F3D15EABA146A3EB050B09999DF86F
:1055B0009F2059454FF00003B8BF59460C93069100
:1055C000149310931293D5E503F00701DB0843EA27
:1055D0004273D208303153EA0206284605F8011D0D
:1055E000F2D1E607DED53029DCD03023023805F8C9
:1055F000013C5EABA146A3EB000B0546D6E70B9B37
:10560000069A9E1A002E7FF73CAD102E339B41F375
:10561000AD805548DDF820A01590214610271A4688
:10562000044604E0103E102E08F1080816DD013291
:105630001031072AC8E90047CDE93321F2DD079987
:1056400032AA50460DF1D40801F002FA002840F0C9
:10565000F883103E102EDDE93321E8DC0C461346BA
:105660000133159AC8F800203444072BCDE93334B0
:10567000C8F8046000F31483099BA3EB0B06002E0B
:1056800008F108087FF703AD374A339B1592102EB7
:1056900023DD22464FF0100ADDE9074704E0103E03
:1056A000102E08F1080817DD01332F491032072B9F
:1056B000C8E9001ACDE93332F1DD32AA2146384675
:1056C00001F0C6F900287FF47AAC103E102EDDE917
:1056D00033320DF1D408E7DC14460133159AC8F8CB
:1056E00000203444072BCDE93334C8F8046000F3BC
:1056F000AA8108F10808CAE4DDE9071032AA01F01E
:10570000A7F900283FF4E9ACDDF820B058E4189B75
:1057100019991C44C8E90013339B34940133072BB7
:10572000339300F3BF8508F10808002AC0F2AE8762
:10573000139AC8F8005001331444072BCDE93334D1
:10574000C8F804207FF7B3ACDDE9071032AA01F0F6
:105750007FF90028D8D1349C0DF1D408A9E400BF0A
:1057600078A40008A8A40008ACA40008139B339EEA
:10577000012B04F1010406F1010608F1080740F3CA
:105780001D810123072ECDE93364C8F80050C8F805
:10579000043000F3E482189B199A01361C44072E4A
:1057A000C7E90023CDE9336400F3CD820837139BAA
:1057B000DDE9160103F1FF3800220023FBF7A2FA0E
:1057C000002840F01581013601354444072ECDE90B
:1057D00033643D60C7F8048000F3FE8008371C9BEB
:1057E0007B6001361C44072E2CABCDE933643B6053
:1057F000AADC07F108085CE44C460A2B72F10001B0
:1058000080F0B98230338DF87731A1464FF0010B2B
:105810000DF27715CAE6DDE9071032AA159301F0FB
:1058200017F900287FF470AF349C159B0DF1D40854
:1058300012E4DDE9071032AA01F00AF900287FF42A
:1058400063AF349C0DF1D40818E4102D339B40F362
:105850005287BB4F1597DDE907A9102604E0103DDC
:10586000102D08F1080816DD01331034072BC8E9A4
:105870000076CDE93334F2DD32AA514648460DF1C7
:10588000D40801F0E5F8002840F0F582103D102D15
:10589000DDE93334E8DC0133159A2C44072BC8E9E1
:1058A0000025CDE933347FF70DACDDE9071032AACE
:1058B00001F0CEF800287FF427AF349C02E4299A47
:1058C000002A40F3FD80DDE912739F42A8BF1F4606
:1058D000002F05EB030B0BDD339B01333C44072BFF
:1058E000C8E900573494339300F36F8608F1080831
:1058F000129E002FA8BFF61B002E00F34783DDF891
:1059000048A019F4806FAA4440F07A85299D139B22
:105910009D4203DB19F0010F00F00484189B199AD3
:105920001C44C8E90023339B34940133072B339381
:1059300000F35A8608F10808139BABEB0A065D1BBF
:10594000AE42A8BF2E46002E0DDD339BC8F800A046
:1059500001333444072BC8F804603494339300F3C4
:10596000558608F10808002EA8BFAD1B002D7FF753
:10597000A0AB102D339B40F3DA82724F1597DDE90F
:1059800007AB102605E008F10808103D102D40F384
:10599000D08201331034072BC8E90076CDE93334C7
:1059A000F1DD32AA5146584601F052F800287FF442
:1059B00007ABDDE933340DF1D408E6E719F0010F48
:1059C0007FF4DFAE0123072ECDE93364C8F8005021
:1059D000C8F804307FF703AFDDE9071032AA01F001
:1059E00037F800287FF490AEDDE9336435AFF6E692
:1059F000139B012B7FF7F3AE112B524B159340F302
:105A0000B982CDF82490DDE907BA1025994606E061
:105A10000837A8F11008B8F1100F40F3A982013639
:105A20001034072EC7E90095CDE93364F0DD32AAC2
:105A30005946504601F00CF8002840F00282DDE99A
:105A4000336435AFE5E7DDE9071032AA01F000F86D
:105A500000287FF459AE349C0DF1D408FFF717BB32
:105A60000D9951F8043B0D9114F0100155D114F02B
:105A700040004DD00A469BB20121B7E40D9951F880
:105A8000043B0D9119F010017FF4ADAC19F040000A
:105A900000F0A9829BB20A46A5E4079DA86DFEF717
:105AA00003FDB5F90C30FFF759B919F0010F3FF4B8
:105AB00000AB2BE50D932378FFF7A2B95EAD75E53A
:105AC000339B2149C8F80010013301340121072B11
:105AD00034943393C8F8041000F3518508F1080892
:105AE000002A7FF414AE139A09F0010313433FF424
:105AF000E0AA189B199A1C44C8E90023339B3494EC
