:020000040800F2
:1000000000000120E51700083D1300083F13000819
:1000100041130008431300084513000800000000C6
:10002000000000000000000000000000471300086E
:1000300049130008000000004B1300084D1300088E
:10004000351800083518000835180008351800085C
:10005000351800083518000835180008351800084C
:10006000351800083518000835180008351800083C
:10007000351800083518000835180008351800082C
:100080003518000835180008351800080000000071
:10009000000000000000000000000000351800080B
:1000A00035180008351800085513000835180008E1
:1000B0006D130008351800083518000835180008B9
:1000C00035180008351800083518000835180008DC
:1000D0003518000835180008351800080000000021
:1000E0003518000835180008351800080000000011
:1000F00000000000000000000000000035180008AB
:1001000000000000351800083518000835180008F0
:1001100000000000000000000000000000000000DF
:100120007D13000835180008351800083518000838
:10013000351800080000000000000000000000006A
:10014000000000000000000000000000351800085A
:10015000351800083518000835180008351800084B
:1001600035180008351800080000000000000000E5
:10017000000000000000000000000000000000007F
:10018000000000003518000800000000000000001A
:040190003518000816
:1001C00081F0004102E000BF83F0004330B54FEA08
:1001D00041044FEA430594EA050F08BF90EA020F75
:1001E0001FBF54EA000C55EA020C7FEA645C7FEA08
:1001F000655C00F0E2804FEA5454D4EB5555B8BF2B
:100200006D420CDD2C4480EA020281EA030382EA9B
:10021000000083EA010180EA020281EA0303362D2D
:1002200088BF30BD11F0004F4FEA01314FF4801C00
:100230004CEA113102D0404261EB410113F0004F12
:100240004FEA03334CEA133302D0524263EB4303C9
:1002500094EA050F00F0A780A4F10104D5F1200E67
:100260000DDB02FA0EFC22FA05F2801841F10001C2
:1002700003FA0EF2801843FA05F359410EE0A5F196
:1002800020050EF1200E012A03FA0EFC28BF4CF0C7
:10029000020C43FA05F3C01851EBE37101F000457D
:1002A00007D54FF0000EDCF1000C7EEB00006EEB8A
:1002B0000101B1F5801F1BD3B1F5001F0CD3490814
:1002C0005FEA30004FEA3C0C04F101044FEA44526B
:1002D00012F5800F80F09A80BCF1004F08BF5FEAF2
:1002E000500C50F1000041EB045141EA050130BDD2
:1002F0005FEA4C0C404141EB0101013C28BFB1F5E4
:10030000801FE9D291F0000F04BF01460020B1FA2E
:1003100081F308BF2033A3F10B03B3F120020CDA01
:100320000C3208DD02F1140CC2F10C0201FA0CF0DF
:1003300021FA02F10CE002F11402D8BFC2F1200C44
:1003400001FA02F120FA0CFCDCBF41EA0C019040FA
:10035000E41AA2BF01EB0451294330BD6FEA040443
:100360001F3C1CDA0C340EDC04F11404C4F120022E
:1003700020FA04F001FA02F340EA030021FA04F340
:1003800045EA030130BDC4F10C04C4F1200220FA97
:1003900002F001FA04F340EA0300294630BD21FAD5
:1003A00004F0294630BD94F0000F83F4801306BF9B
:1003B00081F480110134013D4EE77FEA645C18BF8F
:1003C0007FEA655C29D094EA050F08BF90EA020F26
:1003D00005D054EA000C04BF1946104630BD91EA1E
:1003E000030F1EBF0021002030BD5FEA545C05D121
:1003F0004000494128BF41F0004130BD14F5800460
:100400003CBF01F5801130BD01F0004545F0FE41D3
:1004100041F470014FF0000030BD7FEA645C1ABF08
:10042000194610467FEA655C1CBF0B46024650EA3F
:10043000013406BF52EA033591EA030F41F400216B
:1004400030BD00BF90F0000F04BF0021704730B5F1
:100450004FF4806404F132044FF000054FF00001C6
:1004600050E700BF90F0000F04BF0021704730B587
:100470004FF4806404F1320410F0004548BF40425C
:100480004FF000013EE700BF42004FEAE2014FEAB1
:1004900031014FEA02701FBF12F07F4393F07F4F8C
:1004A00081F06051704732F07F4208BF704793F08F
:1004B0007F4F04BF41F40021704730B54FF46074A2
:1004C00001F0004521F000411CE700BF50EA0102A5
:1004D00008BF704730B54FF000050AE050EA01024E
:1004E00008BF704730B511F0004502D5404261EBBE
:1004F00041014FF4806404F132045FEA915C3FF4FF
:10050000D8AE4FF003025FEADC0C18BF03325FEA9B
:10051000DC0C18BF033202EBDC02C2F1200300FA4C
:1005200003FC20FA02F001FA03FE40EA0E0021FA71
:1005300002F11444BDE600BF4FEA4102B2F1E043CC
:1005400024BFB3F5001CDCF1FE5C0DD901F0004CBA
:100550004FEAC0024CEA5070B2F1004F40EB83000A
:1005600008BF20F00100704711F0804F21D113F136
:100570003872BCBF01F00040704741F480114FEA6F
:100580005252C2F11802C2F1200C10FA0CF320FAF8
:1005900002F018BF40F001004FEAC1234FEAD32315
:1005A00003FA0CFC40EA0C0023FA02F34FEA43037F
:1005B000CCE77FEA625307D150EA01331EBF4FF008
:1005C000FE4040F44000704701F0004040F0FE4023
:1005D00040F40000704700BF53B94AB9002908BF72
:1005E00000281CBF4FF0FF314FF0FF3000F00CB877
:1005F000ADF1080C6DE904CE05F0A8FDDDF804E0CE
:10060000DDE9022304B07047704700BF000000001E
:1006100000000000000000000000000000000000DA
:1006200000000000000000000000000000000000CA
:1006300000000000000000000000000000000000BA
:1006400030B490F800F020F007016FF0000C10F0CB
:10065000070491F820F040F048804FF000046FF05C
:100660000700D1E9002391F840F000F1080082FA78
:100670004CF2A4FA8CF283FA4CF3A2FA8CF34BBB43
:10068000D1E9022382FA4CF200F10800A4FA8CF2BC
:1006900083FA4CF3A2FA8CF3E3B9D1E9042382FA8A
:1006A0004CF200F10800A4FA8CF283FA4CF3A2FA9F
:1006B0008CF37BB9D1E9062301F1200182FA4CF2D7
:1006C00000F10800A4FA8CF283FA4CF3A2FA8CF33E
:1006D000002BC6D0002A04BF04301A4612BAB2FA60
:1006E00082F200EBD20030BC7047D1E9002304F065
:1006F0000305C4F100004FEAC50514F0040F91F89A
:1007000040F00CFA05F562EA05021CBF63EA050336
:1007100062464FF00004AAE700000000000000005D
:1007200001F0FF01102A2BDB10F0070F08D010F8A2
:10073000013B013A8B422DD010F0070F42B3F6D1A6
:10074000F0B441EA012141EA014122F007047FF0BF
:1007500000070023F0E80256083C85EA010586EA16
:10076000010685FA47F5A3FA87F586FA47F6A5FA52
:1007700087F68EB9EED1F0BC01F0FF0102F007025E
:1007800032B110F8013B013A83EA010313B1F8D109
:100790000020704701387047002D06BF35460338EA
:1007A000073815F0010F07D1013015F4807F02BF23
:1007B000013015F4C03F0130F0BC0138704700BF74
:1007C000844641EA000313F003036DD1403A41D35C
:1007D00051F8043B40F8043B51F8043B40F8043B1B
:1007E00051F8043B40F8043B51F8043B40F8043B0B
:1007F00051F8043B40F8043B51F8043B40F8043BFB
:1008000051F8043B40F8043B51F8043B40F8043BEA
:1008100051F8043B40F8043B51F8043B40F8043BDA
:1008200051F8043B40F8043B51F8043B40F8043BCA
:1008300051F8043B40F8043B51F8043B40F8043BBA
:1008400051F8043B40F8043B51F8043B40F8043BAA
:10085000403ABDD2303211D351F8043B40F8043B4A
:1008600051F8043B40F8043B51F8043B40F8043B8A
:1008700051F8043B40F8043B103AEDD20C3205D35A
:1008800051F8043B40F8043B043AF9D2043208D052
:10089000D2071CBF11F8013B00F8013B01D30B88C4
:1008A00003806046704700BF082A13D38B078DD0A2
:1008B00010F003038AD0C3F10403D21ADB071CBF74
:1008C00011F8013B00F8013B80D331F8023B20F8DE
:1008D000023B7BE7043AD9D3013A11F8013B00F817
:1008E000013BF9D20B7803704B7843708B7883709F
:1008F0006046704770B54FF0FF0C4CF4E06C1CEA9A
:1009000011541DBF1CEA135594EA0C0F95EA0C0F05
:1009100000F0DEF82C4481EA030621EA4C5123EA78
:100920004C5350EA013518BF52EA033541F48011A7
:1009300043F4801338D0A0FB02CE4FF00005E1FB5A
:1009400002E506F00042E0FB03E54FF00006E1FBA4
:1009500003569CF0000F18BF4EF0010EA4F1FF04E7
:10096000B6F5007F64F5407404D25FEA4E0E6D4127
:1009700046EB060642EAC62141EA55514FEAC52038
:1009800040EA5E504FEACE2EB4F1FD0C88BFBCF5B4
:10099000E06F1ED8BEF1004F08BF5FEA500E50F165
:1009A000000041EB045170BD06F0004646EA01012B
:1009B00040EA020081EA0301B4EB5C04C2BFD4EB5D
:1009C0000C0541EA045170BD41F480114FF0000E56
:1009D000013C00F3AB8014F1360FDEBF002001F0C4
:1009E000004170BDC4F10004203C35DA0C341BDC3E
:1009F00004F11404C4F1200500FA05F320FA04F010
:100A000001FA05F240EA020001F0004221F0004143
:100A100010EBD37021FA04F642EB06015EEA430EB6
:100A200008BF20EAD37070BDC4F10C04C4F12005E6
:100A300000FA04F320FA05F001FA04F240EA020099
:100A400001F0004110EBD37041F100015EEA430E6A
:100A500008BF20EAD37070BDC4F1200500FA05F28A
:100A60004EEA020E20FA04F301FA05F243EA020309
:100A700021FA04F001F0004121FA04F220EA020018
:100A800000EBD3705EEA430E08BF20EAD37070BD5E
:100A900094F0000F0FD101F00046400041EB01013E
:100AA00011F4801F08BF013CF7D041EA060195F020
:100AB000000F18BF704703F00046520043EB0303DA
:100AC00013F4801F08BF013DF7D043EA06037047C7
:100AD00094EA0C0F0CEA135518BF95EA0C0F0CD0D2
:100AE00050EA410618BF52EA4306D1D181EA030118
:100AF00001F000414FF0000070BD50EA410606BF12
:100B00001046194652EA430619D094EA0C0F02D156
:100B100050EA013613D195EA0C0F05D152EA03369B
:100B20001CBF104619460AD181EA030101F00041B9
:100B300041F0FE4141F470014FF0000070BD41F002
:100B4000FE4141F4780170BD70B54FF0FF0C4CF4DC
:100B5000E06C1CEA11541DBF1CEA135594EA0C0FFB
:100B600095EA0C0F00F0A7F8A4EB050481EA030E48
:100B700052EA03354FEA013100F088804FEA03332F
:100B80004FF0805545EA131343EA12634FEA0222FD
:100B900045EA111545EA10654FEA00260EF00041BE
:100BA0009D4208BF964244F1FD0404F5407402D210
:100BB0005B084FEA3202B61A65EB03055B084FEAA1
:100BC00032024FF480104FF4002CB6EB020E75EB9E
:100BD000030E22BFB61A754640EA0C005B084FEAC6
:100BE0003202B6EB020E75EB030E22BFB61A754643
:100BF00040EA5C005B084FEA3202B6EB020E75EB8E
:100C0000030E22BFB61A754640EA9C005B084FEA05
:100C10003202B6EB020E75EB030E22BFB61A754612
:100C200040EADC0055EA060E18D04FEA051545EA01
:100C300016754FEA06164FEAC30343EA52734FEAAA
:100C4000C2025FEA1C1CC0D111F4801F0BD141EA23
:100C500000014FF000004FF0004CB6E711F4801F88
:100C600004BF01430020B4F1FD0C88BFBCF5E06F68
:100C70003FF6AFAEB5EB030C04BFB6EB020C5FEA78
:100C8000500C50F1000041EB045170BD0EF0004ECD
:100C90004EEA113114EB5C04C2BFD4EB0C0541EAFF
:100CA000045170BD41F480114FF0000E013C90E6FC
:100CB00045EA060E8DE60CEA135594EA0C0F08BFC0
:100CC00095EA0C0F3FF43BAF94EA0C0F0AD150EABF
:100CD00001347FF434AF95EA0C0F7FF425AF104652
:100CE00019462CE795EA0C0F06D152EA03353FF47A
:100CF000FDAE1046194622E750EA410618BF52EAF7
:100D000043067FF4C5AE50EA41047FF40DAF52EACA
:100D100043057FF4EBAE12E74FF0FF3C06E000BF67
:100D20004FF0010C02E000BF4FF0010C4DF804CD74
:100D30004FEA410C7FEA6C5C4FEA430C18BF7FEA34
:100D40006C5C1BD001B050EA410C0CBF52EA430C62
:100D500091EA030F02BF90EA020F0020704710F1E2
:100D6000000F91EA030F58BF994208BF90422CBF71
:100D7000D8176FEAE37040F0010070474FEA410C6A
:100D80007FEA6C5C02D150EA013C07D14FEA430C88
:100D90007FEA6C5CD6D152EA033CD3D05DF8040BF9
:100DA000704700BF8446104662468C46194663462B
:100DB00000E000BF01B5FFF7B7FF002848BF10F102
:100DC000000F01BD4DF808EDFFF7F4FF0CBF012047
:100DD00000205DF808FB00BF4DF808EDFFF7EAFFC3
:100DE00034BF012000205DF808FB00BF4DF808ED7E
:100DF000FFF7E0FF94BF012000205DF808FB00BF73
:100E00004DF808EDFFF7CEFF94BF012000205DF8FC
:100E100008FB00BF4DF808EDFFF7C4FF34BF012009
:100E200000205DF808FB00BF4FEA410C7FEA6C5CD4
:100E300002D150EA013C0AD14FEA430C7FEA6C5CD4
:100E400002D152EA033C02D14FF0000070474FF04C
:100E5000010070474FEA410212F5001215D211D578
:100E60006FF47873B3EB625212D94FEAC12343F0A7
:100E7000004343EA505311F0004F23FA02F018BF29
:100E8000404270474FF00000704750EA013005D1F2
:100E900011F0004008BF6FF0004070474FF00000B5
:100EA000704700BF0348044B834202D0034B03B199
:100EB00018477047E0060020E00600200000000010
:100EC0000548064B1B1AD90F01EBA301491002D0AC
:100ED000034B03B118477047E0060020E0060020EE
:100EE0000000000010B5064C237843B9FFF7DAFF85
:100EF000044B13B10448AFF300800123237010BDED
:100F0000E006002000000000A4F5000808B5054B2D
:100F10001BB105490548AFF30080BDE80840FFF765
:100F2000CFBF00BF00000000E4060020A4F50008C9
:100F300000B583B000210191094B1A6B42F4800285
:100F40001A631B6B03F480030193019B0A4638204C
:100F500000F02CFD382000F039FD03B05DF804FBF3
:100F6000003802402DE9F0438BB005AD0024059414
:100F700006940794089409940194394B1A6B42F033
:100F800004021A631A6B02F004020192019A02949D
:100F90001A6B42F080021A631A6B02F0800202920E
:100FA000029A03941A6B42F001021A631A6B02F060
:100FB00001020392039A04941A6B42F002021A632C
:100FC0001B6B03F002030493049BDFF89890224606
:100FD0004FF40051484600F0B8FFDFF88C802246FD
:100FE00042F20601404600F0B0FF204F22464FF487
:100FF0008071384600F0A9FF4FF400530593012695
:101000000696079408942946484600F0AFFE03234D
:101010000593069407962946384600F0A7FE0596E4
:101020004FF40413069307962946404600F09EFEAF
:1010300042F2060305930696079408942946404613
:1010400000F094FE4FF4807305930696079408947D
:101050002946384600F08AFE0BB0BDE8F08300BF99
:101060000038024000080240000402400000024034
:1010700072B6FEE710B594B008AC302200212046CD
:1010800005F09CFE002303930493059306930793B6
:101090000193204A116C41F080511164126C02F0EE
:1010A00080520192019A02931B4A136823F4404331
:1010B00043F400431360136803F440430293029B1C
:1010C000012308934FF48033099302230E934FF4C6
:1010D00080020F9219221092A822119212930423D7
:1010E0001393204600F040FF78B90F2303930221A9
:1010F0000491002305934FF480520692079303A8AE
:1011000001F082F918B914B010BDFFF7B1FFFFF775
:10111000AFFF00BF003802400070004008B500F08B
:10112000B1FBFFF7A7FFFFF71DFFFFF701FF00F07F
:1011300025F800F003FB00F065FA00F0B3F900F0C9
:1011400029FA00F075F900F03BF80A4B4022C3F889
:101150008020BFF34F8FBFF36F8F02F0DDFB4FF4A2
:101160000051054800F0F7FE4FF47A7000F0B6FB2E
:10117000F5E700BF00E100E00008024008B50E48B6
:101180000E4B03604FF48273436000238360C3609F
:101190000361012242614FF4007282613022C26118
:1011A0000362436283620A23C36201F0A7FA00B9B3
:1011B00008BDFFF75DFFFBE7B407002000300140EA
:1011C00008B50E480E4B03604FF482734360002352
:1011D0008360C360036143614FF400728261102237
:1011E000C2610362436283620A23C36201F086FA2A
:1011F00000B908BDFFF73CFFFBE700BF5C0700201C
:101200000038004030B58BB0002305930693079358
:10121000089309930368344A934204D0334A9342B3
:101220003ED00BB030BD044600250195304B5A6CC2
:1012300042F480525A645A6C02F480520192019A2C
:1012400002951A6B42F001021A631B6B03F0010353
:101250000293029BE0230593022306930323089342
:101260000523099305A9234800F080FD2248234B5C
:1012700003604FF0C06343608560C5604FF48063D6
:10128000036145618561C5610562456200F01AFC34
:1012900018B9194BE3649C63C3E7FFF7E9FEF8E76D
:1012A00000210391124B1A6C42F480421A641A6CAA
:1012B00002F480420392039A04911A6B42F00202F4
:1012C0001A631B6B03F002030493049B4FF4444323
:1012D000059302230693032308930523099305A985
:1012E000074800F043FD9CE7003001400038004013
:1012F0000038024000000240FC060020106402405A
:101300000004024082B0002100910B4B5A6C42F461
:1013100080425A645A6C02F480420092009A019111
:101320001A6C42F080521A641B6C03F080530193D4
:10133000019B02B0704700BF00380240FEE7FEE7A5
:10134000FEE7FEE7FEE770477047704708B500F01C
:10135000B3FA08BD08B5034801F045FD024801F0A5
:1013600042FD08BDE80800201008002008B502482A
:1013700001F039FD08BD00BFA008002008B50248F3
:1013800000F006FC08BD00BFFC06002001207047ED
:1013900008B505F0FBFD162303604FF0FF3008BDD4
:1013A00008B54FF0FF31FFF7F3FFFEE770B50C46CD
:1013B0001646002506E0AFF30080214601F8010B38
:1013C00001350C46B542F6DB304670BD4FF0FF30BC
:1013D00070474FF400534B60002070470120704766
:1013E0000020704710B503460C4A0D490D480068AF
:1013F00040B10C4800680344521A934206D8094A87
:10140000136010BD0748084C0460F2E705F0BEFD0C
:101410000C2303604FF0FF30F3E700BF0000012012
:10142000001400000C08002000120020704700008B
:1014300000B587B0002302930393049305930093B0
:1014400001931648164A026053224260836040F2BC
:10145000E732C260036143618023836101F0C4FD10
:1014600090B94FF48053029302A90C4801F0BCFEDE
:1014700068B90023009301936946084801F0B8FF5A
:1014800040B907B05DF804FBFFF7F2FDE9E7FFF7AD
:10149000EFFDEEE7FFF7ECFDF3E700BFE808002003
:1014A0000000014000B591B000230C930D930E9302
:1014B0000F930793089309930A930B93059306934D
:1014C000019302930393049331484FF080420260EA
:1014D0005322426083604FF6FF72C2600361802333
:1014E000836101F081FD00283CD14FF480530C93BF
:1014F0000CA9274801F078FE002836D1244801F0D5
:101500009FFD002834D10423079350230893002320
:1015100009930B9307A91E4801F041FF58BB002314
:101520000593069305A91A4801F062FF30BB00221B
:1015300001920123029303920A23049301A9144800
:1015400001F0E0FDE8B90223019302930023049324
:1015500004220DEB02010E4801F0D4FDA0B911B038
:101560005DF804FBFFF784FDBFE7FFF781FDC5E7EA
:10157000FFF77EFDC7E7FFF77BFDD0E7FFF778FDBC
:10158000D5E7FFF775FDDEE7FFF772FDE7E700BF80
:10159000A008002000B587B00023029303930493B2
:1015A0000593009301931548154A026043608360D8
:1015B00040F2E732C2600361836101F015FD98B922
:1015C0004FF48053029302A90C4801F00DFE70B94C
:1015D00020230093002301936946084801F008FF87
:1015E00040B907B05DF804FBFFF742FDE8E7FFF7FD
:1015F0003FFDEDE7FFF73CFDF3E700BF5808002093
:101600000004004008B50A480A4B036053234360B6
:101610000023836040F2E732C2600361802383616C
:1016200001F0E2FC00B908BDFFF722FDFBE700BFB7
:10163000100800200048014010B58AB0002305932F
:1016400006930793089309930368374A93420AD095
:10165000B3F1804F1BD0354A934243D0344A934272
:101660004DD00AB010BD00210091324B5A6C42F0AF
:1016700001025A645B6C03F001030093009B0A466D
:101680001A2000F093F91A2000F0A0F9E9E70024ED
:10169000019403F50E331A6C42F001021A641A6CBD
:1016A00002F001020192019A02941A6B42F00102C7
:1016B0001A631B6B03F001030293029B4FF4004378
:1016C0000593022306930123099305A91A4800F004
:1016D0004DFB224621461C2000F068F91C2000F03A
:1016E00075F9BEE700230393124B1A6C42F0020215
:1016F0001A641B6C03F002030393039BB1E7002100
:1017000004910C4B5A6C42F480225A645B6C03F4D3
:1017100080230493049B0A461A2000F047F91A20FC
:1017200000F054F99DE700BF0000014000040040B4
:1017300000480140003802400000024008B50A4855
:101740000A4B03604FF4E133436000238360C360BE
:1017500003610C2242618361C36101F082FF00B921
:1017600008BDFFF785FCFBE73009002000100140B1
:1017700000B589B000230393049305930693079360
:10178000026803F1804303F588339A4202D009B01E
:101790005DF804FB0021019103F594335A6C42F08B
:1017A00010025A645A6C02F010020192019A0291DE
:1017B0001A6B42F001021A631B6B03F001030293E0
:1017C000029B4FF4C0630393022304930323069305
:1017D0000723079303A9024800F0C8FAD7E700BF20
:1017E00000000240DFF834D0FFF720FE0C480D491E
:1017F0000D4A002302E0D458C4500433C4188C426C
:10180000F9D30A4A0A4C002301E013600432A242D1
:10181000FBD305F0C1FBFFF781FC704700000120FE
:1018200000000020E006002014010108E00600206E
:10183000FC110020FEE7000010B504460E4B1A789C
:101840004FF47A73B3FBF2F30C4A1068B0FBF3F079
:1018500000F0C0F868B90F2C01D901200AE000227D
:1018600021464FF0FF3000F0A1F8054B1C6000202E
:1018700000E0012010BD00BF040000200000002097
:101880000800002008B50B4B1A6842F400721A6079
:101890001A6842F480621A601A6842F480721A6010
:1018A000032000F071F80F20FFF7C6FFFFF72AFDB5
:1018B000002008BD003C0240034A1168034B1B781E
:1018C0000B441360704700BF78090020040000201B
:1018D000014B1868704700BF7809002038B50446EE
:1018E000FFF7F6FF0546B4F1FF3F02D0044B1B782B
:1018F0001C44FFF7EDFF401BA042FAD338BD00BFE8
:1019000004000020002807DB00F01F02400901232B
:101910009340024A42F82030704700BF00E100E0E7
:10192000002808DB0901C9B200F1604000F5614000
:1019300080F80013704700F00F000901C9B2014B95
:101940001954704714ED00E000B500F00700C0F135
:10195000070CBCF1040F28BF4FF0040C031D062B2D
:101960000FD9C31E4FF0FF3E0EFA0CF021EA000122
:1019700099400EFA03FE22EA0E0241EA02005DF8E7
:1019800004FB0023EEE70000074AD36823F4E0637A
:101990001B041B0C000200F4E060034343F0BF6330
:1019A00043F40033D360704700ED00E010B5044607
:1019B000054BD868C0F30220FFF7C6FF014620465A
:1019C000FFF7AEFF10BD00BF00ED00E008B5FFF768
:1019D00099FF08BD0138B0F1807F0BD24FF0E023B2
:1019E0005861054AF02182F82310002098610722EF
:1019F0001A6170470120704700ED00E010B40368E1
:101A0000D9B21039094AA2FB01421209084CA25C62
:101A1000C2655F2906D96FF3090304338365806DBE
:101A200010BC70476FF309038365F8E7ABAAAAAA55
:101A3000D8F50008836A826992B9012B0AD0022B7B
:101A400002D00BB100207047C36A13F0807F28D109
:101A500000207047C36AB3F1C07F24D000207047D4
:101A6000B2F5005F09D0022B25D9032B25D1C36A1B
:101A700013F0807F23D100207047032B03D8DFE8C9
:101A800003F01404140A00207047C36A13F0807F27
:101A90000DD100207047C36AB3F1C07F09D0002088
:101AA00070470120704701207047012070470120D6
:101AB00070470120704701207047002070470120C7
:101AC0007047000070B50446FFF702FF002C5BD0A2
:101AD0000546022384F83530002384F83430226828
:101AE000136823F00103136023681A6812F0010FD2
:101AF0000AD0FFF7EDFE431B052BF5D920236365C4
:101B0000032084F8350070BD1A68204911406268CE
:101B1000A0680243E068024320690243606902430F
:101B2000A0690243E0690243206A02430A43616AF2
:101B300004291ED01A602668756925F00705636AB6
:101B40001D43042B07D1A36A1D43E36A1BB1204642
:101B5000FFF770FF90B975612046FFF74FFFE26D08
:101B60003F239340836000206065012384F8353073
:101B7000C9E7E16A206B01430A43DBE74023636561
:101B8000012084F83500BEE70120BCE73F8010F05B
:101B9000F0B583B0044600230193724B1D68724B6D
:101BA000A3FB0535AD0A876D3E68C26D08239340DF
:101BB000334210D003681A6812F0040F0BD01A6871
:101BC00022F004021A60C26D08239340BB60436D8B
:101BD00043F001034365E26D01239340334209D092
:101BE0002268526912F0800F04D0BB60636D43F02D
:101BF00002036365E26D04239340334209D02268F7
:101C0000126812F0020F04D0BB60636D43F004034E
:101C10006365E26D10239340334224D0226812683A
:101C200012F0080F1FD0BB6023681A6812F4802FCF
:101C30000DD01B6813F4002F04D1236C9BB12046F8
:101C4000984710E0A36C73B1204698470BE01A68E0
:101C500012F4807F03D11A6822F008021A60236C04
:101C60000BB120469847E26D20239340334254D075
:101C70002268126812F0100F4FD0BB6094F8353014
:101C8000052B0ED023681A6812F4802F33D01B68FE
:101C900013F4002F2AD1636C002B3ED020469847C6
:101CA0003BE02268136823F016031360226853692F
:101CB00023F080035361236CA3B12268136823F0DF
:101CC00008031360E26D3F239340BB60012384F857
:101CD0003530002384F83430236D002B3FD020466C
:101CE00098473CE0A36C002BE7D1EBE7E36BA3B193
:101CF0002046984711E01A6812F4807F09D11A68CB
:101D000022F010021A60012384F83530002384F891
:101D10003430E36B0BB120469847636DFBB1636DC4
:101D200013F0010F17D0052384F8353022681368AB
:101D300023F001031360019B01330193AB4204D8EC
:101D400023681B6813F0010FF5D1012384F83530A7
:101D5000002384F83430E36C0BB12046984703B07D
:101D6000F0BD00BF00000020B5814E1B00230F2BEB
:101D700000F2DA8030B583B068E085684FEA430E40
:101D8000032404FA0EF425EA0405CC6804FA0EF4E0
:101D90002C438460446824EA02044A68C2F30012B7
:101DA0009A40224342605FE0DC08083450F8242067
:101DB00003F00705AD004FF00F0E0EFA05FE22EA04
:101DC0000E0E0A69AA4042EA0E0240F824205FE0A3
:101DD000042200E0002202FA0EF22A430234534D9C
:101DE00045F82420524A94686FEA0C0224EA0C0554
:101DF000D1F804E01EF4801F01D04CEA04054C4CDD
:101E0000A560E46802EA0405D1F804E01EF4001FAE
:101E100001D04CEA0405464CE560646802EA04051A
:101E2000D1F804E01EF4003F01D04CEA0405404C18
:101E30006560246822404D6815F4803F01D04CEA6B
:101E400004023B4C226001330F2B6BD801229A40D5
:101E50000C6804EA020C32EA0404F4D14C6804F081
:101E60000304013C012C88D94A6802F00302032ACA
:101E700009D0C4685D000322AA4024EA02048A68EB
:101E8000AA402243C2604A6802F00302022A8BD0B1
:101E900004684FEA430E032202FA0EF224EA020417
:101EA0004A6802F0030202FA0EF2224302604A6814
:101EB00012F4403FC7D0002201921E4A546C44F4F1
:101EC00080445464526C02F480420192019A9C084E
:101ED000A51C164A52F8255003F0030E4FEA8E0E49
:101EE0000F2202FA0EF225EA0205134A90423FF44D
:101EF00071AF02F5806290420ED002F5806290428E
:101F00000CD002F5806290420AD002F580629042C5
:101F10003FF45EAF07225EE701225CE702225AE748
:101F2000032258E703B030BD704700BF00380140BE
:101F3000003C0140003802400000024003691942A1
:101F400001D001207047002070470AB181617047BD
:101F5000090481617047436901EA030221EA030130
:101F600041EA024181617047002800F0E08170B5CC
:101F700082B00446036813F0010F3BD09F4B9B686F
:101F800003F00C03042B2CD09C4B9B6803F00C0338
:101F9000082B21D06368B3F5803F4FD0B3F5A02F55
:101FA00052D0964B1A6822F480321A601A6822F4D2
:101FB00080221A606368002B50D0FFF789FC054629
:101FC0008E4B1B6813F4003F14D1FFF781FC401BBC
:101FD0006428F5D90320B1E1884B5B6813F4800FC6
:101FE000D8D0864B1B6813F4003F03D06368002BE6
:101FF00000F09F81236813F0020F54D07F4B9B6841
:1020000013F00C0F3ED07D4B9B6803F00C03082BA4
:1020100033D0E368002B68D0794B01221A60FFF7B8
:1020200057FC0546754B1B6813F0020F54D1FFF7A0
:102030004FFC401B0228F5D903207FE16F4A13684B
:1020400043F480331360B5E76C4B1A6842F4802286
:102050001A601A6842F480321A60ABE7FFF738FC66
:102060000546664B1B6813F4003FC3D0FFF730FCF6
:10207000401B6428F5D9032060E1604B5B6813F4D2
:10208000800FC6D15D4B1B6813F0020F03D0E368CD
:10209000012B40F05081594A136823F0F80321695D
:1020A00043EAC1031360236813F0080F42D0636949
:1020B0006BB3534B0122C3F8802EFFF709FC054692
:1020C0004E4B5B6F13F0020F34D1FFF701FC401B46
:1020D0000228F5D9032031E1484A136823F0F803B8
:1020E000216943EAC1031360DDE7454B00221A6012
:1020F000FFF7EEFB0546414B1B6813F0020FD2D0F1
:10210000FFF7E6FB401B0228F5D9032016E13C4B04
:102110000022C3F8802EFFF7DBFB0546374B5B6FD1
:1021200013F0020F06D0FFF7D3FB401B0228F5D9AE
:10213000032003E1236813F0040F77D02F4B1B6CAF
:1021400013F0805F33D1002301932C4B1A6C42F0C3
:1021500080521A641B6C03F080530193019B01258C
:10216000284B1B6813F4807F23D0A368012B34D045
:10217000052B38D0214B1A6F22F001021A671A6F13
:1021800022F004021A67A368002B3DD0FFF7A0FBE2
:1021900006461A4B1B6F13F0020F46D1FFF798FB50
:1021A000801B41F288339842F3D90320C6E0002512
:1021B000D6E7144A136843F480731360FFF788FB73
:1021C0000646104B1B6813F4807FCED1FFF780FBCF
:1021D000801B0228F5D90320B0E0084A136F43F0B2
:1021E00001031367CFE7054B1A6F42F004021A6729
:1021F0001A6F42F001021A67C5E700BF00380240BB
:102200000000474200700040FFF762FB0646524B59
:102210001B6F13F0020F08D0FFF75AFB801B41F22F
:1022200088339842F3D9032088E0EDB9A369002BE5
:1022300000F08380484A926802F00C02082A51D0CC
:10224000022B17D0454B00221A66FFF741FB0446CC
:10225000414B1B6813F0007F42D0FFF739FB001B96
:102260000228F5D9032069E03B4A136C23F0805320
:102270001364DBE7394B00221A66FFF729FB05469A
:10228000354B1B6813F0007F06D0FFF721FB401B86
:102290000228F5D9032051E0E369226A1343626AF8
:1022A00043EA8213A26A5208013A43EA0243E26A0D
:1022B00043EA0263284A5360284B01221A66FFF75B
:1022C00007FB0446244B1B6813F0007F06D1FFF781
:1022D000FFFA001B0228F5D903202FE000202DE093
:1022E00000202BE0012B2BD01B4B5B6803F48001FB
:1022F000E269914226D103F03F02216A8A4223D14A
:10230000616A47F6C0721A40B2EB811F1ED103F416
:102310004031A26A5208013AB1EB024F18D103F0E2
:102320007063E26AB3EB026F14D1002006E0012073
:102330007047012002E0012000E0002002B070BDE3
:102340000120FBE70120F9E70120F7E70120F5E78D
:102350000120F3E70120F1E7003802400000474286
:1023600008B5264B9B6803F00C03042B41D0082BC7
:1023700041D1224B5A6802F03F025B6813F4800F90
:1023800012D01E4B5968C1F388111D480023A1FBD0
:102390000001FEF721F9194B5B68C3F301430133D8
:1023A0005B00B0FBF3F008BD144B5868C0F3881015
:1023B0004FEA401CBCEB000C6EEB0E0E4FEA8E1386
:1023C00043EA9C634FEA8C11B1EB0C0163EB0E0303
:1023D000DB0043EA5173C90011EB000C43F1000329
:1023E000990200234FEA8C2041EA9C51FEF7F4F851
:1023F000D1E70348D7E70348D5E700BF00380240DC
:1024000040787D010024F400002800F09B8070B526
:102410000D4604464F4B1B6803F007038B4208D25E
:10242000CBB24C4A1370136803F007038B4240F0A1
:102430008B80236813F0020F17D013F0040F04D021
:10244000454A936843F4E0539360236813F0080F00
:1024500004D0414A936843F4604393603E4A9368D2
:1024600023F0F003A1680B439360236813F0010F7E
:1024700032D06368012B21D09A1E012A25D9364A11
:10248000126812F0020F61D033498A6822F0030209
:1024900013438B60FFF71CFA06462F4B9B6803F033
:1024A0000C036268B3EB820F16D0FFF711FA801BA2
:1024B00041F288339842F0D9032042E0264A12685C
:1024C00012F4003FE0D101203BE0234A126812F0F1
:1024D000007FD9D1012034E01E4B1B6803F00703B5
:1024E000AB4207D9EAB21B4B1A701B6803F0070313
:1024F000AB422DD1236813F0040F06D0164A93681F
:1025000023F4E053E1680B439360236813F0080F52
:1025100007D0114A936823F46043216943EAC10359
:102520009360FFF71DFF0C4B9B68C3F303130B4A2B
:10253000D35CD8400A4B18600A4B1868FFF77CF947
:10254000002070BD012070470120FAE70120F8E764
:102550000120F6E7003C024000380240C8F50008C0
:102560000000002008000020014B1868704700BFE1
:102570000000002008B5FFF7F7FF044B9B68C3F38A
:102580008223034AD35CD84008BD00BF0038024014
:10259000C0F5000808B5FFF7E7FF044B9B68C3F3DD
:1025A0004233034AD35CD84008BD00BF0038024024
:1025B000C0F500082DE9F04782B005468846174669
:1025C0001E46FFF785F90A9B1B1A03EB0609FFF766
:1025D0007FF98246284B1B68C3F3CB3309FB03F317
:1025E00001932B689C6838EA04040CBF0123002384
:1025F000BB423DD0B6F1FF3FF3D0FFF769F9A0EB46
:102600000A00484503D2019B73BB9946E9E72A6853
:10261000536823F0E00353606B68B3F5827F0BD0FF
:10262000AB6AB3F5005F14D0012385F85130002365
:1026300085F8503003201CE0AB68B3F5004F02D0A2
:10264000B3F5806FECD12A68136823F04003136060
:10265000E6E72A68136823F4005313602A681368B6
:1026600043F400531360DFE7019B013B0193B8E79C
:10267000002002B0BDE8F0870000002070B584B0F3
:1026800004460D46164600920B4601220221FFF732
:1026900091FFD0B9174B1B68174AA2FB03235B0DB0
:1026A0004FF47A7202FB03F303936368B3F5827FFE
:1026B00011D0039B3BB1039B013B039323689B68B1
:1026C00013F0800FF5D104B070BD636D43F02003AB
:1026D00063650320F7E700962B4600228021204601
:1026E000FFF768FF0028EED0636D43F020036365B9
:1026F0000320E8E700000020819F5E1600285AD0E2
:1027000010B50446436A33B94368B3F5827F05D0F8
:102710000023C36102E00023036143610023A3623D
:1027200094F85130002B40D0022384F851302268B5
:10273000136823F040031360636803F48273A26894
:1027400002F404421343E26802F400621343226974
:1027500002F002021343626902F001021343A2690C
:1027600002F400721343E26902F038021343226A52
:1027700002F080021343A26A02F40052216813435C
:102780000B60638B03F00403626A02F0100221689D
:1027900013434B602268D36923F40063D3610020A4
:1027A0006065012384F8513010BD84F85030204614
:1027B000FEF728FDB8E7012070472DE9F04383B00C
:1027C0000446894690461D46FFF782F894F851303A
:1027D000012B40F0CD800646DFB2B9F1000F00F0CA
:1027E000C880B8F1000F00F0C48094F85030012B7D
:1027F00000F0C380012384F85030032384F8513063
:1028000000236365C4F83090A4F83480A4F83680BF
:10281000A363A387E38763642364A368B3F5004FCE
:102820001ED023681A6812F0400F03D11A6842F0D4
:1028300040021A60E368B3F5006F1CD0636813B1FF
:10284000B8F1010F5FD1226B236812781A73236BE2
:1028500001332363E38E9BB2013B9BB2E38652E0DC
:102860002268136823F0400313602268136843F45E
:1028700080431360D5E7636813B1B8F1010F15D138
:10288000226B23681288DA60236B02332363E38EA2
:102890009BB2013B9BB2E38608E0FFF719F8801B6F
:1028A000A84202D3B5F1FF3F15D1A5B1E38E9BB28B
:1028B000002B42D023689A6812F0020FEDD0226BF1
:1028C0001288DA60236B02332363E38E9BB2013BF1
:1028D0009BB2E386EAE7012384F85130002384F8B1
:1028E0005030032745E0226B12781A73236B0133B3
:1028F0002363B4F836C01FFA8CFC0CF1FF3C1FFABE
:102900008CFCA4F836C0E38E9BB2B3B123689A68FE
:1029100012F0020FE7D1FEF7DBFF801BA84202D3C3
:10292000B5F1FF3F01D1002DEDD1012384F85130E5
:10293000002384F8503003271BE032462946204606
:10294000FFF79CFE08B120236365A36833B90193A8
:102950002368DA6801929B680193019B012384F844
:102960005130002384F85030636D13B9002700E024
:102970000227384603B0BDE8F0830227F9E72DE9C6
:10298000F04383B00446884691461F460A9DFEF7F1
:102990009FFF064694F851306268012B0BD0D9B2E4
:1029A000B2F5827F40F00481A368002B40F00481DF
:1029B000042940F00381B8F1000F00F00181B9F162
:1029C000000F00F0FF80002F00F0FE8094F85030E0
:1029D000012B00F0FB80012384F8503094F8513033
:1029E000042B02D0052384F8513000236365C4F81A
:1029F0003890E787A787C4F83080E786A7862364E6
:102A0000636423681A6812F0400F03D11A6842F019
:102A100040021A60E368B3F5006F11D063680BB130
:102A2000012F0BD1226B236812781A73236B0133A9
:102A30002363E38E9BB2013B9BB2E386012771E0E7
:102A400063680BB1012F0BD1226B23681288DA6007
:102A5000236B02332363E38E9BB2013B9BB2E3867D
:102A600001271BE023689A6812F0010F0ED0E28F55
:102A700092B25AB1DA68A36B1A80A36B0233A363D4
:102A8000E38F9BB2013B9BB2E3870127FEF720FF58
:102A9000801BA84202D3B5F1FF3F1ED1E38E9BB24B
:102AA0001BB9E38F9BB2002B62D023689A6812F0A7
:102AB000020FD7D0E28E92B2002AD3D0002FD1D00D
:102AC000226B1288DA60236B02332363E38E9BB29E
:102AD000013B9BB2E3860027C4E7012384F8513011
:102AE000002384F85030032063E023689A6812F0D2
:102AF000010F0ED0E28F92B25AB1DA68A36B1A704E
:102B0000A36B0133A363E38F9BB2013B9BB2E387CB
:102B10000127FEF7DDFE831BAB4202D3B5F1FF3F79
:102B20001ED1EDB1E38E9BB213B9E38F9BB2FBB123
:102B300023689A6812F0020FD7D0E28E92B2002A70
:102B4000D3D0002FD1D0226B12781A73236B0133AC
:102B50002363E38E9BB2013B9BB2E3860027C4E76D
:102B6000012384F85130002384F85030032020E002
:102B7000324629462046FFF781FD90B9A36833B954
:102B800001932368DA6801929B680193019B0123FA
:102B900084F85130002384F85030636D4BB101202C
:102BA00007E020236365002384F85030012000E013
:102BB000022003B0BDE8F0830220FAE70220F8E724
:102BC0000120F6E70120F4E70120F2E70220F0E718
:102BD00010B4036A046A24F001040462846924F0D6
:102BE000F00C4CEA021223F00A030B4382610362E9
:102BF00010BC704730B4056A046A24F01004046203
:102C0000846924F4407C4CEA022C2CF4704C1B03A5
:102C10009BB243EA0C0325F0A005090101F0A001D5
:102C200029438361016230BC704710B4036A046AAF
:102C300024F010040462846924F4704C4CEA0232DB
:102C400023F0A00343EA01138261036210BC7047C2
:102C500030B4056A046A24F480740462C46924F000
:102C6000030C4CEA020C2CF0F00C1B01DBB243EA23
:102C70000C0325F42065090201F420612943C36196
:102C8000016230BC704730B4056A046A24F4805491
:102C90000462C46924F4407C4CEA022C2CF4704C8D
:102CA0001B039BB243EA0C0325F42045090301F4FE
:102CB00020412943C361016230BC7047836823F01F
:102CC00070030B4343F007038360704790F83D3077
:102CD000012B2AD1022380F83D300368154A934224
:102CE00018D0B3F1804F15D0A2F57C42934211D099
:102CF00002F5806293420DD002F58062934209D0C2
:102D000002F59A32934205D01A6842F001021A6025
:102D1000002070479A6802F00702062A07D01A6856
:102D200042F001021A600020704701207047002025
:102D3000704700BF0000014090F83D30012B2FD1BB
:102D4000022380F83D300268D36843F00103D3606A
:102D50000368154A934218D0B3F1804F15D0A2F5FD
:102D60007C42934211D002F5806293420DD002F56D
:102D70008062934209D002F59A32934205D01A68D4
:102D800042F001021A60002070479A6802F00702C0
:102D9000062A07D01A6842F001021A600020704724
:102DA00001207047002070470000014070470C2947
:102DB00014D8DFE801F0071313130A1313130D13CC
:102DC000131310000368586B70470368986B7047C3
:102DD0000368D86B70470368186C70470020704711
:102DE00070477047704770B504460368DE681D6918
:102DF00015F0020F10D016F0020F0DD06FF0020286
:102E00001A610123037703689B6913F0030F5ED0F7
:102E100000F0E6FD0023237715F0040F12D016F022
:102E2000040F0FD023686FF004021A610223237786
:102E300023689B6913F4407F4FD0204600F0D0FDFB
:102E40000023237715F0080F12D016F0080F0FD0CB
:102E500023686FF008021A61042323772368DB6973
:102E600013F0030F40D0204600F0BAFD0023237773
:102E700015F0100F12D016F0100F0FD023686FF05E
:102E800010021A61082323772368DB6913F4407F5B
:102E900031D0204600F0A4FD0023237715F0010F68
:102EA00002D016F0010F2DD115F0800F02D016F0D0
:102EB000800F2FD115F0400F02D016F0400F31D106
:102EC00015F0200F02D016F0200F33D170BDFFF7A0
:102ED00087FF2046FFF785FF9CE72046FFF780FF2E
:102EE0002046FFF77EFFABE72046FFF779FF20463D
:102EF000FFF777FFBAE72046FFF772FF2046FFF79C
:102F000070FFC9E723686FF001021A61204600F0E4
:102F100043FDC9E723686FF080021A61204600F084
:102F2000A6FAC7E723686FF040021A612046FFF750
:102F300059FFC5E723686FF020021A61204600F0B0
:102F400095FAC3E70368274A90420ED0B0F1804F4C
:102F50000BD0A2F57C42904207D002F580629042ED
:102F600003D002F58062904203D123F070034A68D7
:102F700013431C4A90421AD0B0F1804F17D0A2F5EB
:102F80007C42904213D002F5806290420FD002F54D
:102F9000806290420BD002F59A32904207D002F53F
:102FA0008062904203D002F58062904203D123F404
:102FB0004073CA68134323F080034A6913438A6845
:102FC000C2620A688262074A904207D0026842F0F1
:102FD0000402026001224261036070470A690263D1
:102FE000F4E700BF0000014040B310B5044690F87C
:102FF0003D30F3B1022384F83D30214651F8040BF3
:10300000FFF7A0FF012384F8463084F83E3084F8AF
:103010003F3084F8403084F8413084F8423084F8FE
:10302000433084F8443084F8453084F83D30002043
:1030300010BD80F83C30FEF7FFFADBE70120704757
:1030400040B310B5044690F83D30F3B1022384F844
:103050003D30214651F8040BFFF774FF012384F83B
:10306000463084F83E3084F83F3084F8403084F8AD
:10307000413084F8423084F8433084F8443084F896
:10308000453084F83D30002010BD80F83C30FFF71B
:103090008DFEDBE70120704770B49446066A046A2F
:1030A00024F0010404628469144DA84214D0B0F1E4
:1030B000804F11D0124A90420ED002F580629042A9
:1030C0000AD002F58062904206D002F59A32904210
:1030D00002D044F0010203E024F0030242EA0C02B1
:1030E00022F0F0021B01DBB2134326F00A0201F0CA
:1030F0000A0111438361016270BC70470000014006
:103100000004004038B590F83C30012B5ED00446F6
:103110000D46012380F83C300C2A52D8DFE802F03B
:1031200007515151195151512C5151513E00CB6809
:103130004A6809680068FFF7AFFF2268936923F0C7
:103140000C03936122689369A9680B439361002083
:1031500038E0CB684A6809680068FFF74BFD2268D1
:10316000936923F44063936122689369A96843EAF1
:1031700001239361002025E0CB684A680968006854
:10318000FFF766FD2268D36923F00C03D361226840
:10319000D369A9680B43D361002013E0CB684A6868
:1031A00009680068FFF76FFD2268D36923F4406364
:1031B000D3612268D369A96843EA0123D36100205F
:1031C00000E00120002384F83C3038BD0220FCE7F9
:1031D00010B4846824F47F4C42EA03220A4342EA92
:1031E0000C02826010BC704790F83C30012B78D004
:1031F00010B50446012380F83C30022380F83D30AE
:103200000268936823F47F4323F0770393600B688D
:10321000602B4CD023D8402B54D011D8202B03D076
:103220000AD80BB1102B05D119462068FFF746FDCF
:10323000002028E0012026E0302BF5D0012022E0FC
:10324000502B0AD1CA6849680068FFF7C1FC5021B9
:103250002068FFF733FD002015E0012013E0B3F5EF
:10326000805F3AD0B3F5005F14D0702B37D1CB68B4
:103270004A6889680068FFF7ABFF2268936843F0EB
:10328000770393600020012384F83D30002384F805
:103290003C3010BDCB684A6889680068FFF798FF2A
:1032A0002268936843F4804393600020EBE7CA6888
:1032B00049680068FFF7B9FC60212068FFF7FEFC51
:1032C0000020E0E7CA6849680068FFF781FC4021F8
:1032D0002068FFF7F3FC0020D5E70020D3E70120AA
:1032E000D1E70220704710B50468A26822F070028E
:1032F0004B68134323F007030A681A43A2604B6824
:10330000502B30D00BD9602B34D0702B43D10B69AC
:103310008A68C9680068FFF75BFF002010BD402B7A
:103320000CD02ED8202B2ED004D873B3102B2ED136
:103330000020F3E7302B2CD10020EFE70B68052BA2
:103340002BD003681C6A1A6A22F001021A62026812
:10335000936923F0F003096943EA01139361036859
:103360001C620020DAE70A6989680068FFF730FC10
:103370000020D3E70A6989680068FFF756FC00203F
:10338000CCE70120CAE70020C8E70020C6E70120FB
:10339000C4E70120C2E70120C0E70120BEE790F8A2
:1033A0003C30012B22D010B50446012380F83C307C
:1033B000022380F83D30FFF796FF80B92268D3687A
:1033C00023F04003D3602268D36823F48043D360A2
:1033D000012384F83D30002384F83C3010BD0120E7
:1033E00084F83D00002384F83C30F7E70220704762
:1033F00090F83C20012A34D010B40346012280F812
:103400003C20022280F83D2002685068946820F039
:10341000700C086840EA0C0050601A68124882423A
:1034200012D0B2F1804F0FD0A0F57C4082420BD079
:1034300000F58060824207D000F58060824203D0B0
:1034400000F59A30824204D124F080044968214377
:103450009160012283F83D20002083F83C0010BCDD
:1034600070470220704700BF00000140704770475E
:10347000026802F10C0353E8003F23F490730C320E
:1034800042E800310029F3D1026802F1140353E845
:10349000003F23F00103143242E800310029F3D148
:1034A000036B012B05D0202380F8423000230363F7
:1034B0007047026802F10C0353E8003F23F0100349
:1034C0000C3242E800310029F3D1ECE710B5044694
:1034D0000268136923F44053C1680B431361836886
:1034E00002691A4343691A43C3691A430168CB68E6
:1034F00023F4164323F00C031343CB600268536993
:1035000023F4407381690B4353610368314A93424A
:1035100006D002F58062934202D0FFF72BF801E05B
:10352000FFF738F8E369B3F5004F29D000210318FD
:1035300049411B1841F10001C90041EA5371DB0008
:10354000181863684FEA83024FEA937341F1000150
:10355000FDF742F8204AA2FB00314909642303FB2E
:1035600011031B013233A2FB03235B0903F0F002BA
:1035700002EB011203F00F03216813448B6010BDAE
:103580000023021843EB0301121841F10001C900A6
:1035900041EA5271D200101841F10001626892189C
:1035A0005B41FDF719F80C4AA2FB0031490964237D
:1035B00003FB1103DB003233A2FB03235B095A0038
:1035C00002F4F87202EB011203F0070321681344BE
:1035D0008B60D4E7001001401F85EB512DE9F043CB
:1035E00083B005460E4617469946DDF828802B68BD
:1035F0001C6836EA04040CBF01240024BC4228D114
:10360000B8F1FF3FF3D0FEF763F9A0EB09004045A6
:1036100023D8B8F1000F22D02B68DA6812F0040F1B
:10362000E5D0802EE3D0402EE1D01A6812F0080FCA
:10363000DDD0002401941A6801925B680193019B1C
:103640002846FFF715FF08236B6485F840400120EA
:1036500000E0002003B0BDE8F0830320FAE7032078
:10366000F8E760B310B5044690F8413013B3242353
:1036700084F841302268D36823F40053D360204695
:10368000FFF724FF2268136923F490431361226833
:10369000536923F02A0353612268D36843F400532B
:1036A000D36000206064202384F8413084F84230E5
:1036B000606310BD80F84030FEF75AF8D7E701206C
:1036C00070472DE9F04182B01E4690F84130202B22
:1036D00056D104460D469046002955D00AB901201E
:1036E0004FE000234364212380F84130FEF7F0F8D7
:1036F0000746A4F82480A4F82680A368B3F5805F69
:1037000002D04FF0000814E023692BB34FF00008FB
:103710000FE0202384F84130032032E038F8023BE8
:103720002268C3F308035360E28C92B2013A92B26A
:10373000E284E38C9BB293B100963B460022802149
:103740002046FFF74BFF0028E3D1002DE6D015F807
:10375000012B23685A60E7E7A8460025E9E70096B1
:103760003B46002240212046FFF738FF18B92023AE
:1037700084F8413005E0202384F84130032000E044
:10378000022002B0BDE8F0810120FAE700B583B065
:10379000124B1B68ADF804301B0C8DF80630104B33
:1037A0001B78834206D00F4B1B7883420DD003B0A9
:1037B0005DF804FB0429FAD10B4B01221A704FF477
:1037C00000510A48FEF7C7FBF1E70429EFD14FF497
:1037D00000510648FEF7BFFBE9E700BFE0F500082F
:1037E0001E0C00201D0C00201C0C002000080240B4
:1037F0002DE9F0439FB00A2239493A4801F008FD0B
:10380000394B1870B0B914AC384D0FCD0FC40FCD73
:103810000FC495E8030044F8040B217014AC204653
:10382000FCF70EFF0246324B21462E4801F011FEF6
:10383000002440E001462F4803F0DCF943E0642611
:1038400004FB06F62046FCF70DFE80468946002262
:10385000294BFDF74FF80022284BFCF7B7FCFCF78B
:103860006BFE07461AA3D3E9002340464946FDF7FD
:1038700041F802460B4618A1D1E90001FCF7A4FC6F
:10388000FCF75AFE04ADFCF7FFFDCDE90201384616
:10389000FCF7FAFDCDE9000132461949284603F04C
:1038A00023FA2846FCF7CCFE0246114B29460D4868
:1038B00001F0CFFD0134092CC1DD0A4801F013FFEE
:1038C000104803F009FA1FB0BDE8F083AFF30080A1
:1038D0009A9999999999A93F6666666666660A40BB
:1038E000E4F5000894090020900900202CF6000857
:1038F0008C090020F0F500080000E03F000039408E
:1039000004F6000814F6000808B502F06FF8FFF797
:103910006FFF02F0CDF8FEE738B500F0DBF9154C8B
:10392000002202212046FEF710FB642307221249E1
:103930001248FFF7C6FE124D01221146284600F03C
:10394000F7F9104B187001220221284600F0F0F917
:103950000D4B18700D4800F01FFA0D48FFF7ECF9F9
:103960000C48FFF7B3F9002202212046FEF7EDFADA
:10397000FFF7CAFF0004024054F600083009002097
:10398000000002401E0C00201D0C00208D37000896
:10399000100800205808002008B50D4B834200D0C5
:1039A00008BD00F01BFA0B4B1A6801321A600A4B73
:1039B000A3FB02135B094FF4FA7101FB1323002BE5
:1039C000EED14FF400510548FEF7C5FAE8E700BF15
:1039D0001008002084090020D34D62100008024026
:1039E0000368B3F1804F00D0704710B5037F012BFF
:1039F00002D0022B29D010BD0021FFF7D8F9431CBB
:103A00009BB2174A1380174C21781748A0FB01205E
:103A100000F0F002A2EB1012A1EB4202D2B2134866
:103A200000881B1A124820F8123001312170002240
:103A3000104B1A80104B1978481C18700F4B1C68DB
:103A40000F4840F821401A60D5E70421FFF7AFF98D
:103A50000130064B1880074B01221A80CBE700BFCC
:103A600080090020DC0B0020898888887E090020DE
:103A7000E00B0020200C00207C0900208809002099
:103A8000C40B002070B50E461546002407E04FF029
:103A9000FF33012231190448FFF713FE0134AC4211
:103AA000F5DB284670BD00BF3009002008B5724B19
:103AB0001B78834240F2D78000EB40026F4B03EB50
:103AC000C20300225A741B7C052B00F2CD80DFE874
:103AD00003F0031B426979B800EB4002674B03EB2C
:103AE000C2035B7D002B00F0B380644B03EBC20389
:103AF0001B7D002B40F0AC80604B03EBC203012226
:103B00001A7400225A82A3E000EB40025B4B03EBE5
:103B1000C2035B7DBBB11346584A02EBC302538A12
:103B200001339BB2538252899342C0F0918000EBE3
:103B30004002524B03EBC20302221A7400225A8243
:103B400001225A7484E000EB40024C4B03EBC203A9
:103B500000221A747CE000EB4002484B03EBC203E6
:103B60005B7D9BB11346454A02EBC302538A013386
:103B70009BB25382928993426AD300EB40023F4B3F
:103B800003EBC20303221A745A7461E000EB400293
:103B90003A4B03EBC20304221A7400225A82022217
:103BA0005A7455E000EB4002344B03EBC2035B7DDB
:103BB000002B4DD1314B03EBC20300221A740222B9
:103BC0005A7445E000EB40032C4A02EBC302538ACF
:103BD00001339BB25382527D12B300EB4001274A5E
:103BE00002EBC102127DDAB9244A02EBC102937DD5
:103BF0000133DBB29375012B09D000EB40021F4B60
:103C000003EBC20301221A7400225A8220E01B4BEC
:103C100003EBC10300221A74052159749A7517E049
:103C200000EB4001154A02EBC102D28993420FD347
:103C3000124B03EBC10300221A74042159749A75C4
:103C400006E000EB40020D4B03EBC20300221A74A6
:103C500000EB4002094B03EBC203597C19B1084B3E
:103C60001B6803B1984708BD044B182202FB0033C0
:103C700000221A74ECE700BF2C0C0020300C00204E
:103C8000240C0020114B1B7883421BD970B50446CD
:103C900000EB40030E4A52F83300A8B11546660007
:103CA00002EBC3039988FEF749F90346003818BFB1
:103CB0000120264405EBC6052A7A12B1B3FA83F037
:103CC000400970BD002070470020FAE72C0C00204E
:103CD000300C002010B4002116E0114C01EB410320
:103CE000D800231800221A745A745A821A755A7509
:103CF0009A7522505A6001221A7204225A81C822EF
:103D00009A813C22DA8101310229E6DD0023054A4D
:103D10001370054A1360054A136010BC704700BF5A
:103D2000300C00202C0C0020280C0020240C00203B
:103D30002DE9F041164B1C78022C24D828B3631CC3
:103D4000134D2B70134E04EB440306EBC30546F8EA
:103D5000330069602A7204236B81C823AB813C2342
:103D6000EB814FF0000885F8108085F81180A5F8E8
:103D700012802046FFF786FF2875687585F8168043
:103D80002046BDE8F081FF24FAE7FF24F8E700BFF2
:103D90002C0C0020300C0020014B1860704700BF35
:103DA000240C0020F8B500240FE02046FFF76AFF3E
:103DB000084D04EB440605EBC60670752046FFF778
:103DC00075FE737D33750134E4B2034B1B78A34257
:103DD000EBD8F8BD300C00202C0C002008B5034AAD
:103DE000136801331360FFF7DDFF08BD280C0020C6
:103DF000002070474278007840EA02207047C3787C
:103E0000827842EA0322437843EA0223007840EAB8
:103E1000032070470170090A417070470170C1F3B7
:103E200007234370C1F307438370090EC1707047C5
:103E3000944632B10A78013102700130BCF1010CB4
:103E4000F8D1704701700130013AFBD170478446C8
:103E50009CF800000CF1010C0B780131C01A013AFA
:103E600001D00028F4D07047034600E001331878F1
:103E700008B18842FAD1704730B400252B4601E0E2
:103E800001250133012B15D81A01174CA258002A1D
:103E9000F6D00468A242F4D1134A02EB031254682C
:103EA00082689442EDD1104A02EB03129468426991
:103EB0009442E6D1022B0AD0A1B90B4A02EB0313BC
:103EC0009B89B3F5807F0BD0002030BC70472DB9A3
:103ED000022901D01220F8E70020F6E70020F4E7DD
:103EE0001020F2E71020F0E7780C0020002000E01E
:103EF0000130012804D80301034AD358002BF7D11D
:103F0000023818BF01207047780C002030B400231D
:103F100000E00133012B13D81A01244CA458026885
:103F20009442F6D1214A02EB03125468826894420B
:103F3000EFD11E4A02EB0312946842699442E8D121
:103F4000022B08D009B3194A02EB031292895ABB1B
:103F50004FF480721FE00023012B05D81A01134C87
:103F6000A2580AB10133F7E7022B1BD00F4D1C01F9
:103F700005EB0312D0F800C045F804C08468546013
:103F80004069906000209081DCE7084A02EB031250
:103F90009289013292B2054901EB03118A81581CC2
:103FA00030BC70470020FBE70020F9E7780C0020C8
:103FB0000138012815D80D4B03EB00139B89B3F58D
:103FC000807F03D043B1013B9BB200E00023074A4E
:103FD00002EB0012938133B903010020034AD05051
:103FE0007047022070470020704700BF780C002007
:103FF000002302E010BC70470133012B11D81A01D5
:1040000008498A588242F7D110B41A0100248C5012
:104010000133012BEED81A0102498A588242F7D1A6
:10402000F3E77047780C002002398369023B8B422A
:1040300004D94389C06A01FB030070470020704720
:104040000268C36A0433490A5289B1FBF2F101E004
:10405000091A0833186818B18142F9D2586808441F
:10406000704770B506460D4601F11A00FFF7C2FE13
:104070003378032B00D070BD044605F11400FFF720
:10408000B9FE44EA0040F6E770B506460C46154610
:1040900091B204F11A00FFF7BDFE3378032B00D074
:1040A00070BD290C04F11400FFF7B4FEF8E700001E
:1040B0002DE9F84380460F4691464B730F23CB7290
:1040C00000240C73214607F11A00FFF7A3FE09F143
:1040D000FF3606EB460306EB8306254602E0013475
:1040E0000C2C11D84FF6FF739D4202D038F81650B1
:1040F00001360C4B185D29463844FFF78BFE002D26
:10410000EDD14FF6FF75EAE74FF6FF739D4202D0FF
:1041100038F816300BB949F0400987F80090BDE82F
:10412000F88300BF4CFA000870B582B00546164609
:104130001C460B22FFF77CFE052C11D807231FE03D
:1041400001310F290CD803F0010C0CEB44045B087F
:1041500014F4803FF4D084F4883484F02104EFE731
:104160003388002BEAD002360021EAE75A1E0833D2
:104170006B4403F8081C21090F2C0AD913460C467E
:1041800004F00F0202F130013929EFD902F13701B1
:10419000ECE77E2102F108036B4403F8081C0023BE
:1041A00000E00133934209D2E95C2029F9D105E00E
:1041B0002020591CE854072909D80B46072AF7D8AC
:1041C00002F10801694411F8080C0132F1E702B06C
:1041D00070BD01464FF00B0C0020C30143EA5003B1
:1041E0000A78013152FA83F3D8B2BCF1010CF4D150
:1041F00070470146006838B1024613781F2B06D974
:104200003A2B04D00132F8E74FF0FF3070473A2BD9
:1042100001D000207047034613F8010B30380928FD
:1042200008D89A4202D04FF0FF30704728B90132C7
:104230000A6070474FF0FF3070474FF0FF30704713
:1042400038B50D46044698B103689BB11A78A2B1FF
:104250008188DA88914203D0092000242C6038BD7F
:10426000587801F0F5FA10F0010009D12468F5E75B
:104270000920F3E71C460920F0E709200024EDE7B8
:1042800009200024EAE72DE9F041C57815B9284650
:10429000BDE8F0810446076B00F1340801233A467B
:1042A0004146407801F002FB0546A0B90023E370C7
:1042B000636AFB1AE2699342E9D2A67808E0E369EF
:1042C0001F4401233A464146607801F0EFFA013E6F
:1042D000012EF4D8DBE70125D9E770B5036B8B42DB
:1042E00002D10026304670BD04460D46FFF7CBFFD5
:1042F00006460028F6D101232A4604F134016078ED
:1043000001F0C8FA10B101264FF0FF352563E9E747
:1043100038B504460023C3704FF0FF330363FFF743
:10432000DCFF30BB054604F23220FFF763FD4AF69E
:10433000552398421FD194F83430E92B07D0636B92
:1043400003F0FF130D4A934201D0022514E004F15B
:104350006A00FFF754FD20F07F40094B98420BD0D4
:1043600004F18600FFF74BFD064B984204D002256E
:1043700002E0042500E00325284638BDEB0090004C
:1043800046415400464154332DE9F04F85B00D4667
:10439000164600230B60FFF72CFF071EC0F2438177
:1043A000B44B53F82740002C00F042812C6006F0FB
:1043B000FE06237873B1607801F04AFA10F0010527
:1043C00008D1002E00F0308110F0040F00F02C8195
:1043D0000A2529E100232370F8B2607001F044FA45
:1043E00010F0010540F026811EB110F0040F40F0DE
:1043F000238100212046FFF78BFF02287ED0002773
:10440000042800F01B81012800F21A8104F13F000A
:10441000FFF7F0FCB0F5007F40F0148104F14A0092
:10442000FFF7E8FC064620B904F15800FFF7E7FC67
:104430000646E66194F84420A270531EDBB2012BBD
:1044400000F2028106FB02F894F84190A4F80A9069
:10445000B9F1000F00F0FA8009F1FF3319EA030FF8
:1044600040F0F68004F14500FFF7C4FC824620814D
:1044700010F00F0F40F0EE8004F14700FFF7BAFC98
:10448000834620B904F15400FFF7B9FC834604F1D8
:104490004200FFF7AFFC0246002800F0DD8000EB91
:1044A000080303EB1A139B45C0F0D880ABEB030B5A
:1044B000BBFBF9F1CB45C0F0D3804FF6F5708142DC
:1044C00034D840F6F570814267D94FF0020B2FE0E7
:1044D000002004AB03EB860343F8100C0136032ED7
:1044E0000ED804F13400330103F5DF731844037967
:1044F000002BEDD00830FFF782FCEAE70026EEE75C
:1045000000260AE039462046FFF702FF01287FF621
:1045100077AF0136032E3FF673AF04AB03EB860390
:1045200053F8107C002FEDD10320F2E74FF0030B7E
:1045300001F10209C4F8189027623A4462623B44D0
:10454000E362BBF1030F2BD0BAF1000F00F08E80B5
:104550004244A262BBF1020F33D009EB490309F0D8
:10456000010909EB530909F2FF19B6EB592F7FD363
:104570004FF0FF336361236180232371BBF1030F8D
:1045800022D084F800B03C4A138801339BB21380D8
:10459000E3802046FFF72CFD46E04FF0010BC7E714
:1045A00004F15E00FFF726FC00285BD1BAF1000F92
:1045B0005AD104F16000FFF722FCA0624FEA89099A
:1045C000D1E74FEA4909CEE704F16400FFF712FC96
:1045D0000128D6D1791C2046FFF77FFE0028D0D1D4
:1045E0000023237104F23220FFF704FC4AF655231E
:1045F0009842C6D104F13400FFF701FC1F4B9842EA
:10460000BFD104F50670FFF7FAFB1D4B9842B8D1F5
:1046100004F50770FFF7F3FB606104F50870FFF71E
:10462000EEFB2061ADE70B25284605B0BDE8F08F15
:104630000C25F9E70325F7E70A25F5E70125F3E758
:104640000D25F1E70D25EFE70D25EDE70D25EBE74E
:104650000D25E9E70D25E7E70D25E5E70D25E3E75E
:104660000D25E1E70D25DFE70D25DDE70D25DBE76E
:104670000D25D9E79C0C0020980C00205252614176
:10468000727241612DE9F047012975D907460C4640
:10469000164683698B4273D90378022B3ED0032BD5
:1046A0004FD0012B6ED101EB5108416A01EB58212B
:1046B000FFF713FE054600285FD107F1340A08F121
:1046C0000109C8F3080814F001041DD01AF80830D5
:1046D00003F00F0343EA0613DBB20AF808300123A4
:1046E000FB70796A01EB59213846FFF7F6FD054664
:1046F000002842D1C9F3080944B1C6F307130AF8E8
:1047000009300123FB7038E0F3B2E6E71AF809300C
:10471000C6F3032223F00F031343F0E7416A01EBD2
:104720001421FFF7DAFD054638BB07F134006400B9
:1047300004F4FF74B1B22044FFF76CFB0123FB705B
:104740001BE0416A01EBD411FFF7C7FD0546A0B994
:1047500026F0704607F13403A40004F4FE741C44F0
:104760002046FFF74CFB00F0704131432046FFF735
:1047700055FB0123FB7000E002252846BDE8F087C9
:104780000225FAE70225F8E7F8B50568012954D9AA
:104790000C46AB698B4252D92B78022B2BD0032BC2
:1047A00039D0012B4DD101EB5106696A01EB56213D
:1047B0002846FFF792FD10B14FF0FF303EE0771C26
:1047C000C6F308062E4496F83460696A01EB572157
:1047D0002846FFF782FDB0BBC7F308072F4497F8C0
:1047E000343046EA032014F0010F01D0000925E01F
:1047F000C0F30B0022E0696A01EB14212846FFF7A1
:104800006CFD18BB05F13400640004F4FF7420440F
:10481000FFF7F0FA12E0696A01EBD4112846FFF7BE
:104820005CFDB0B905F13400A40004F4FE7420442A
:10483000FFF7E5FA20F0704000E00120F8BD01200C
:10484000FCE70120FAE74FF0FF30F7E74FF0FF30C9
:10485000F4E74FF0FF30F1E72DE9F041D0F80080A8
:10486000B1F5001F3FD207460E4611F01F0F3DD194
:1048700041618468E4B998F80030022B01D9D8F876
:104880002840ACB9B8F80830B3EB561F30D9D8F887
:104890002830FB61BC61FB6993B303EB5623FB61DA
:1048A00008F13408C6F308014144396200201BE0D6
:1048B000B8F80A506D02AE420FD321463846FFF7D2
:1048C00063FF0446B0F1FF3F14D0012814D9D8F893
:1048D0001830834212D9761BEDE721464046FFF798
:1048E000A3FBF861D6E70220BDE8F0810220FBE7D8
:1048F0000220F9E70120F7E70220F5E70220F3E7BD
:104900000220F1E72DE9F041054606680F4651B94E
:10491000D6F81080B8F1000F12D0B369434511D812
:104920004FF001080EE0FFF72FFF0346012847D99B
:10493000B0F1FF3F49D0B269824246D8B84601E0A3
:104940004FF0010844460CE021462846FFF71CFFC3
:10495000034678B1012838D0B0F1FF3F35D0444547
:1049600032D00134B369A342EED8B8F1010F29D98E
:104970000224E9E74FF0FF3221463046FFF782FE7E
:104980000346B0B977B9A3B934617269B369023B20
:104990009A4201D8013A7261337943F001033371CD
:1049A000234612E0224639463046FFF76BFE0346A7
:1049B000E9E7012B01D0012307E04FF0FF3304E0CA
:1049C000012302E0002300E000231846BDE8F08147
:1049D000F8B50C46056801292ED906461146AB6983
:1049E000A3422BD94AB14FF0FF322846FFF74AFEC7
:1049F000074610B123E0A24221D92746214630467E
:104A0000FFF7C2FE0446E0B101281CD0B0F1FF3F21
:104A10001BD0002239462846FFF734FE074670B9FE
:104A20006B69AA69911E8B42E5D201336B612B79C8
:104A300043F001032B71DEE7022700E0022738462E
:104A4000F8BD0027FBE70227F9E70127F7E72DE983
:104A5000F04706684569C369002B6CD00446884658
:104A60002035B5F5001F68D2C5F308073FB90133FB
:104A7000C361816979B93389B3EB551F07D9656182
:104A800006F134033B4423620020BDE8F087002395
:104A9000C3610420F9E77389013B13EA5529EED17C
:104AA000FFF772FE8246012849D9B0F1FF3F48D096
:104AB000B369834237D8B8F1000F11D0A1692046FD
:104AC000FFF720FF824600283DD001283DD0B0F1FD
:104AD000FF3F3CD03046FFF7D6FB28B10120D4E79A
:104AE0000023E3610420D0E74FF40072002106F1B7
:104AF0003400FFF7A7F951463046FFF795FA3063C7
:104B0000738999450BD20123F3703046FFF7BBFB45
:104B1000F8B909F10109336B01333363F0E7336B03
:104B2000A3EB09033363C4F818A051463046FFF7DE
:104B30007BFAE061A3E70420A7E70420A5E70220B1
:104B4000A3E70120A1E707209FE702209DE70120BE
:104B50009BE7012099E7F8B504460E460768002157
:104B6000FFF77AFE0246C0B9002508E00135B542DC
:104B700013D001212046FFF76AFF024668B9E169B8
:104B80003846FFF7AAFB024638B9236A1B78E52BA3
:104B9000ECD0002BEAD00025EBE7042A01D0104628
:104BA000F8BD0722FBE700002DE9F04F83B0074670
:104BB0008A46D1F800900368DD680024234612E09D
:104BC000013619F806302F2BFAD05C2BF8D04E4462
:104BD000CAF800601F2823D84FF0040824E025F805
:104BE0001480013433465E1C19F803001F28EED9E7
:104BF0002F28E6D05C28E4D0FE2C00F2DE800121D4
:104C000001F038FA8046002800F0D9807F28E6D8E5
:104C100001466D48FFF728F90028E0D00620C6E0DD
:104C20004FF0000800E0013C44B104F10043013BB7
:104C300035F81330202BF6D02E2BF4D0002325F896
:104C40001430002C00F0BD800B22202107F124003D
:104C5000FFF7F8F8002300E0013335F81320202A8D
:104C6000FAD02E2AF8D01BB148F0030800E0013C2E
:104C70006CB104F10042013A35F812202E2AF6D127
:104C80004FF0080B4FF0000ACDF804A00AE0A2464E
:104C90004FF0080B0022019204E04C450BD048F085
:104CA00003084B4603F1010935F81360FEB1202ECD
:104CB000F5D02E2EF1D0DA4510D24C450ED07F2EF5
:104CC0003CD8002E49D148F003085F2607EB0A03C1
:104CD00083F824604B460AF1010AE3E7BBF10B0FAE
:104CE0001FD04C4501D048F003084C451CD297F822
:104CF0002430E52B4DD0BBF1080F4ED0019B03F0C3
:104D00000C020C2A4ED003F00303032B4AD018F0F8
:104D1000020F49D1012B4DD0042A45D148F0080893
:104D200042E048F00308E2E7019B9B00DBB20193FD
:104D300023464FF00B0B4FF0080AB3E70021304633
:104D400001F098F910B948F00208BCE7A0F180031F
:104D50001E4AD65C48F00208B3E731461C48FFF70C
:104D600083F80028AFD1A6F141039BB2192B04D8D8
:104D7000019B43F002030193A8E7A6F161039BB2F4
:104D8000192BA3D8019B43F001030193203EB6B237
:104D90009CE7052387F82430ADE7019B9B00DBB23D
:104DA0000193ABE748F0020887F82F80002003B09A
:104DB000BDE8F08F48F01008AEE70620F7E70620C0
:104DC000F5E70620F3E700BF5CF600085CFA000890
:104DD00068F600082DE9F04781460F4601F11A00F8
:104DE000FFF708F8C8BB3E7806F03F06013E06EB29
:104DF000460306EB83064FF00108002506E000207D
:104E00002CE04FF6FF7398422AD101350C2D18D8AB
:104E1000174B585D3844FEF7EDFF0446B8F1000F1C
:104E2000EFD0FE2EEBD801F043F9804606F1010ADF
:104E300039F8160001F03CF98045E0D1A04656460D
:104E4000E3E73B7813F0400F0CD0B8F1000F0BD024
:104E500039F8163053B9012000E00020BDE8F08792
:104E60000020FBE70120F9E70120F7E70020F5E744
:104E70004CFA00082DE9F8430446D0F800800021E0
:104E8000FFF7EAFC0646002864D14FF0FF332363A6
:104E90004FF0FF094F460AE04FF0FF332363FF272F
:104EA00000212046FFF7D3FD0646002852D1E169D4
:104EB0004046FFF712FA064600284BD1256A2B78A8
:104EC000002B46D0EA7A02F03F01A171E52BE3D036
:104ED00012F0080F14D00F29DED194F82F2012F011
:104EE000400FDDD113F0400F06D095F80D9003F080
:104EF000BF03626922631F46BB421AD0FF27CFE778
:104F00000F29EAD027B92846FFF763F9484521D091
:104F100094F82F3013F0010F06D10B2204F1240175
:104F20002846FEF794FFA8B14FF0FF332363FF2715
:104F3000B6E76B7B4B4501D0FF27B1E72946D8F890
:104F40000C00FFF747FF10B1013FFFB2A8E7FF27B2
:104F5000A6E704263046BDE8F88330B583B00446A2
:104F60000191056801E001330193019B1A782F2A12
:104F7000F9D05C2AF7D00022A2601B781F2B1ED923
:104F800001A92046FFF710FE034600BB2046FFF7AD
:104F900071FF94F82F200346E0B912F0040F16D1E8
:104FA000A37913F0100F1CD005F134016369C3F32A
:104FB000080319442846FFF754F8A060E0E780236F
:104FC00084F82F3011462046FFF746FC034618466A
:104FD00003B030BD0428FAD112F0040FF7D1052335
:104FE000F5E70523F3E700002DE9F04385B00668F7
:104FF00090F82F3013F0A00F40F08A80074600246D
:1050000000E00134F36833F81430002BF9D107F1D4
:1050100024080C22414601A8FEF70AFF9DF80F3034
:1050200013F0010F1CD0402387F82F30012500E03A
:105030000135632D0BD82B46F26801A94046FFF7D6
:1050400073F83846FFF716FF81460028F0D0642D2C
:1050500064D0B9F1040F5DD19DF80F3087F82F307F
:105060009DF80F3013F0020F06D00C342D4BA3FB2C
:105070000434A408013400E0012421463846FFF737
:105080006AFD8146002845D1013C1CD1B9F1000FD1
:1050900040D1F9693046FFF720F98146002839D11F
:1050A00020220021386AFEF7CDFE0B224146386AE5
:1050B000FEF7BEFE97F82F303A6A03F01803137319
:1050C0000123F37026E07969A1EB44113846FFF71C
:1050D000C3FB8146F0B94046FFF77BF80546F96906
:1050E0003046FFF7FAF881460028CFD12B46E2B2CE
:1050F000396AF068FEF7DCFF0123F37000213846BF
:10510000FFF7A5FC81460028C0D1013CE7D1BDE7EF
:105110004FF00609484605B0BDE8F0834FF0070997
:10512000F8E700BF4FECC44E70B50446FFF7ABF88C
:10513000054648B92378032B08D000221146607831
:1051400000F0C0FB00B10125284670BD2379012B7A
:10515000F3D104F134064FF4007200213046FEF71B
:1051600071FE4AF6552104F23220FEF753FE0F4934
:105170003046FEF753FE0E4904F50670FEF74EFE6C
:10518000616904F50770FEF749FE216904F50870AE
:10519000FEF744FE226A0132226301233146607821
:1051A00000F084FB00232371C7E700BF5252614126
:1051B0007272416170B584B00190009116460391FE
:1051C00003A8FFF716F8041E1CDB104B53F82450FD
:1051D00025B12846FEF70CFF00232B70019B0BB175
:1051E00000221A70019B094A42F8243063B1012E53
:1051F00002D0002004B070BD002201A96846FFF76C
:10520000C3F8F7E70B20F5E70020F3E79C0C00203C
:105210002DE9F04790B00191002800F01681144666
:10522000064602F03F073A4602A901A8FFF7ACF88C
:10523000054628B100233360284610B0BDE8F0874A
:10524000029B03934FF4007000F048FB8046002857
:1052500000F0FD80029BD860019903A8FFF77DFE56
:10526000054660B99DF93B30002B2FDB04F03E0171
:10527000003918BF012103A8FEF7FEFD054614F012
:105280001C0F78D085B3042D22D047F00807002DDD
:1052900040F0D28017F0080F31D1002D40F0CC80C3
:1052A00017F0080F01D047F04007029B1B6B736299
:1052B0000B9BB362012F94BF0021012103A8FEF7CD
:1052C00025FE3061002865D10225B5E00625D6E728
:1052D000FEF70CFE18B947F008071225DDE703A812
:1052E000FFF782FE0546D0E79DF8123013F0110F4C
:1052F00040F0A18014F0040FC9D008259CE0FEF70F
:1053000077FD044601460B980E30FEF787FD2146D7
:105310000B981630FEF782FD0B9B2022DA72DDF827
:105320000890DDF82CA051464846FEF79AFE044648
:10533000002251464846FEF7A7FE00210B981C307C
:10534000FEF76CFD029B0122DA70002CA5D0029BB7
:10535000D3F830900022214603A8FFF739FB054619
:10536000002869D149460298FEF7B7FF0546013C7F
:10537000029B1C6191E7002D5ED19DF8123013F065
:10538000100F60D114F0020F87D013F0010F84D0FA
:10539000072551E0DDF808900B9C21464846FEF7B2
:1053A00060FEB06004F11C00FEF729FDF0600021F2
:1053B000F162C6F80090B9F80630B38037757175A0
:1053C0003162B16106F130094FF400724846FEF7D0
:1053D00039FD17F0200F2FD0F4686CB3B461029B35
:1053E0005F897F02B16801E00225E41B65B9BC4218
:1053F0000AD93046FFF7C8F901460128F4D9B0F1BF
:10540000FF3FF2D10125F0E7F161ADB9C4F3080324
:1054100093B1029F3846FEF707FE08B902250BE05C
:1054200000EB5422326201234946787800F032FAC8
:1054300010B1012500E00725404600F053FA002D89
:105440003FF4FAAEF6E60425F6E70925F4E6112561
:10545000F2E62DE9F04F85B004460E461546984613
:105460000023C8F8003003A9FEF7EAFE01900028E7
:1054700049D1637D0193002B45D1237D13F0020FA9
:1054800000F0E280A369EB42C0F0B080DD43ADE004
:10549000E36A002B3BD02046FEF7D2FD002800F047
:1054A000CE80012838D0B0F1FF3F3CD0E061A36846
:1054B00003B9A06094F91430002B3BDBDDF80CB08D
:1054C000E1695846FEF7B0FD8146002847D0B9444F
:1054D0004FEA552AB5F5007F5DD307EB0A03BBF809
:1054E0000A20934201D9A2EB070A53464A463146A5
:1054F0009BF8010000F0DAF9C0B34FF0010A84F81C
:1055000015A0CDF804A0019805B0BDE8F08FE169C1
:105510002046FFF7F7F9C1E74FF0020A84F815A01B
:10552000CDF804A0EFE74FF0010A84F815A0CDF8FC
:1055300004A0E8E70123226A04F1300103984078CF
:1055400000F0B4F920B9237D03F07F032375B5E79C
:105550004FF0010A84F815A0CDF804A0D3E74FF06E
:10556000020A84F815A0CDF804A0CCE7216AA1EBCB
:105570000901514502D34FEA4A2728E04FF400724F
:1055800006EB412104F13000FEF752FC237D03F0CD
:105590007F032375EFE7236A4B4503D0A269E368D5
:1055A0009A423BD3C4F82090A369C3F30803C3F520
:1055B0000077BD4200D22F4604F130003A46314612
:1055C0001844FEF735FC237D63F07F0323753E44CA
:1055D000A3693B44A361E268934238BF1346E3608A
:1055E000D8F800303B44C8F80030ED1B3DB3A1694A
:1055F000C1F30803002BD7D1039B5F89013F17EA52
:1056000051277FF457AF00297FF442AFA0680028EC
:105610007FF447AF2046FFF775F93FE701234A467D
:1056200004F130019BF8010000F034F90028B9D0F2
:105630004FF0010A84F815A0CDF804A063E7237D9C
:1056400043F0400323755EE7072301935BE770B5E2
:1056500082B0044601A9FEF7F3FD70B9237D13F073
:10566000400F0AD013F0800F09D1FEF7C1FB0546A9
:10567000616A0198FEF731FE78B102B070BD012376
:10568000226A04F130010198407800F00FF940BB24
:10569000237D03F07F032375E7E7A66AF37A43F0DF
:1056A0002003F372A26831462068FEF7EDFCE16842
:1056B00006F11C00FEF7B2FB294606F11600FEF7C4
:1056C000ADFB002106F11200FEF7A4FB019B0122B5
:1056D000DA700198FFF728FD237D23F0400323753E
:1056E000CBE70120C9E710B582B00446FFF7AFFF52
:1056F00008B102B010BD01A92046FEF7A1FD0028A7
:10570000F7D12069FEF754FC0028F2D12060F0E7C1
:105710002DE9F04788B0019088461446002207A979
:1057200001A8FEF731FE8146002859D1079B23606E
:105730005A699D69A91E8A4202D8C8F800204FE024
:105740001E78012E05D0D3F824A000242646274633
:105750002FE002930224002704E00134079B9B6999
:10576000A34235D9214602A8FFF70EF8B0F1FF3F5A
:105770002DD0012838D00028EFD10137EDE70AF10C
:10578000010651460798FEF7A8FD814600BB079C1D
:105790003434B2464FF400760DE02046FEF72AFB83
:1057A00000B901370234023E01E00434043E013DF9
:1057B0000ED0002EE3D0079B1B78022BEDD02046A5
:1057C000FEF71DFB30F07043EFD10137EDE7B14636
:1057D000C8F80070079B5F611A7942F001021A71E4
:1057E000484608B0BDE8F0874FF00209F0E7000036
:1057F000134B5B7A13BB10B5044603F0FF00104B4C
:1058000093F809C05FFA8CFC4FF0000E03F80CE02F
:1058100093F809C003EB8C0CCCF804405C7A1C4470
:1058200022725A7A541CE4B25C7230320A703A2303
:105830004B702F238B7081F803E010BD012070475F
:10584000A00C002008B50022FFF7D2FF08BD000021
:1058500008B5044B03EB8002526852680344187A7F
:10586000904708BDA00C0020094B1B5C73B910B514
:105870000446074B03EB8002526812680344187A0F
:10588000904710B9024B01221A5510BD00207047F5
:10589000A00C002038B5044C04EB80056D68AD68A1
:1058A0000444207AA84738BDA00C002038B5044C29
:1058B00004EB80056D68ED680444207AA84738BD84
:1058C000A00C002010B5044B03EB8004646824692D
:1058D0000344187AA04710BDA00C002008B500F0C2
:1058E000B1FD08BD08B500F0B5FD08BD00B97047B1
:1058F000012070470346A8B9032915D8DFE801F055
:105900000209040E084670474FF4007111801846D2
:1059100070474FF4803111601846704701211160C3
:1059200018467047042070470420704708B10120D2
:10593000704708B5044801F0CFF900F053F900387A
:1059400018BF012008BD00BF70F6000870B98C4672
:1059500011461A4663B108B5074B1B7853B1604630
:1059600000F07EFA003818BF012008BD04207047FF
:10597000042070470320F8E7E40E002070B98C463D
:1059800011461A4663B108B5074B1B7853B1604600
:1059900000F01AFB003818BF012008BD0420704732
:1059A000042070470320F8E7E40E002000B583B020
:1059B00001AA69460B48FFF7ABFE10B103B05DF8D2
:1059C00004FB019B996902395A8902FB01F1009B92
:1059D00003FB02F252084908034801F00BF90020CA
:1059E000ECE700BFE00E002078F6000810B5214873
:1059F00001F072F920492148FFF724FFC8B9204877
:105A000001F06AF90020FFF72FFF0146B0B91A4CE8
:105A100021461C4801F0EEF8012221461A48FFF702
:105A2000C9FB0146A8B10446184801F0E3F8204636
:105A300010BD174801F050F90124F8E7154801F0AE
:105A4000D9F8154801F048F9144801F045F9032444
:105A5000EDE72146124801F0CDF800F0BDF838B16D
:105A60001049114801F0C6F8FFF7A0FF0024DEE757
:105A70000E49F6E7B0F60008E00E0020DCFA000858
:105A8000E0F6000808F80008AC0C00205CF80008FC
:105A9000C8F60008F8F6000818F7000850F70008E4
:105AA00024F800089CF600084CF80008A8F6000846
:105AB00010B5012206490020FFF77CFB044628B9F7
:105AC0000449054801F096F8204610BD0349F8E75F
:105AD000E00E00207CF8000888F8000880F8000834
:105AE00000B585B0FF238DF80F3000238DF80E3000
:105AF0004FF0FF33009301230DF10E020DF10F0162
