:020000040800F2
:10000000000001209D1B0008E9160008EB160008FF
:10001000ED160008EF160008F116000800000000B9
:10002000000000000000000000000000F3160008BF
:10003000F516000800000000F7160008F916000881
:10004000ED1B0008ED1B0008ED1B0008ED1B000870
:10005000ED1B0008ED1B000801170008ED1B000850
:10006000ED1B0008ED1B0008ED1B0008ED1B000850
:10007000ED1B0008ED1B0008ED1B0008ED1B000840
:10008000ED1B0008ED1B0008ED1B00080000000040
:10009000000000000000000000000000ED1B000850
:1000A000ED1B0008ED1B00080D170008ED1B0008F4
:1000B00025170008ED1B0008ED1B0008ED1B0008CC
:1000C000ED1B0008ED1B0008ED1B000835170008AC
:1000D000ED1B0008ED1B0008ED1B000800000000F0
:1000E000ED1B0008ED1B0008ED1B000800000000E0
:1000F000000000000000000000000000ED1B0008F0
:1001000000000000ED1B0008ED1B0008ED1B0008BF
:1001100000000000000000000000000000000000DF
:10012000ED1B0008ED1B0008ED1B0008ED1B00088F
:10013000ED1B0008000000000000000000000000AF
:10014000000000000000000000000000ED1B00089F
:10015000ED1B0008ED1B0008ED1B0008ED1B00085F
:10016000ED1B0008ED1B000800000000000000006F
:10017000000000000000000000000000000000007F
:1001800000000000ED1B000800000000000000005F
:04019000ED1B00085B
:1001C00081F0004102E000BF83F0004330B54FEA08
:1001D00041044FEA430594EA050F08BF90EA020F75
:1001E0001FBF54EA000C55EA020C7FEA645C7FEA08
:1001F000655C00F0E2804FEA5454D4EB5555B8BF2B
:100200006D420CDD2C4480EA020281EA030382EA9B
:10021000000083EA010180EA020281EA0303362D2D
:1002200088BF30BD11F0004F4FEA01314FF4801C00
:100230004CEA113102D0404261EB410113F0004F12
:100240004FEA03334CEA133302D0524263EB4303C9
:1002500094EA050F00F0A780A4F10104D5F1200E67
:100260000DDB02FA0EFC22FA05F2801841F10001C2
:1002700003FA0EF2801843FA05F359410EE0A5F196
:1002800020050EF1200E012A03FA0EFC28BF4CF0C7
:10029000020C43FA05F3C01851EBE37101F000457D
:1002A00007D54FF0000EDCF1000C7EEB00006EEB8A
:1002B0000101B1F5801F1BD3B1F5001F0CD3490814
:1002C0005FEA30004FEA3C0C04F101044FEA44526B
:1002D00012F5800F80F09A80BCF1004F08BF5FEAF2
:1002E000500C50F1000041EB045141EA050130BDD2
:1002F0005FEA4C0C404141EB0101013C28BFB1F5E4
:10030000801FE9D291F0000F04BF01460020B1FA2E
:1003100081F308BF2033A3F10B03B3F120020CDA01
:100320000C3208DD02F1140CC2F10C0201FA0CF0DF
:1003300021FA02F10CE002F11402D8BFC2F1200C44
:1003400001FA02F120FA0CFCDCBF41EA0C019040FA
:10035000E41AA2BF01EB0451294330BD6FEA040443
:100360001F3C1CDA0C340EDC04F11404C4F120022E
:1003700020FA04F001FA02F340EA030021FA04F340
:1003800045EA030130BDC4F10C04C4F1200220FA97
:1003900002F001FA04F340EA0300294630BD21FAD5
:1003A00004F0294630BD94F0000F83F4801306BF9B
:1003B00081F480110134013D4EE77FEA645C18BF8F
:1003C0007FEA655C29D094EA050F08BF90EA020F26
:1003D00005D054EA000C04BF1946104630BD91EA1E
:1003E000030F1EBF0021002030BD5FEA545C05D121
:1003F0004000494128BF41F0004130BD14F5800460
:100400003CBF01F5801130BD01F0004545F0FE41D3
:1004100041F470014FF0000030BD7FEA645C1ABF08
:10042000194610467FEA655C1CBF0B46024650EA3F
:10043000013406BF52EA033591EA030F41F400216B
:1004400030BD00BF90F0000F04BF0021704730B5F1
:100450004FF4806404F132044FF000054FF00001C6
:1004600050E700BF90F0000F04BF0021704730B587
:100470004FF4806404F1320410F0004548BF40425C
:100480004FF000013EE700BF42004FEAE2014FEAB1
:1004900031014FEA02701FBF12F07F4393F07F4F8C
:1004A00081F06051704732F07F4208BF704793F08F
:1004B0007F4F04BF41F40021704730B54FF46074A2
:1004C00001F0004521F000411CE700BF50EA0102A5
:1004D00008BF704730B54FF000050AE050EA01024E
:1004E00008BF704730B511F0004502D5404261EBBE
:1004F00041014FF4806404F132045FEA915C3FF4FF
:10050000D8AE4FF003025FEADC0C18BF03325FEA9B
:10051000DC0C18BF033202EBDC02C2F1200300FA4C
:1005200003FC20FA02F001FA03FE40EA0E0021FA71
:1005300002F11444BDE600BF80F0004002E000BFBD
:1005400081F0004142001FBF5FEA410392EA030FBE
:100550007FEA226C7FEA236C6AD04FEA1262D2EB08
:100560001363C1BFD218414048404140B8BF5B420D
:10057000192B88BF704710F0004F40F4000020F0A6
:100580007F4018BF404211F0004F41F4000121F0BC
:100590007F4118BF494292EA030F3FD0A2F1010206
:1005A00041FA03FC10EB0C00C3F1200301FA03F144
:1005B00000F0004302D5494260EB4000B0F5000F67
:1005C00013D3B0F1807F06D340084FEA310102F126
:1005D0000102FE2A51D2B1F1004F40EBC25008BFD8
:1005E00020F0010040EA03007047490040EB0000A2
:1005F000013A28BFB0F5000FEDD2B0FA80FCACF1A3
:10060000080CB2EB0C0200FA0CF0AABF00EBC250CF
:1006100052421843BCBFD0401843704792F0000FBD
:1006200081F4000106BF80F400000132013BB5E710
:100630004FEA41037FEA226C18BF7FEA236C21D086
:1006400092EA030F04D092F0000F08BF08467047EB
:1006500090EA010F1CBF0020704712F07F4F04D1B9
:10066000400028BF40F00040704712F100723CBFCC
:1006700000F50000704700F0004343F0FE4040F4F6
:10068000000070477FEA226216BF08467FEA2363B4
:100690000146420206BF5FEA412390EA010F40F49F
:1006A000800070474FF0000304E000BF10F00043EB
:1006B00048BF40425FEA000C08BF704743F09643D2
:1006C00001464FF000001CE050EA010208BF7047ED
:1006D0004FF000030AE000BF50EA010208BF704774
:1006E00011F0004302D5404261EB41015FEA010C89
:1006F00002BF84460146002043F0B64308BFA3F181
:100700008053A3F50003BCFA8CF2083AA3EBC25362
:1007100010DB01FA02FC634400FA02FCC2F1200281
:10072000BCF1004F20FA02F243EB020008BF20F0B8
:100730000100704702F1200201FA02FCC2F120021E
:1007400050EA4C0021FA02F243EB020008BF20EA13
:10075000DC7070474FF0FF0C1CEAD0521EBF1CEA41
:10076000D15392EA0C0F93EA0C0F6FD01A4480EA2F
:10077000010C400218BF5FEA41211ED04FF0006318
:1007800043EA501043EA5111A0FB01310CF0004044
:10079000B1F5000F3EBF490041EAD3715B0040EA6A
:1007A000010062F17F02FD2A1DD8B3F1004F40EB3A
:1007B000C25008BF20F00100704790F0000F0CF00D
:1007C000004C08BF49024CEA502040EA51207F3AD1
:1007D000C2BFD2F1FF0340EAC250704740F40000AC
:1007E0004FF00003013A5DDC12F1190FDCBF00F09D
:1007F00000407047C2F10002410021FA02F1C2F14B
:10080000200200FA02FC5FEA310040F1000053EAE6
:100810004C0308BF20EADC70704792F0000F00F034
:10082000004C02BF400010F4000F013AF9D040EA3A
:100830000C0093F0000F01F0004C02BF490011F4CE
:10084000000F013BF9D041EA0C018FE70CEAD153CC
:1008500092EA0C0F18BF93EA0C0F0AD030F0004C4C
:1008600018BF31F0004CD8D180EA010000F0004000
:10087000704790F0000F17BF90F0004F084691F0BE
:10088000000F91F0004F14D092EA0C0F01D14202F8
:100890000FD193EA0C0F03D14B0218BF084608D1C1
:1008A00080EA010000F0004040F0FE4040F400000B
:1008B000704740F0FE4040F4400070474FF0FF0C9E
:1008C0001CEAD0521EBF1CEAD15392EA0C0F93EAE5
:1008D0000C0F69D0A2EB030280EA010C49024FEA37
:1008E000402037D04FF0805343EA111143EA1013F0
:1008F0000CF000408B4238BF5B0042F17D024FF4A8
:10090000000C8B4224BF5B1A40EA0C00B3EB510F82
:1009100024BFA3EB510340EA5C00B3EB910F24BF6B
:10092000A3EB910340EA9C00B3EBD10F24BFA3EBF0
:10093000D10340EADC001B0118BF5FEA1C1CE0D1B8
:10094000FD2A3FF650AF8B4240EBC25008BF20F06B
:10095000010070470CF0004C4CEA50207F32C2BFBF
:10096000D2F1FF0340EAC250704740F400004FF05C
:100970000003013A37E792F0000F00F0004C02BF8D
:10098000400010F4000F013AF9D040EA0C0093F057
:10099000000F01F0004C02BF490011F4000F013BB1
:1009A000F9D041EA0C0195E70CEAD15392EA0C0F19
:1009B00008D142027FF47DAF93EA0C0F7FF470AF51
:1009C000084676E793EA0C0F04D14B023FF44CAF94
:1009D00008466EE730F0004C18BF31F0004CCAD129
:1009E00030F000427FF45CAF31F000437FF43CAF65
:1009F0005FE700BF53B94AB9002908BF00281CBFF0
:100A00004FF0FF314FF0FF3000F00CB8ADF1080CA3
:100A10006DE904CE03F0DEFEDDF804E0DDE902233B
:100A200004B07047704700BF0000000000000000E5
:100A300000000000000000000000000000000000B6
:100A400030B490F800F020F007016FF0000C10F0C7
:100A5000070491F820F040F048804FF000046FF058
:100A60000700D1E9002391F840F000F1080082FA74
:100A70004CF2A4FA8CF283FA4CF3A2FA8CF34BBB3F
:100A8000D1E9022382FA4CF200F10800A4FA8CF2B8
:100A900083FA4CF3A2FA8CF3E3B9D1E9042382FA86
:100AA0004CF200F10800A4FA8CF283FA4CF3A2FA9B
:100AB0008CF37BB9D1E9062301F1200182FA4CF2D3
:100AC00000F10800A4FA8CF283FA4CF3A2FA8CF33A
:100AD000002BC6D0002A04BF04301A4612BAB2FA5C
:100AE00082F200EBD20030BC7047D1E9002304F061
:100AF0000305C4F100004FEAC50514F0040F91F896
:100B000040F00CFA05F562EA05021CBF63EA050332
:100B100062464FF00004AAE7000000000000000059
:100B200001F0FF01102A2BDB10F0070F08D010F89E
:100B3000013B013A8B422DD010F0070F42B3F6D1A2
:100B4000F0B441EA012141EA014122F007047FF0BB
:100B500000070023F0E80256083C85EA010586EA12
:100B6000010685FA47F5A3FA87F586FA47F6A5FA4E
:100B700087F68EB9EED1F0BC01F0FF0102F007025A
:100B800032B110F8013B013A83EA010313B1F8D105
:100B90000020704701387047002D06BF35460338E6
:100BA000073815F0010F07D1013015F4807F02BF1F
:100BB000013015F4C03F0130F0BC0138704700BF70
:100BC000844641EA000313F003036DD1403A41D358
:100BD00051F8043B40F8043B51F8043B40F8043B17
:100BE00051F8043B40F8043B51F8043B40F8043B07
:100BF00051F8043B40F8043B51F8043B40F8043BF7
:100C000051F8043B40F8043B51F8043B40F8043BE6
:100C100051F8043B40F8043B51F8043B40F8043BD6
:100C200051F8043B40F8043B51F8043B40F8043BC6
:100C300051F8043B40F8043B51F8043B40F8043BB6
:100C400051F8043B40F8043B51F8043B40F8043BA6
:100C5000403ABDD2303211D351F8043B40F8043B46
:100C600051F8043B40F8043B51F8043B40F8043B86
:100C700051F8043B40F8043B103AEDD20C3205D356
:100C800051F8043B40F8043B043AF9D2043208D04E
:100C9000D2071CBF11F8013B00F8013B01D30B88C0
:100CA00003806046704700BF082A13D38B078DD09E
:100CB00010F003038AD0C3F10403D21ADB071CBF70
:100CC00011F8013B00F8013B80D331F8023B20F8DA
:100CD000023B7BE7043AD9D3013A11F8013B00F813
:100CE000013BF9D20B7803704B7843708B7883709B
:100CF0006046704770B54FF0FF0C4CF4E06C1CEA96
:100D000011541DBF1CEA135594EA0C0F95EA0C0F01
:100D100000F0DEF82C4481EA030621EA4C5123EA74
:100D20004C5350EA013518BF52EA033541F48011A3
:100D300043F4801338D0A0FB02CE4FF00005E1FB56
:100D400002E506F00042E0FB03E54FF00006E1FBA0
:100D500003569CF0000F18BF4EF0010EA4F1FF04E3
:100D6000B6F5007F64F5407404D25FEA4E0E6D4123
:100D700046EB060642EAC62141EA55514FEAC52034
:100D800040EA5E504FEACE2EB4F1FD0C88BFBCF5B0
:100D9000E06F1ED8BEF1004F08BF5FEA500E50F161
:100DA000000041EB045170BD06F0004646EA010127
:100DB00040EA020081EA0301B4EB5C04C2BFD4EB59
:100DC0000C0541EA045170BD41F480114FF0000E52
:100DD000013C00F3AB8014F1360FDEBF002001F0C0
:100DE000004170BDC4F10004203C35DA0C341BDC3A
:100DF00004F11404C4F1200500FA05F320FA04F00C
:100E000001FA05F240EA020001F0004221F000413F
:100E100010EBD37021FA04F642EB06015EEA430EB2
:100E200008BF20EAD37070BDC4F10C04C4F12005E2
:100E300000FA04F320FA05F001FA04F240EA020095
:100E400001F0004110EBD37041F100015EEA430E66
:100E500008BF20EAD37070BDC4F1200500FA05F286
:100E60004EEA020E20FA04F301FA05F243EA020305
:100E700021FA04F001F0004121FA04F220EA020014
:100E800000EBD3705EEA430E08BF20EAD37070BD5A
:100E900094F0000F0FD101F00046400041EB01013A
:100EA00011F4801F08BF013CF7D041EA060195F01C
:100EB000000F18BF704703F00046520043EB0303D6
:100EC00013F4801F08BF013DF7D043EA06037047C3
:100ED00094EA0C0F0CEA135518BF95EA0C0F0CD0CE
:100EE00050EA410618BF52EA4306D1D181EA030114
:100EF00001F000414FF0000070BD50EA410606BF0E
:100F00001046194652EA430619D094EA0C0F02D152
:100F100050EA013613D195EA0C0F05D152EA033697
:100F20001CBF104619460AD181EA030101F00041B5
:100F300041F0FE4141F470014FF0000070BD41F0FE
:100F4000FE4141F4780170BD70B54FF0FF0C4CF4D8
:100F5000E06C1CEA11541DBF1CEA135594EA0C0FF7
:100F600095EA0C0F00F0A7F8A4EB050481EA030E44
:100F700052EA03354FEA013100F088804FEA03332B
:100F80004FF0805545EA131343EA12634FEA0222F9
:100F900045EA111545EA10654FEA00260EF00041BA
:100FA0009D4208BF964244F1FD0404F5407402D20C
:100FB0005B084FEA3202B61A65EB03055B084FEA9D
:100FC00032024FF480104FF4002CB6EB020E75EB9A
:100FD000030E22BFB61A754640EA0C005B084FEAC2
:100FE0003202B6EB020E75EB030E22BFB61A75463F
:100FF00040EA5C005B084FEA3202B6EB020E75EB8A
:10100000030E22BFB61A754640EA9C005B084FEA01
:101010003202B6EB020E75EB030E22BFB61A75460E
:1010200040EADC0055EA060E18D04FEA051545EAFD
:1010300016754FEA06164FEAC30343EA52734FEAA6
:10104000C2025FEA1C1CC0D111F4801F0BD141EA1F
:1010500000014FF000004FF0004CB6E711F4801F84
:1010600004BF01430020B4F1FD0C88BFBCF5E06F64
:101070003FF6AFAEB5EB030C04BFB6EB020C5FEA74
:10108000500C50F1000041EB045170BD0EF0004EC9
:101090004EEA113114EB5C04C2BFD4EB0C0541EAFB
:1010A000045170BD41F480114FF0000E013C90E6F8
:1010B00045EA060E8DE60CEA135594EA0C0F08BFBC
:1010C00095EA0C0F3FF43BAF94EA0C0F0AD150EABB
:1010D00001347FF434AF95EA0C0F7FF425AF10464E
:1010E00019462CE795EA0C0F06D152EA03353FF476
:1010F000FDAE1046194622E750EA410618BF52EAF3
:1011000043067FF4C5AE50EA41047FF40DAF52EAC6
:1011100043057FF4EBAE12E74FF0FF3C06E000BF63
:101120004FF0010C02E000BF4FF0010C4DF804CD70
:101130004FEA410C7FEA6C5C4FEA430C18BF7FEA30
:101140006C5C1BD001B050EA410C0CBF52EA430C5E
:1011500091EA030F02BF90EA020F0020704710F1DE
:10116000000F91EA030F58BF994208BF90422CBF6D
:10117000D8176FEAE37040F0010070474FEA410C66
:101180007FEA6C5C02D150EA013C07D14FEA430C84
:101190007FEA6C5CD6D152EA033CD3D05DF8040BF5
:1011A000704700BF8446104662468C461946634627
:1011B00000E000BF01B5FFF7B7FF002848BF10F1FE
:1011C000000F01BD4DF808EDFFF7F4FF0CBF012043
:1011D00000205DF808FB00BF4DF808EDFFF7EAFFBF
:1011E00034BF012000205DF808FB00BF4DF808ED7A
:1011F000FFF7E0FF94BF012000205DF808FB00BF6F
:101200004DF808EDFFF7CEFF94BF012000205DF8F8
:1012100008FB00BF4DF808EDFFF7C4FF34BF012005
:1012200000205DF808FB00BF4FEA410C7FEA6C5CD0
:1012300002D150EA013C0AD14FEA430C7FEA6C5CD0
:1012400002D152EA033C02D14FF0000070474FF048
:10125000010070474FEA410212F5001215D211D574
:101260006FF47873B3EB625212D94FEAC12343F0A3
:10127000004343EA505311F0004F23FA02F018BF25
:10128000404270474FF00000704750EA013005D1EE
:1012900011F0004008BF6FF0004070474FF00000B1
:1012A000704700BF0348044B834202D0034B03B195
:1012B00018477047E0060020E0060020000000000C
:1012C0000548064B1B1AD90F01EBA301491002D0A8
:1012D000034B03B118477047E0060020E0060020EA
:1012E0000000000010B5064C237843B9FFF7DAFF81
:1012F000044B13B10448AFF300800123237010BDE9
:10130000E00600200000000044DD000808B5054BA1
:101310001BB105490548AFF30080BDE80840FFF761
:10132000CFBF00BF00000000E406002044DD00083D
:101330002DE9F0438BB005AD002405940694079485
:101340000894099401943D4B1A6B42F004021A630D
:101350001A6B02F004020192019A02941A6B42F095
:1013600080021A631A6B02F080020292029A0394BE
:101370001A6B42F001021A631A6B02F00102039227
:10138000039A04941A6B42F002021A631B6B03F077
:1013900002030493049BDFF8A89022464FF4005107
:1013A000484600F008FEDFF89C80224642F2060123
:1013B000404600F000FE244F22464FF4807138462C
:1013C00000F0F9FD4FF400530593012606960794AB
:1013D00008942946484600F0FFFC03230593069431
:1013E00007962946384600F0F7FC05964FF404139B
:1013F000069307962946404600F0EEFC42F20603AB
:1014000005930696079408942946404600F0E4FCAC
:101410004FF480730593069607940894294638463E
:1014200000F0DAFC22462146062000F09BFC062054
:1014300000F0A8FC0BB0BDE8F08300BF003802400C
:1014400000080240000402400000024072B6FEE7BD
:1014500010B594B008AC30220021204603F0EAFF1A
:101460000023039304930593069307930193204A63
:10147000116C41F080511164126C02F080520192A3
:10148000019A02931B4A136823F4404343F4004338
:101490001360136803F440430293029B01230893F3
:1014A0004FF48033099302230E934FF480020F927E
:1014B00019221092A822119212930423139320460A
:1014C00000F096FD78B90F230393022104910023C5
:1014D00005934FF480520692079303A800F0D8FFBB
:1014E00018B914B010BDFFF7B1FFFFF7AFFF00BF91
:1014F000003802400070004008B500F09FFBFFF785
:10150000A7FFFFF715FF00F025F800F0F3FA00F051
:1015100055FA00F0A3F900F019FA00F065F900F0AF
:101520003BF80A4B4022C3F88020BFF34F8FBFF334
:101530006F8F02F0C7FC4FF40051054800F041FDE9
:101540004FF47A7000F0A6FBF5E700BF00E100E081
:101550000008024008B50E480E4B03604FF482733A
:10156000436000238360C3600361012242614FF442
:10157000007282612822C2610362436283620A238D
:10158000C36201F045F900B908BDFFF75FFFFBE753
:10159000540700200030014008B50E480E4B036090
:1015A0004FF48273436000238360C360036143612F
:1015B0004FF4007282611022C2610362436283624F
:1015C0000A23C36201F024F900B908BDFFF73EFF0A
:1015D000FBE700BFFC0600200038004010B58AB0D1
:1015E00000230593069307930893099303682B4AF6
:1015F000934204D02A4A93422CD00AB010BD002452
:101600000194284B5A6C42F480525A645A6C02F48A
:1016100080520192019A02941A6B42F001021A63FD
:101620001B6B03F001030293029BE023059302234B
:101630000693032308930523099305A91A4800F08C
:10164000CBFB22462146232000F08CFB232000F018
:1016500099FBD2E700210391124B1A6C42F48042AD
:101660001A641A6C02F480420392039A04911A6B72
:1016700042F002021A631B6B03F002030493049B03
:101680004FF4444305930223069303230893052351
:10169000099305A9054800F09FFBAEE70030014023
:1016A00000380040003802400000024000040240C0
:1016B00082B0002100910B4B5A6C42F480425A6474
:1016C0005A6C02F480420092009A01911A6C42F026
:1016D00080521A641B6C03F080530193019B02B08B
:1016E000704700BF00380240FEE7FEE7FEE7FEE776
:1016F000FEE770477047704708B500F0B9FA08BDBB
:1017000008B5012000F066FC08BD000008B50348DC
:1017100001F051FD024801F04EFD08BD880800208F
:10172000B007002008B5024801F045FD08BD00BF24
:101730004008002008B5024801F098FB08BD00BF32
:10174000540700200120704708B503F05BFF162303
:1017500003604FF0FF3008BD08B54FF0FF31FFF7D1
:10176000F3FFFEE770B50C461646002506E0AFF322
:101770000080214601F8010B01350C46B542F6DB2D
:10178000304670BD4FF0FF3070474FF400534B6050
:1017900000207047012070470020704710B50346B5
:1017A0000C4A0D490D48006840B10C4800680344DC
:1017B000521A934206D8094A136010BD0748084CD4
:1017C0000460F2E703F01EFF0C2303604FF0FF30CC
:1017D000F3E700BF0000012000140000AC07002068
:1017E000B80E00207047000000B587B000230293B8
:1017F000039304930593009301931648164A0260DD
:1018000053224260836040F2E732C2600361436169
:101810008023836101F0D0FD90B94FF4805302938F
:1018200002A90C4801F0C8FE68B900230093019397
:101830006946084802F0FCF840B907B05DF804FBBF
:10184000FFF704FEE9E7FFF701FEEEE7FFF7FEFD15
:10185000F3E700BF880800200000014000B591B008
:1018600000230C930D930E930F9307930893099302
:101870000A930B93059306930193029303930493A6
:1018800031484FF0804202605322426083604FF63D
:10189000FF72C26003618023836101F08DFD002827
:1018A0003CD14FF480530C930CA9274801F084FEDF
:1018B000002836D1244801F0ABFD002834D10423A0
:1018C000079350230893002309930B9307A91E48FD
:1018D00001F04DFF58BB00230593069305A91A4854
:1018E00002F0A6F830BB002201920123029303927A
:1018F0000A23049301A9144801F0ECFDE8B902237E
:10190000019302930023049304220DEB02010E487D
:1019100001F0E0FDA0B911B05DF804FBFFF796FD02
:10192000BFE7FFF793FDC5E7FFF790FDC7E7FFF7B8
:101930008DFDD0E7FFF78AFDD5E7FFF787FDDEE7EE
:10194000FFF784FDE7E700BF4008002000B587B03F
:101950000023029303930493059300930193154886
:10196000154A02604360836040F2E732C26003615F
:10197000836101F021FD98B94FF48053029302A9CD
:101980000C4801F019FE70B9202300930023019345
:101990006946084802F04CF840B907B05DF804FB0E
:1019A000FFF754FDE8E7FFF751FDEDE7FFF74EFDC8
:1019B000F3E700BFF80700200004004008B50A481C
:1019C0000A4B0360532343600023836040F2E732F5
:1019D000C26003618023836101F0EEFC00B908BDA1
:1019E000FFF734FDFBE700BFB007002000480140CF
:1019F00010B58AB0002305930693079308930993C3
:101A00000368374A93420AD0B3F1804F1BD0354A5E
:101A1000934243D0344A93424DD00AB010BD0021C6
:101A20000091324B5A6C42F001025A645B6C03F035
:101A300001030093009B0A461A2000F093F91A2034
:101A400000F0A0F9E9E70024019403F50E331A6CC5
:101A500042F001021A641A6C02F001020192019A2A
:101A600002941A6B42F001021A631B6B03F001032C
:101A70000293029B4FF40043059302230693012334
:101A8000099305A91A4800F0A7F9224621461C200F
:101A900000F068F91C2000F075F9BEE700230393FD
:101AA000124B1A6C42F002021A641B6C03F0020320
:101AB0000393039BB1E7002104910C4B5A6C42F451
:101AC00080225A645B6C03F480230493049B0A46CF
:101AD0001A2000F047F91A2000F054F99DE700BFE2
:101AE000000001400004004000480140003802406E
:101AF0000000024008B50A480A4B03604FF4E13386
:101B0000436000238360C36003610C2242618361F0
:101B1000C36102F0C6F800B908BDFFF797FCFBE708
:101B2000D00800200010014000B589B000230393C5
:101B30000493059306930793026803F1804303F52A
:101B400088339A4202D009B05DF804FB002101916C
:101B500003F594335A6C42F010025A645A6C02F046
:101B600010020192019A02911A6B42F001021A636B
:101B70001B6B03F001030293029B4FF4C0630393BA
:101B800002230493032306930723079303A9024820
:101B900000F022F9D7E700BF00000240DFF834D0A0
:101BA000FFF720FE0C480D490D4A002302E0D458EF
:101BB000C4500433C4188C42F9D30A4A0A4C002397
:101BC00001E013600432A242FBD303F021FDFFF7D2
:101BD00093FC70470000012000000020E006002078
:101BE000D4E10008E0060020B40E0020FEE700006B
:101BF00010B504460E4B1A784FF47A73B3FBF2F328
:101C00000C4A1068B0FBF3F000F0C0F868B90F2C74
:101C100001D901200AE0002221464FF0FF3000F0F8
:101C2000A1F8054B1C60002000E0012010BD00BFA2
:101C300004000020000000200800002008B50B4B25
:101C40001A6842F400721A601A6842F480621A60DC
:101C50001A6842F480721A60032000F071F80F20B5
:101C6000FFF7C6FFFFF724FD002008BD003C02403F
:101C7000034A1168034B1B780B441360704700BF85
:101C80001809002004000020014B1868704700BFAD
:101C90001809002038B50446FFF7F6FF0546B4F1F1
:101CA000FF3F02D0044B1B781C44FFF7EDFF401BA5
:101CB000A042FAD338BD00BF04000020002807DB93
:101CC00000F01F02400901239340024A42F82030ED
:101CD000704700BF00E100E0002808DB0901C9B23D
:101CE00000F1604000F5614080F80013704700F09B
:101CF0000F000901C9B2014B1954704714ED00E0FF
:101D000000B500F00700C0F1070CBCF1040F28BFBC
:101D10004FF0040C031D062B0FD9C31E4FF0FF3EDE
:101D20000EFA0CF021EA000199400EFA03FE22EAB5
:101D30000E0241EA02005DF804FB0023EEE700001A
:101D4000074AD36823F4E0631B041B0C000200F471
:101D5000E060034343F0BF6343F40033D360704754
:101D600000ED00E010B50446054BD868C0F3022032
:101D7000FFF7C6FF01462046FFF7AEFF10BD00BFCC
:101D800000ED00E008B5FFF799FF08BD0138B0F19C
:101D9000807F0BD24FF0E0235861054AF02182F892
:101DA00023100020986107221A61704701207047B4
:101DB00000ED00E090F83530022B03D0802343651E
:101DC00001207047052380F835300268136823F03E
:101DD000010313600020704700230F2B00F2DA800C
:101DE00030B583B068E085684FEA430E032404FAF7
:101DF0000EF425EA0405CC6804FA0EF42C43846042
:101E0000446824EA02044A68C2F300129A4022435A
:101E100042605FE0DC08083450F8242003F0070536
:101E2000AD004FF00F0E0EFA05FE22EA0E0E0A6903
:101E3000AA4042EA0E0240F824205FE0042200E0BB
:101E4000002202FA0EF22A430234534D45F82420B0
:101E5000524A94686FEA0C0224EA0C05D1F804E0B7
:101E60001EF4801F01D04CEA04054C4CA560E468C8
:101E700002EA0405D1F804E01EF4001F01D04CEA88
:101E80000405464CE560646802EA0405D1F804E004
:101E90001EF4003F01D04CEA0405404C6560246804
:101EA00022404D6815F4803F01D04CEA04023B4CBF
:101EB000226001330F2B6BD801229A400C6804EA90
:101EC000020C32EA0404F4D14C6804F00304013C2F
:101ED000012C88D94A6802F00302032A09D0C46899
:101EE0005D000322AA4024EA02048A68AA40224331
:101EF000C2604A6802F00302022A8BD004684FEAEB
:101F0000430E032202FA0EF224EA02044A6802F0A7
:101F1000030202FA0EF2224302604A6812F4403FC2
:101F2000C7D0002201921E4A546C44F48044546489
:101F3000526C02F480420192019A9C08A51C164A38
:101F400052F8255003F0030E4FEA8E0E0F2202FACC
:101F50000EF225EA0205134A90423FF471AF02F5F2
:101F6000806290420ED002F5806290420CD002F561
:101F7000806290420AD002F5806290423FF45EAFE8
:101F800007225EE701225CE702225AE7032258E7B4
:101F900003B030BD704700BF00380140003C014035
:101FA00000380240000002400369194201D00120BC
:101FB0007047002070470AB1816170470904816150
:101FC0007047436901EA030221EA030141EA024141
:101FD0008161704708B5054B5B69034200D108BDBC
:101FE000024B586101F024FFF9E700BF003C0140BB
:101FF000002800F0E08170B582B00446036813F059
:10200000010F3BD09F4B9B6803F00C03042B2CD09B
:102010009C4B9B6803F00C03082B21D06368B3F53D
:10202000803F4FD0B3F5A02F52D0964B1A6822F4C0
:1020300080321A601A6822F480221A606368002BCA
:1020400050D0FFF721FE05468E4B1B6813F4003F6E
:1020500014D1FFF719FE401B6428F5D90320B1E124
:10206000884B5B6813F4800FD8D0864B1B6813F441
:10207000003F03D06368002B00F09F81236813F0BA
:10208000020F54D07F4B9B6813F00C0F3ED07D4B5A
:102090009B6803F00C03082B33D0E368002B68D057
:1020A000794B01221A60FFF7EFFD0546754B1B685F
:1020B00013F0020F54D1FFF7E7FD401B0228F5D9BA
:1020C00003207FE16F4A136843F480331360B5E760
:1020D0006C4B1A6842F480221A601A6842F480320B
:1020E0001A60ABE7FFF7D0FD0546664B1B6813F49B
:1020F000003FC3D0FFF7C8FD401B6428F5D903207B
:1021000060E1604B5B6813F4800FC6D15D4B1B68C8
:1021100013F0020F03D0E368012B40F05081594ABD
:10212000136823F0F803216943EAC10313602368AD
:1021300013F0080F42D063696BB3534B0122C3F80D
:10214000802EFFF7A1FD05464E4B5B6F13F0020F8B
:1021500034D1FFF799FD401B0228F5D9032031E166
:10216000484A136823F0F803216943EAC103136066
:10217000DDE7454B00221A60FFF786FD0546414B1F
:102180001B6813F0020FD2D0FFF77EFD401B022820
:10219000F5D9032016E13C4B0022C3F8802EFFF74F
:1021A00073FD0546374B5B6F13F0020F06D0FFF748
:1021B0006BFD401B0228F5D9032003E1236813F0CF
:1021C000040F77D02F4B1B6C13F0805F33D10023AB
:1021D00001932C4B1A6C42F080521A641B6C03F072
:1021E00080530193019B0125284B1B6813F4807FCA
:1021F00023D0A368012B34D0052B38D0214B1A6F84
:1022000022F001021A671A6F22F004021A67A3680B
:10221000002B3DD0FFF738FD06461A4B1B6F13F01D
:10222000020F46D1FFF730FD801B41F28833984200
:10223000F3D90320C6E00025D6E7144A136843F417
:1022400080731360FFF720FD0646104B1B6813F4E4
:10225000807FCED1FFF718FD801B0228F5D903201F
:10226000B0E0084A136F43F001031367CFE7054B53
:102270001A6F42F004021A671A6F42F001021A67DD
:10228000C5E700BF00380240000047420070004030
:10229000FFF7FAFC0646524B1B6F13F0020F08D0F3
:1022A000FFF7F2FC801B41F288339842F3D90320F8
:1022B00088E0EDB9A369002B00F08380484A92685A
:1022C00002F00C02082A51D0022B17D0454B0022F5
:1022D0001A66FFF7D9FC0446414B1B6813F0007FD8
:1022E00042D0FFF7D1FC001B0228F5D9032069E09A
:1022F0003B4A136C23F080531364DBE7394B002215
:102300001A66FFF7C1FC0546354B1B6813F0007FCA
:1023100006D0FFF7B9FC401B0228F5D9032051E095
:10232000E369226A1343626A43EA8213A26A52088B
:10233000013A43EA0243E26A43EA0263284A5360ED
:10234000284B01221A66FFF79FFC0446244B1B68AA
:1023500013F0007F06D1FFF797FC001B0228F5D988
:1023600003202FE000202DE000202BE0012B2BD0BC
:102370001B4B5B6803F48001E269914226D103F0B4
:102380003F02216A8A4223D1616A47F6C0721A402D
:10239000B2EB811F1ED103F44031A26A5208013A08
:1023A000B1EB024F18D103F07063E26AB3EB026F36
:1023B00014D1002006E001207047012002E0012036
:1023C00000E0002002B070BD0120FBE70120F9E72A
:1023D0000120F7E70120F5E70120F3E70120F1E70D
:1023E000003802400000474208B5264B9B6803F0C6
:1023F0000C03042B41D0082B41D1224B5A6802F028
:102400003F025B6813F4800F12D01E4B5968C1F372
:1024100088111D480023A1FB0001FEF7EBFA194BC0
:102420005B68C3F3014301335B00B0FBF3F008BD0D
:10243000144B5868C0F388104FEA401CBCEB000CEA
:102440006EEB0E0E4FEA8E1343EA9C634FEA8C113B
:10245000B1EB0C0163EB0E03DB0043EA5173C900DF
:1024600011EB000C43F10003990200234FEA8C208A
:1024700041EA9C51FEF7BEFAD1E70348D7E703488B
:10248000D5E700BF0038024040787D010024F40009
:10249000002800F09B8070B50D4604464F4B1B682A
:1024A00003F007038B4208D2CBB24C4A1370136877
:1024B00003F007038B4240F08B80236813F0020F78
:1024C00017D013F0040F04D0454A936843F4E05347
:1024D0009360236813F0080F04D0414A936843F4D3
:1024E000604393603E4A936823F0F003A1680B4376
:1024F0009360236813F0010F32D06368012B21D061
:102500009A1E012A25D9364A126812F0020F61D0AC
:1025100033498A6822F0030213438B60FFF7B4FB50
:1025200006462F4B9B6803F00C036268B3EB820FE7
:1025300016D0FFF7A9FB801B41F288339842F0D9EF
:10254000032042E0264A126812F4003FE0D1012045
:102550003BE0234A126812F0007FD9D1012034E019
:102560001E4B1B6803F00703AB4207D9EAB21B4BB3
:102570001A701B6803F00703AB422DD1236813F0D8
:10258000040F06D0164A936823F4E053E1680B4326
:102590009360236813F0080F07D0114A936823F45F
:1025A0006043216943EAC1039360FFF71DFF0C4BB1
:1025B0009B68C3F303130B4AD35CD8400A4B1860E3
:1025C0000A4B1868FFF714FB002070BD012070470C
:1025D0000120FAE70120F8E70120F6E7003C02407D
:1025E0000038024068DD00080000002008000020DC
:1025F000014B1868704700BF0000002008B5FFF7C6
:10260000F7FF044B9B68C3F38223034AD35CD84093
:1026100008BD00BF0038024060DD000808B5FFF7C4
:10262000E7FF044B9B68C3F34233034AD35CD840B3
:1026300008BD00BF0038024060DD00082DE9F0470A
:1026400082B00546884617461E46FFF71DFB0A9BCB
:102650001B1A03EB0609FFF717FB8246284B1B6882
:10266000C3F3CB3309FB03F301932B689C6838EA6F
:1026700004040CBF01230023BB423DD0B6F1FF3F51
:10268000F3D0FFF701FBA0EB0A00484503D2019B02
:1026900073BB9946E9E72A68536823F0E003536067
:1026A0006B68B3F5827F0BD0AB6AB3F5005F14D0D3
:1026B000012385F85130002385F8503003201CE0B9
:1026C000AB68B3F5004F02D0B3F5806FECD12A6848
:1026D000136823F040031360E6E72A68136823F4C5
:1026E000005313602A68136843F400531360DFE754
:1026F000019B013B0193B8E7002002B0BDE8F087E1
:102700000000002070B584B004460D4616460092C5
:102710000B4601220221FFF791FFD0B9174B1B682E
:10272000174AA2FB03235B0D4FF47A7202FB03F3FB
:1027300003936368B3F5827F11D0039B3BB1039B86
:10274000013B039323689B6813F0800FF5D104B01D
:1027500070BD636D43F0200363650320F7E70096C7
:102760002B46002280212046FFF768FF0028EED08C
:10277000636D43F0200363650320E8E70000002059
:10278000819F5E1610B582B004460B464168B1F5D4
:10279000827F14D06168B1F5827F2AD1A168B1F53A
:1027A000806F19D00092002280212046FFF746FF5B
:1027B00030B3636D43F020036365032020E081683C
:1027C000B1F5004F02D0B1F5806FE3D12068016808
:1027D00021F040010160DDE7009200220121204646
:1027E000FFF72CFF60B1636D43F0200363650320A6
:1027F00006E00092002201212046FFF71FFF08B9E2
:1028000002B010BD636D43F0200363650320F7E75A
:1028100000285AD010B50446436A33B94368B3F56B
:10282000827F05D00023C36102E00023036143617E
:102830000023A36294F85130002B40D0022384F887
:1028400051302268136823F040031360636803F477
:102850008273A26802F404421343E26802F4006245
:102860001343226902F002021343626902F001027B
:102870001343A26902F400721343E26902F03802C2
:102880001343226A02F080021343A26A02F4005248
:10289000216813430B60638B03F00403626A02F048
:1028A0001002216813434B602268D36923F400634C
:1028B000D36100206065012384F8513010BD84F895
:1028C00050302046FEF78AFEB8E7012070472DE918
:1028D000F04383B00446894690461D46FFF7D4F97D
:1028E00094F85130012B40F0CD800646DFB2B9F1AB
:1028F000000F00F0C880B8F1000F00F0C48094F819
:102900005030012B00F0C380012384F850300323A2
:1029100084F8513000236365C4F83090A4F8348003
:10292000A4F83680A363A387E38763642364A36862
:10293000B3F5004F1ED023681A6812F0400F03D180
:102940001A6842F040021A60E368B3F5006F1CD0C9
:10295000636813B1B8F1010F5FD1226B236812785D
:102960001A73236B01332363E38E9BB2013B9BB24B
:10297000E38652E02268136823F040031360226864
:10298000136843F480431360D5E7636813B1B8F16B
:10299000010F15D1226B23681288DA60236B023392
:1029A0002363E38E9BB2013B9BB2E38608E0FFF713
:1029B0006BF9801BA84202D3B5F1FF3F15D1A5B139
:1029C000E38E9BB2002B42D023689A6812F0020F6C
:1029D000EDD0226B1288DA60236B02332363E38E1F
:1029E0009BB2013B9BB2E386EAE7012384F85130B6
:1029F000002384F85030032745E0226B12781A73C5
:102A0000236B01332363B4F836C01FFA8CFC0CF13E
:102A1000FF3C1FFA8CFCA4F836C0E38E9BB2B3B126
:102A200023689A6812F0020FE7D1FFF72DF9801B97
:102A3000A84202D3B5F1FF3F01D1002DEDD1012312
:102A400084F85130002384F8503003271BE03246CD
:102A500029462046FFF756FE08B120236365A36888
:102A600033B901932368DA6801929B680193019B53
:102A7000012384F85130002384F85030636D13B97A
:102A8000002700E00227384603B0BDE8F0830227A4
:102A9000F9E72DE9F04383B00446884691461F4686
:102AA0000A9DFFF7F1F8064694F851306268012B51
:102AB0000BD0D9B2B2F5827F40F00481A368002B1D
:102AC00040F00481042940F00381B8F1000F00F0C8
:102AD0000181B9F1000F00F0FF80002F00F0FE80AF
:102AE00094F85030012B00F0FB80012384F8503023
:102AF00094F85130042B02D0052384F85130002380
:102B00006365C4F83890E787A787C4F83080E78604
:102B1000A7862364636423681A6812F0400F03D108
:102B20001A6842F040021A60E368B3F5006F11D0F2
:102B300063680BB1012F0BD1226B236812781A73D3
:102B4000236B01332363E38E9BB2013B9BB2E3868D
:102B5000012771E063680BB1012F0BD1226B236851
:102B60001288DA60236B02332363E38E9BB2013B4E
:102B70009BB2E38601271BE023689A6812F0010FDD
:102B80000ED0E28F92B25AB1DA68A36B1A80A36BAF
:102B90000233A363E38F9BB2013B9BB2E387012720
:102BA000FFF772F8801BA84202D3B5F1FF3F1ED198
:102BB000E38E9BB21BB9E38F9BB2002B62D02368DC
:102BC0009A6812F0020FD7D0E28E92B2002AD3D0C8
:102BD000002FD1D0226B1288DA60236B023323637B
:102BE000E38E9BB2013B9BB2E3860027C4E701233F
:102BF00084F85130002384F85030032063E02368C8
:102C00009A6812F0010F0ED0E28F92B25AB1DA68D0
:102C1000A36B1A70A36B0133A363E38F9BB2013BD9
:102C20009BB2E3870127FFF72FF8831BAB4202D348
:102C3000B5F1FF3F1ED1EDB1E38E9BB213B9E38F27
:102C40009BB2FBB123689A6812F0020FD7D0E28ED4
:102C500092B2002AD3D0002FD1D0226B12781A73EF
:102C6000236B01332363E38E9BB2013B9BB2E3866C
:102C70000027C4E7012384F85130002384F8503042
:102C8000032020E0324629462046FFF73BFD90B95D
:102C9000A36833B901932368DA6801929B680193B2
:102CA000019B012384F85130002384F85030636D78
:102CB0004BB1012007E020236365002384F85030E6
:102CC000012000E0022003B0BDE8F0830220FAE713
:102CD0000220F8E70120F6E70120F4E70120F2E7FF
:102CE0000220F0E72DE9F04383B01D4690F8513003
:102CF000012B40F0B280044689469046DFB200299D
:102D000000F0AC80002A00F0A9804368B3F5827F10
:102D100001D1836853B3FEF7B7FF064694F85030ED
:102D2000012B00F09F80012384F85030042384F8A5
:102D3000513000236365C4F83890A4F83C80A4F8AF
:102D40003E802363A386E38623646364A368B3F5AC
:102D5000004F15D023681A6812F0400F03D11A688B
:102D600042F040021A60E368F3B143E0042380F8C4
:102D70005130009513460A46FFF78BFE07466DE07B
:102D80002268136823F0400313602268136823F459
:102D900080431360DEE7FEF777FF801BA84202D373
:102DA000B5F1FF3F15D1A5B1E38F9BB2002B42D007
:102DB00023689A6812F0010FEDD0A26B1B7B137091
:102DC000A36B0133A363E38F9BB2013B9BB2E38709
:102DD000EAE7012384F85130002384F850300327B8
:102DE0003CE0FEF751FF801BA84202D3B5F1FF3F44
:102DF00019D1C5B1E38F9BB2EBB123689A6812F089
:102E0000010FEED0DA68A36B1A80A36B0233A363C1
:102E1000B4F83EC01FFA8CFC0CF1FF3C1FFA8CFC8E
:102E2000A4F83EC0E6E7012384F85130002384F87B
:102E30005030032712E0324629462046FFF7A2FC15
:102E400008B120236365012384F85130002384F8FE
:102E50005030636D13B9002700E00227384603B0F5
:102E6000BDE8F0830227F9E77047000030B585B070
:102E70000446026851689368C3F3801013F0400F52
:102E800005D113F0010F02D011F0400F68D113F0FB
:102E9000020F02D011F0800F66D1C3F3401513F07A
:102EA000200F03D110B913F4807F60D011F0200FF0
:102EB0005DD070B194F8510003285AD0606D40F095
:102EC0000400606500200090D06800909068009039
:102ED000009865B1606D40F00100606500200290CF
:102EE00090680290106820F040001060029A13F47D
:102EF000807F09D0636D43F008036365002303936B
:102F000023689B680393039B636D002B2FD022687B
:102F1000536823F0E0035360012384F8513011F02B
:102F2000030F2ED02268536823F003035360E36C31
:102F30004BB1164A1A65E06CFEF73CFF18B1636DA1
:102F400043F040036365A36C8BB1104A1A65A06C13
:102F5000FEF730FF58B1636D43F04003636506E050
:102F6000236C2046984702E0636C2046984705B0E2
:102F700030BD00230193D368019393680193019BB3
:102F8000F5E72046FFF770FFF1E700BF912F00083B
:102F900008B5806B0023C387C386FFF765FF08BDB4
:102FA00010B4036A046A24F001040462846924F002
:102FB000F00C4CEA021223F00A030B438261036215
:102FC00010BC704730B4056A046A24F0100404622F
:102FD000846924F4407C4CEA022C2CF4704C1B03D2
:102FE0009BB243EA0C0325F0A005090101F0A00102
:102FF00029438361016230BC704710B4036A046ADC
:1030000024F010040462846924F4704C4CEA023207
:1030100023F0A00343EA01138261036210BC7047EE
:1030200030B4056A046A24F480740462C46924F02C
:10303000030C4CEA020C2CF0F00C1B01DBB243EA4F
:103040000C0325F42065090201F420612943C361C2
:10305000016230BC704730B4056A046A24F48054BD
:103060000462C46924F4407C4CEA022C2CF4704CB9
:103070001B039BB243EA0C0325F42045090301F42A
:1030800020412943C361016230BC7047836823F04B
:1030900070030B4343F007038360704790F83D30A3
:1030A000012B2AD1022380F83D300368154A934250
:1030B00018D0B3F1804F15D0A2F57C42934211D0C5
:1030C00002F5806293420DD002F58062934209D0EE
:1030D00002F59A32934205D01A6842F001021A6052
:1030E000002070479A6802F00702062A07D01A6883
:1030F00042F001021A600020704701207047002052
:10310000704700BF0000014090F83D30012B2FD1E7
:10311000022380F83D300268D36843F00103D36096
:103120000368154A934218D0B3F1804F15D0A2F529
:103130007C42934211D002F5806293420DD002F599
:103140008062934209D002F59A32934205D01A6800
:1031500042F001021A60002070479A6802F00702EC
:10316000062A07D01A6842F001021A600020704750
:1031700001207047002070470000014070470C2973
:1031800014D8DFE801F0071313130A1313130D13F8
:10319000131310000368586B70470368986B7047EF
:1031A0000368D86B70470368186C7047002070473D
:1031B00070477047704770B504460368DE681D6944
:1031C00015F0020F10D016F0020F0DD06FF00202B2
:1031D0001A610123037703689B6913F0030F5ED024
:1031E00000F09AFF0023237715F0040F12D016F099
:1031F000040F0FD023686FF004021A6102232377B3
:1032000023689B6913F4407F4FD0204600F084FF71
:103210000023237715F0080F12D016F0080F0FD0F7
:1032200023686FF008021A61042323772368DB699F
:1032300013F0030F40D0204600F06EFF00232377E9
:1032400015F0100F12D016F0100F0FD023686FF08A
:1032500010021A61082323772368DB6913F4407F87
:1032600031D0204600F058FF0023237715F0010FDE
:1032700002D016F0010F2DD115F0800F02D016F0FC
:10328000800F2FD115F0400F02D016F0400F31D132
:1032900015F0200F02D016F0200F33D170BDFFF7CC
:1032A00087FF2046FFF785FF9CE72046FFF780FF5A
:1032B0002046FFF77EFFABE72046FFF779FF204669
:1032C000FFF777FFBAE72046FFF772FF2046FFF7C8
:1032D00070FFC9E723686FF001021A61204600F011
:1032E000E5FEC9E723686FF080021A61204600F00E
:1032F000DEFBC7E723686FF040021A612046FFF744
:1033000059FFC5E723686FF020021A61204600F0DC
:10331000CDFBC3E70368274A90420ED0B0F1804F3F
:103320000BD0A2F57C42904207D002F58062904219
:1033300003D002F58062904203D123F070034A6803
:1033400013431C4A90421AD0B0F1804F17D0A2F517
:103350007C42904213D002F5806290420FD002F579
:10336000806290420BD002F59A32904207D002F56B
:103370008062904203D002F58062904203D123F430
:103380004073CA68134323F080034A6913438A6871
:10339000C2620A688262074A904207D0026842F01D
:1033A0000402026001224261036070470A690263FD
:1033B000F4E700BF0000014040B310B5044690F8A8
:1033C0003D30F3B1022384F83D30214651F8040B1F
:1033D000FFF7A0FF012384F8463084F83E3084F8DC
:1033E0003F3084F8403084F8413084F8423084F82B
:1033F000433084F8443084F8453084F83D30002070
:1034000010BD80F83C30FEF7F3FADBE7012070478F
:1034100040B310B5044690F83D30F3B1022384F870
:103420003D30214651F8040BFFF774FF012384F867
:10343000463084F83E3084F83F3084F8403084F8D9
:10344000413084F8423084F8433084F8443084F8C2
:10345000453084F83D30002010BD80F83C30FFF747
:103460008DFEDBE70120704770B49446066A046A5B
:1034700024F0010404628469144DA84214D0B0F110
:10348000804F11D0124A90420ED002F580629042D5
:103490000AD002F58062904206D002F59A3290423C
:1034A00002D044F0010203E024F0030242EA0C02DD
:1034B00022F0F0021B01DBB2134326F00A0201F0F6
:1034C0000A0111438361016270BC70470000014032
:1034D0000004004038B590F83C30012B5ED0044623
:1034E0000D46012380F83C300C2A52D8DFE802F068
:1034F00007515151195151512C5151513E00CB6836
:103500004A6809680068FFF7AFFF2268936923F0F3
:103510000C03936122689369A9680B4393610020AF
:1035200038E0CB684A6809680068FFF74BFD2268FD
:10353000936923F44063936122689369A96843EA1D
:1035400001239361002025E0CB684A680968006880
:10355000FFF766FD2268D36923F00C03D36122686C
:10356000D369A9680B43D361002013E0CB684A6894
:1035700009680068FFF76FFD2268D36923F4406390
:10358000D3612268D369A96843EA0123D36100208B
:1035900000E00120002384F83C3038BD0220FCE725
:1035A00010B4846824F47F4C42EA03220A4342EABE
:1035B0000C02826010BC704790F83C30012B78D030
:1035C00010B50446012380F83C30022380F83D30DA
:1035D0000268936823F47F4323F0770393600B68BA
:1035E000602B4CD023D8402B54D011D8202B03D0A3
:1035F0000AD80BB1102B05D119462068FFF746FDFC
:10360000002028E0012026E0302BF5D0012022E028
:10361000502B0AD1CA6849680068FFF7C1FC5021E5
:103620002068FFF733FD002015E0012013E0B3F51B
:10363000805F3AD0B3F5005F14D0702B37D1CB68E0
:103640004A6889680068FFF7ABFF2268936843F017
:10365000770393600020012384F83D30002384F831
:103660003C3010BDCB684A6889680068FFF798FF56
:103670002268936843F4804393600020EBE7CA68B4
:1036800049680068FFF7B9FC60212068FFF7FEFC7D
:103690000020E0E7CA6849680068FFF781FC402124
:1036A0002068FFF7F3FC0020D5E70020D3E70120D6
:1036B000D1E70220704710B50468A26822F07002BA
:1036C0004B68134323F007030A681A43A2604B6850
:1036D000502B30D00BD9602B34D0702B43D10B69D9
:1036E0008A68C9680068FFF75BFF002010BD402BA7
:1036F0000CD02ED8202B2ED004D873B3102B2ED163
:103700000020F3E7302B2CD10020EFE70B68052BCE
:103710002BD003681C6A1A6A22F001021A6202683E
:10372000936923F0F003096943EA01139361036885
:103730001C620020DAE70A6989680068FFF730FC3C
:103740000020D3E70A6989680068FFF756FC00206B
:10375000CCE70120CAE70020C8E70020C6E7012027
:10376000C4E70120C2E70120C0E70120BEE790F8CE
:103770003C30012B22D010B50446012380F83C30A8
:10378000022380F83D30FFF796FF80B92268D368A6
:1037900023F04003D3602268D36823F48043D360CE
:1037A000012384F83D30002384F83C3010BD012013
:1037B00084F83D00002384F83C30F7E7022070478E
:1037C00001F01F014FF0010C0CFA01FC036A23EA1F
:1037D0000C030362036A8A401343036270470000CC
:1037E00010B504460B4600293BD190F83E00C0B20C
:1037F00094F84220D2B2012840F0AB80012A40F078
:10380000A980002B4CD1022284F83E2084F842206B
:103810002168CA6842F00202CA6001221946206883
:10382000FFF7CEFF23684E4A934200F08780B3F142
:10383000804F00F08380A2F57C4293427ED002F557
:10384000806293427AD002F58062934276D002F58C
:103850009A32934272D01A6842F001021A60002034
:1038600078E004290CD008290ED090F84100C0B2AD
:10387000042B0DD0082B0FD094F84520D2B2BAE714
:1038800090F83F00C0B2F3E790F84000C0B2EFE715
:1038900094F84320D2B2AEE794F84420D2B2AAE71B
:1038A000042B2BD0082B2DD0022184F84110042B9F
:1038B0002CD0082B33D0022184F845100C2B4AD889
:1038C00001A151F823F000BF113800085739000852
:1038D00057390008573900081339000857390008CC
:1038E00057390008573900082539000857390008AA
:1038F000573900085739000831390008022184F887
:103900003F10D4E7022184F84010D0E7022284F867
:1039100043202168CA6842F00402CA607DE702229F
:1039200084F844202168CA6842F00802CA6074E73B
:103930002168CA6842F01002CA606EE79A6802F015
:103940000702062A09D01A6842F001021A60002014
:1039500000E0012010BD1046FCE70020FAE700BFA0
:103960000000014038B505460C460C295DD8DFE85B
:1039700001F0075C5C5C285C5C5C2E5C5C5C340089
:103980000268D36823F00203D3600022214628682E
:10399000FFF716FF2B68196A41F21112114208D184
:1039A000196A40F24442114203D11A6822F001021E
:1039B0001A60C4B9012385F83E3085F842300020F2
:1039C00034E00268D36823F00403D360DDE70268C3
:1039D000D36823F00803D360D7E70268D36823F0E5
:1039E0001003D360D1E7042C0DD0082C0FD0012395
:1039F00085F84130042C0ED0082C11D0012385F815
:103A00004530002012E0012385F83F30F2E7012322
:103A100085F84030EEE7012385F84330002005E0CB
:103A2000012385F84430002000E0012038BD00006B
:103A300090F83C20012A34D010B40346012280F8CB
:103A40003C20022280F83D2002685068946820F0F3
:103A5000700C086840EA0C0050601A6812488242F4
:103A600012D0B2F1804F0FD0A0F57C4082420BD033
:103A700000F58060824207D000F58060824203D06A
:103A800000F59A30824204D124F080044968214331
:103A90009160012283F83D20002083F83C0010BC97
:103AA00070470220704700BF000001407047704718
:103AB000026802F10C0353E8003F23F490730C32C8
:103AC00042E800310029F3D1026802F1140353E8FF
:103AD000003F23F00103143242E800310029F3D102
:103AE000036B012B05D0202380F8423000230363B1
:103AF0007047026802F10C0353E8003F23F0100303
:103B00000C3242E800310029F3D1ECE710B504464D
:103B10000268136923F44053C1680B43136183683F
:103B200002691A4343691A43C3691A430168CB689F
:103B300023F4164323F00C031343CB60026853694C
:103B400023F4407381690B4353610368314A934204
:103B500006D002F58062934202D0FEF74FFD01E0ED
:103B6000FEF75CFDE369B3F5004F29D0002103188F
:103B700049411B1841F10001C90041EA5371DB00C2
:103B8000181863684FEA83024FEA937341F100010A
:103B9000FCF730FF204AA2FB00314909642303FBF4
:103BA00011031B013233A2FB03235B0903F0F00274
:103BB00002EB011203F00F03216813448B6010BD68
:103BC0000023021843EB0301121841F10001C90060
:103BD00041EA5271D200101841F100016268921856
:103BE0005B41FCF707FF0C4AA2FB00314909642343
:103BF00003FB1103DB003233A2FB03235B095A00F2
:103C000002F4F87202EB011203F007032168134477
:103C10008B60D4E7001001401F85EB512DE9F04384
:103C200083B005460E4617469946DDF828802B6876
:103C30001C6836EA04040CBF01240024BC4228D1CD
:103C4000B8F1FF3FF3D0FEF71FF8A0EB09004045A5
:103C500023D8B8F1000F22D02B68DA6812F0040FD5
:103C6000E5D0802EE3D0402EE1D01A6812F0080F84
:103C7000DDD0002401941A6801925B680193019BD6
:103C80002846FFF715FF08236B6485F840400120A4
:103C900000E0002003B0BDE8F0830320FAE7032032
:103CA000F8E760B310B5044690F8413013B324230D
:103CB00084F841302268D36823F40053D36020464F
:103CC000FFF724FF2268136923F4904313612268ED
:103CD000536923F02A0353612268D36843F40053E5
:103CE000D36000206064202384F8413084F842309F
:103CF000606310BD80F84030FDF716FFD7E7012064
:103D000070472DE9F04182B01E4690F84130202BDB
:103D100056D104460D469046002955D00AB90120D7
:103D20004FE000234364212380F84130FDF7ACFFCE
:103D30000746A4F82480A4F82680A368B3F5805F22
:103D400002D04FF0000814E023692BB34FF00008B5
:103D50000FE0202384F84130032032E038F8023BA2
:103D60002268C3F308035360E28C92B2013A92B224
:103D7000E284E38C9BB293B100963B460022802103
:103D80002046FFF74BFF0028E3D1002DE6D015F8C1
:103D9000012B23685A60E7E7A8460025E9E700966B
:103DA0003B46002240212046FFF738FF18B9202368
:103DB00084F8413005E0202384F84130032000E0FE
:103DC000022002B0BDE8F0810120FAE700B583B01F
:103DD000124B1B68ADF804301B0C8DF80630104BED
:103DE0001B78834206D00F4B1B7883420DD003B063
:103DF0005DF804FB0429FAD10B4B01221A704FF431
:103E000000510A48FEF7DDF8F1E70429EFD14FF43D
:103E100000510648FEF7D5F8E9E700BF78DD000855
:103E2000460B0020450B0020440B002000080240F8
:103E3000012800D0704708B54FF480710448FEF7A0
:103E4000C0F8002202210348FEF7B5F808BD00BF04
:103E5000000002400004024010B582B01148FFF794
:103E60001DF9114C114B23610222A282A36101238F
:103E7000A3830F4B23624FF40053A3840D4B636065
:103E80000D4BE3600A2001F0FDF90C4801F060FAE7
:103E900000230093D0220A49204600F046FC02B0DD
:103EA00010BD00BF88080020C00A002000040240A6
:103EB000000802400000204000127A007CDD00086B
:103EC0005407002070B586B0002600F09FFA5F4CC2
:103ED000324602212046FEF76EF8642307225C4931
:103EE0005C48FFF70EFF5C4D01221146284600F0AA
:103EF000BBFA5A4B187001220221284600F0B4FA8E
:103F0000574B1870574800F0E3FA5748FFF7FCF892
:103F10005648FFF7C3F8324602212046FEF74BF819
:103F20004FF47A70FDF7B6FEFFF796FF504801F0A8
:103F30000FFA34465FE04F4B1B78012B05D04E4BF8
:103F40001B78002B57D0012455E04A4B00221A70F1
:103F50000224F4E7494B1B78B34216D1484B1D7835
:103F60006A1C1A70474800F017FB474B43F82500BE
:103F7000414B1D78002D3ED1414C2178434801F042
:103F80006DF9002323702C4635E000213D4800F0F8
:103F90001BFC3A4B1E78E1E73D4D00212846FFF718
:103FA0001FFC04212846FFF71BFC3A4B1B783A4ABA
:103FB000A2FB031202F0F001A1EB1212A3EB4203E9
:103FC00013F0FF0F17D1032415E000241D2C11D886
:103FD00001AD324B33F8143022463149284601F006
:103FE000BFF96423142229461A48FFF78AFE0134D8
:103FF000E4B2EBE70424052CFDD801A353F824F028
:10400000373F0008553F0008993F0008CB3F0008A4
:10401000194000082F4000081D4C00212046FFF7E2
:10402000A1FC04212046FFF79DFC0524E3E70024C2
:10403000052C09D81B4B53F8242021461A4801F0BF
:104040000DF90134E4B2F3E70024D4E700040240A0
:104050008CDD0008D008002000000240460B002044
:10406000450B0020CD3D0008B0070020F8070020D8
:1040700094DD0008440B0020E90A0020E80A002033
:104080002C090020C00A002030090020A0DD000813
:1040900040080020040B002089888888080B002035
:1040A000A8DD0008EC0A0020B0DD000808B5144BBC
:1040B000834200D008BD00F02DFA124B1A6801327D
:1040C0001A60114BA3FB02135B094FF4FA7101FB59
:1040D000132373B10D4BA3FB021323F0030101EB78
:1040E00093039A42E6D10A4A137883F001031370CE
:1040F000E0E74FF400510748FDF763FFDAE700BF40
:10410000B007002024090020D34D6210CDCCCCCCC8
:10411000E90A0020000802400368B3F1804F00D094
:10412000704710B5037F012B02D0022B29D010BDA0
:104130000021FFF724F8431C9BB2174A1380174C49
:1041400021781748A0FB012000F0F002A2EB10122A
:10415000A1EB4202D2B2134800881B1A124820F881
:104160001230013121700022104B1A80104B197847
:10417000481C18700F4B1C680F4840F821401A600B
:10418000D5E70421FEF7FBFF0130064B1880074BF3
:1041900001221A80CBE700BF20090020040B002079
:1041A000898888881E090020080B0020480B002001
:1041B0001C09002028090020EC0A002070B50E46DA
:1041C0001546002407E04FF0FF330122311904485F
:1041D000FFF797FD0134AC42F5DB284670BD00BF08
:1041E000D008002008B5724B1B78834240F2D7807C
:1041F00000EB40026F4B03EBC20300225A741B7C9E
:10420000052B00F2CD80DFE803F0031B426979B88B
:1042100000EB4002674B03EBC2035B7D002B00F019
:10422000B380644B03EBC2031B7D002B40F0AC80DA
:10423000604B03EBC20301221A7400225A82A3E0EE
:1042400000EB40025B4B03EBC2035B7DBBB113464B
:10425000584A02EBC302538A01339BB253825289FC
:104260009342C0F0918000EB4002524B03EBC2033B
:1042700002221A7400225A8201225A7484E000EB4E
:1042800040024C4B03EBC20300221A747CE000EBAB
:104290004002484B03EBC2035B7D9BB11346454A8A
:1042A00002EBC302538A01339BB253829289934239
:1042B0006AD300EB40023F4B03EBC20303221A74A4
:1042C0005A7461E000EB40023A4B03EBC203042254
:1042D0001A7400225A8202225A7455E000EB4002FE
:1042E000344B03EBC2035B7D002B4DD1314B03EB11
:1042F000C20300221A7402225A7445E000EB400304
:104300002C4A02EBC302538A01339BB25382527D83
:1043100012B300EB4001274A02EBC102127DDAB969
:10432000244A02EBC102937D0133DBB29375012B6A
:1043300009D000EB40021F4B03EBC20301221A74A9
:1043400000225A8220E01B4B03EBC10300221A74A7
:10435000052159749A7517E000EB4001154A02EBEC
:10436000C102D28993420FD3124B03EBC103002247
:104370001A74042159749A7506E000EB40020D4B43
:1043800003EBC20300221A7400EB4002094B03EB5B
:10439000C203597C19B1084B1B6803B1984708BD8B
:1043A000044B182202FB003300221A74ECE700BF12
:1043B000540B0020580B00204C0B0020114B1B7895
:1043C00083421BD970B5044600EB40030E4A52F8F5
:1043D0003300A8B11546660002EBC3039988FDF7C8
:1043E000E3FD0346003818BF0120264405EBC6054F
:1043F0002A7A12B1B3FA83F0400970BD00207047E9
:104400000020FAE7540B0020580B002010B40021C4
:1044100016E0114C01EB4103D800231800221A7456
:104420005A745A821A755A759A7522505A60012226
:104430001A7204225A81C8229A813C22DA810131FF
:104440000229E6DD0023054A1370054A1360054A78
:10445000136010BC704700BF580B0020540B0020A5
:10446000500B00204C0B00202DE9F041164B1C781E
:10447000022C24D828B3631C134D2B70134E04EB6D
:10448000440306EBC30546F8330069602A7204232F
:104490006B81C823AB813C23EB814FF0000885F88A
:1044A000108085F81180A5F812802046FFF786FF5E
:1044B0002875687585F816802046BDE8F081FF24D0
:1044C000FAE7FF24F8E700BF540B0020580B002048
:1044D000014B1860704700BF4C0B0020F8B500245A
:1044E0000FE02046FFF76AFF084D04EB440605EB9A
:1044F000C60670752046FFF775FE737D337501346F
:10450000E4B2034B1B78A342EBD8F8BD580B002054
:10451000540B002008B5034A136801331360FFF7FA
:10452000DDFF08BD500B0020034B1A6800235362C7
:10453000536A8342FCD370478808002010B50446B4
:10454000A18BA069FDF730FD0028F9D110BD08B599
:1045500031B10022818A0069FDF72DFD002008BDE0
:104560000122F7E710B582B00446FE238DF807302C
:10457000FFF7E4FF01212046FFF7E9FF01231A4678
:104580000DF107012068FEF7A2F900212046FFF790
:10459000DEFF002002B010BDF0B583B0044601AECE
:1045A0000025ADF804508DF8065001278DF80470F1
:1045B000FFF7C4FF39462046FFF7C9FF0A233A46F2
:1045C00031462068FEF783F90A20FFF7ADFF0A2382
:1045D000032231462068FEF785FB29462046FFF777
:1045E000B6FF9DF804209DF805301B0243EA024304
:1045F0009DF80600184313F4000F01D040F07F40EF
:10460000FCF754F8054660680146FBF79BFF01463E
:104610002846FCF79FF80546207AFCF747F804493E
:10462000FCF798F801462846FCF748F903B0F0BDBE
:10463000FEFFFF4A70B582B0044616461D4641F0A3
:1046400010018DF80410013B8DF80530FFF776FF5F
:1046500001212046FFF77BFF0A20FFF765FF0123BA
:10466000022201A92068FEF732F90A20FFF75CFF59
:1046700001232A4631462068FEF734FB0A20FFF763
:1046800053FF00212046FFF762FF002002B070BDFB
:1046900070B582B004460E461546012301AAFFF705
:1046A000C9FF9DF80430AB4202D1002002B070BDBA
:1046B0000A20FFF739FF2046FFF740FF012120467F
:1046C000FFF745FF0A20FFF72FFF46F050018DF856
:1046D000041000268DF805608DF806500A23032289
:1046E00001A92068FEF7F3F80A20FFF71DFF314605
:1046F0002046FFF72CFF0120FDF7CCFAD5E710B5D7
:1047000082B004468DF807100121FFF720FF012336
:104710001A460DF107012068FEF7D9F8002120465E
:10472000FFF715FF002002B010BD70B50446164615
:104730001D4601600123AB400372FFF713FF0A20FF
:10474000FDF7A8FA2A4602212046FFF7A1FF3246CC
:1047500003212046FFF79CFF002204212046FFF79B
:1047600097FF0A20FDF796FAF0212046FFF7C7FFD2
:104770003220FDF78FFA2046FFF7E0FE0520FDF717
:1047800089FA00212046FFF7E2FE2046FFF7D6FE19
:10479000002070BD10B504460A43D2B20121FFF7D4
:1047A00077FF0520FFF7C0FEFC212046FFF7A7FF9B
:1047B0000520FFF7B9FE00212046FFF7A0FF0120EA
:1047C000FFF7B2FE002010BD08B50822FFF7E2FF98
:1047D00008BD00002DE9F047089D0F4604468C46B1
:1047E000002B48D18A42164661D9B2FA82F34BB106
:1047F000C3F1200201FA03FC20FA02F29E4042EAD1
:104800000C0C9C404FEA164EB7B2BCFBFEF1220CDA
:104810000EFB11CC42EA0C4201FB07F0904209D991
:10482000B21801F1FF3C80F0EE80904240F2EB8044
:1048300002393244121AA4B2B2FBFEF00EFB10226F
:1048400044EA024400FB07F7A74209D9341900F1F2
:10485000FF3280F0DA80A74240F2D7803444023839
:1048600040EA0140E41B00211DB1DC400023C5E902
:104870000043BDE8F0878B4206D90DB1C5E90001C0
:1048800000210846BDE8F087B3FA83F1002948D13A
:10489000BB4202D3824200F20781841A67EB030213
:1048A00001209446002DE4D0C5E9004CE1E7002A40
:1048B00000F09280B2FA82F3002B40F0A8808A1AAE
:1048C0004FEA164E1FFA86FC0121200CB2FBFEF7C0
:1048D0000EFB172240EA02420CFB07F0904207D978
:1048E000B21807F1FF3802D2904200F2E280474648
:1048F000121AA4B2B2FBFEF00EFB102244EA0244EC
:104900000CFB00FCA44507D9341900F1FF3202D298
:10491000A44500F2CB801046A4EB0C0440EA07400B
:10492000A2E7C1F120068B4022FA06FC4CEA030CF8
:1049300007FA01F420FA06F3F7404FEA1C49234333
:1049400000FA01F81FFA8CFEB7FBF9F01C0C09FB0A
:10495000107744EA074400FB0EF7A74202FA01F27F
:104960000AD91CEB040400F1FF3A80F09B80A742B7
:1049700040F2988002386444E41B9FB2B4FBF9F320
:1049800009FB134447EA044403FB0EFEA64509D97C
:104990001CEB040403F1FF3780F08280A6457FD929
:1049A000023B644443EA0040A4EB0E04A0FB02E790
:1049B000BC427346B94663D360D05DB1B8EB030225
:1049C00064EB090404FA06F622FA01F31E43CC4014
:1049D000C5E9006400214CE76208480842EAC17159
:1049E0000B0C43EA00438AB242EA0342B3FBF6F1FE
:1049F000E407B4463746B6461F23B0FBF6F0D21B99
:104A000041EA004161E7614614E7104628E7C3F137
:104A1000200120FA01F29E4027FA01F19F403A431B
:104A20004FEA164E1FFA86FCB1FBFEF70EFB17107D
:104A3000110C41EA004107FB0CF8884504FA03F425
:104A40003AD9711807F1FF3001D288451FD8A1EB80
:104A50000801B1FBFEF808FB0CF70EFB181192B22F
:104A600042EA0142BA422FD2B21808F1FF31C6D24F
:104A7000BA42C4D2A8F102013244C0E7F0459CD248
:104A8000BEEB020367EB0C070138B94695E7A6EBCE
:104A900008084144B81EB1FBFEF808FB0CF7DCE740
:104AA0003B467FE7504667E70846FBE6344402385A
:104AB00032E7023F32441BE7A1EB08013846B1FB65
:104AC000FEF808FB0CF7C8E7414698E72DE9F04FE0
:104AD00001F10B05162D83B0064623D8102900F2EC
:104AE000B48000F0BFFA102518230220B84F3B44D1
:104AF000A3F108025C68944200F064816368E26894
:104B0000A16823F00303CA602344304691605A68C9
:104B100042F001025A6000F0ABFA0834204603B0BC
:104B2000BDE8F08F35F0070500F18F80A94200F253
:104B30008C8000F097FAB5F5FC7FC0F0B8815FEA91
:104B4000552E00F08980BEF1040F00F270814FEA0B
:104B5000951E0EF1390003B20EF1380EDB009C4FAA
:104B60003B44A3F1080C5C68A44507D10DE0002A82
:104B7000E16880F221818C4507D00C46636823F000
:104B800003035A1B0F2AF2DD7046DFF848823C69A6
:104B9000444500F0FE80636823F0030CACEB050392
:104BA0000F2B00F38981002BC7E9048880F2738101
:104BB000BCF5007FD7F804E080F018814FEADC03F1
:104BC000013319B24FEA5C1C012303FA0CF357F8C6
:104BD0003120A2604EEA030E07EBC103083BE360FD
:104BE000C7F804E047F83140D46083104FF0010C5F
:104BF0000CFA03FCF44535D81CEA0E0F08D120F05E
:104C000003004FEA4C0C1CEA0E0F00F10400F8D030
:104C100007EBC00AD6468146DEF80C300BE0596837
:104C200021F003014A1B0F2A1C46DB6800F30F81A9
:104C3000002A80F223819E45F1D109F1010919F082
:104C4000030F0EF1080EE7D161E10C23336000245D
:104C5000204603B0BDE8F08F4FF4007340204FF0C2
:104C60003F0E7CE7BC68636823F00309A94504D3C1
:104C7000A9EB05030F2B00F38F80574B1B6808200F
:104C800003F1100804EB0903009300F0F1FC534A10
:104C900013680133A844834605D008F1FF388044E7
:104CA000434203EA08084146304600F083FCB0F175
:104CB000FF3F4A4A824600F01B8104EB090383420E
:104CC00000F21481464B186840440BF1FF3C186019
:104CD00000F072811168013100F07A8104EB090261
:104CE000AAEB020202441A601AF00702CDE900237F
:104CF00000F03281C2F108029244D04408EA0C016B
:104D00005A44521A02EA0C0B5946304600F052FC43
:104D1000421C019B00F07981A0EB0A0000EB0B081C
:104D20001868C7F808A048F001025844BC42CAF805
:104D30000420186016D0B9F10F0F40F24C81616861
:104D4000A9F10C0222F0070201F001011143616098
:104D50004FF0050CA1180F2AC1E901CC00F25D81CA
:104D6000DAF804201F4B1968814238BF18601E4BC7
:104D70001968814238BF1860544622F00308A845DC
:104D8000A8EB050301D30F2B06DC304600F070F9C9
:104D90005DE7D7F804E028E7621943F0010345F026
:104DA000010565603046BA60536000F061F908346F
:104DB000204603B0BDE8F08FA2682344D16030469E
:104DC0008A60A4E6DC68A3427FF498AE0230DCE699
:104DD0001800002020000020D00B00200C00002034
:104DE000A00B0020CC0B0020C80B0020BCF5206FCE
:104DF0004FEA5C2272D3142A00F2C18002F15C03F4
:104E00001BB25B32DB00F918FB580839994203D119
:104E100098E09B68994204D05A6822F003026245E8
:104E2000F7D8D968C4E902318C60DC60DDE6BEF1F8
:104E3000140F60D9BEF1540F00F2AB804FEA153E5B
:104E40000EF16F0003B20EF16E0EDB0087E6D4F8B0
:104E500008C03046661945F001056560CCF80C3095
:104E6000C3F808C042F00103C7E90466C6E9028836
:104E70007360625000F0FCF80834E9E621443046E3
:104E80004A6842F001024A6054F8082FD3609A60E1
:104E900000F0EEF8DCE6A4443046DCF8043043F0E1
:104EA0000103CCF8043000F0E3F80834D0E6E80859
:104EB000431C1BB2DB0019E6621943F0010145F007
:104EC000010565603046C7E90422C2E902885160E5
:104ED00044F80C3000F0CCF80834B9E64FEA9C12E4
:104EE00002F139031BB23832DB008CE7BC425CD0E4
:104EF000BC68626841E70EF15C0003B20EF15B0E24
:104F0000DB002CE65AF80839534540F0A68010F033
:104F1000030F00F1FF30F5D17B6823EA0C037B60BF
:104F20004FEA4C0C9C453FF69DAEBCF1000F04D1FE
:104F300098E64FEA4C0C09F104091CEA030FF8D07B
:104F4000484665E692104FF0010C0CFA02F24EEA68
:104F5000020EC7F804E065E70AEB080202EA0C0259
:104F6000ABEB020202EA0C0B5946304600F022FB82
:104F7000431C019B7FF4D0AEDDF800B0D0E6542A8C
:104F80002DD84FEA1C3202F16F031BB26E32DB00E8
:104F900039E7BEF5AA7F2DD84FEAD53E0EF178004D
:104FA00003B20EF1770EDB00D9E52D4B18684044B3
:104FB0000BF1FF3C18608DE61AEA0C0F7FF48AAE05
:104FC000D7F808A0C84448F00102CAF80420C9E68E
:104FD000C2F800A088E60123CAF80430D5E6B2F58D
:104FE000AA7F25D84FEADC3202F178031BB2773270
:104FF000DB0008E740F254539E4524D8AB0C03F184
:105000007D0003F17C0EC300A9E5009A083A9044A4
:10501000A8EB0A084FF0000B82E6304604F10801C5
:10502000009300F09FFB009BD7F808A0186897E654
:1050300040F254539A420CD84FEA9C4202F17D034D
:10504000DB007C32DFE64FF47E737F204FF07E0E74
:1050500085E54FF47E737E22D5E67B6860E700BF6E
:10506000A00B0020014800F0FFBA00BF140D002083
:10507000014800F0FBBA00BF140D0020024A0349AA
:10508000034800F0C9B800BF20040020819F000839
:10509000300400200C4B4168994210B5044601D001
:1050A00004F06EFFA168094B994202D0204604F03B
:1050B00067FFE168064B994204D02046BDE81040E6
:1050C00004F05EBF10BD00BFD40B00203C0C0020DC
:1050D000A40C00202DE9F843314A324C3249DFF864
:1050E000CC90DFF8CC80334F116000250423294693
:1050F000082204F15C00C4E903352F4EA560C4E921
:105100000055C4E90555656600F094F904F15800AE
:10511000C4E90749C4E90987E66200F0A1FA294613
:10512000264B6367082204F1C400C4E91A55C4E998
:105130001E552567C4F8CC50C4F8805000F07AF9A9
:1051400004F1680304F1C000C4F88430C4E9229873
:10515000C4E9247600F084FA194BC4F8DC302946FF
:1051600004F596700822C4E93455C4E93855C4F8EA
:10517000D850C4F83451C4F8E85000F05BF904F199
:10518000D003C4E93D87C4F8F09004F59470C4F8E6
:10519000FC60C4F8EC30BDE8F84300F061BA00BF31
:1051A0000C0D0020D40B00207D500008A5530008F2
:1051B000C9530008095400082D54000809000100D3
:1051C0001200020010B504460A4800F04DFA636B65
:1051D00023B9094B094A1B68626323B1BDE810403B
:1051E000044800F043BAFFF775FFBDE810400148DE
:1051F00000F03CBA1C0D00200C0D0020955000085A
:10520000014800F031BA00BF1C0D0020014800F039
:105210002DBA00BF1C0D00202DE9F8430746884633
:1052200016464FF00009D6E90154013D10D4A38978
:10523000012B08D9B4F90E3001332146384602D08B
:10524000C04749EA0009013D6B1C04F16804EED136
:105250003668002EE7D14846BDE8F8830FB400B5A4
:10526000074983B004AB086853F8042B81680193A5
:1052700002F078FC03B05DF804EB04B0704700BFA7
:105280002C040020024B01461868826805F000B922
:105290002C04002070B5054688B008460C46FBF784
:1052A000CFFB2A4E6A6B059001214318CDE90661B8
:1052B00004A8022104940393AC6801900291002A8F
:1052C00040D0636EB4F90C20D8071AD5910421D4CC
:1052D00042F4005223F40053A2816366284601AAD7
:1052E000214604F069FF636E002814BF4FF0FF35BC
:1052F0000A25DA0702D4A3899B0510D5284608B0F1
:1053000070BD900511D59104E2D59E04E6D54FF00D
:10531000FF35F0E79E04E1D54FF0FF35EEE7A06DD5
:1053200000F0A4F9284608B070BDA06D00F09CF90B
:10533000B4F90C20636E9004CAD59904CED54FF011
:10534000FF35D6E72846FFF73DFFBAE7B8DD00088E
:10535000024B01461868FFF79DBF00BF2C040020D8
:105360000EB430B59CB06FF000411FAB04910791B3
:105370000A4953F8042B029000240690084D08684F
:10538000019302A905951B9400F0E4FA029B1C709E
:105390001CB0BDE8304003B0704700BF2C040020B3
:1053A0000802FFFF10B50C46B1F90E1000F0ECF842
:1053B000002803DB236D0344236510BDA38923F478
:1053C0008053A38110BD00BF2DE9F0410C46B1F917
:1053D0000C101F46CB05054616460BD421F4805110
:1053E000A1813B46B4F90E1032462846BDE8F04193
:1053F00000F0F2B8B4F90E100223002200F0AEF86B
:10540000B4F90C10EAE700BF10B50C46B1F90E1064
:1054100000F0A4F8B4F90C30421C0EBF23F4805302
:1054200043F480532065A38110BD00BFB1F90E1075
:1054300000F082B8830730B546D08418844604E073
:1054400003F8011B9D0704D09C46A4456346F7D191
:1054500030BD013A0244A2EB0C02032A29D9CCB296
:1054600004EB04240F2A04EB04442FD9A2F1100CFE
:105470002CF00F0C03F11005AC44C3E90044C3E960
:10548000024410336345F8D112F00C0F02F00F0EF6
:1054900018D02EF0030C9C44AEF104051A4642F8D5
:1054A000044B6245FBD125F0030404330EF00302E4
:1054B0002344002ACCD0C9B21A4403F8011B9342FA
:1054C000FBD130BD7246F4E70346C6E79646E0E7F7
:1054D00040EA01039B0710B501D1032A17D884467F
:1054E00001F1FF3E07E01EF8011F03F8011B541EE7
:1054F00029B19C4622466346002AF4D110BD94444B
:10550000002CFBD003F8011B6345FBD110BD8E4678
:105510008446DEF80040A4F1013323EA040313F0CB
:10552000803F71460EF1040EDAD1043A032A4CF89A
:10553000044BEED87146D3E738B5074D0022044638
:1055400008462A60FCF71EF9431C00D038BD2B68C2
:10555000002BFBD0236038BD100D002038B50D4660
:10556000084C8446114628461A46002323606546A7
:10557000FCF712F9431C00D038BD2368002BFBD088
:105580002B6038BD100D002038B50D46084C844600
:10559000114628461A46002323606546FCF7E2F8C8
:1055A000431C00D038BD2368002BFBD02B6038BDD6
:1055B000100D002038B5074D0022044608462A6029
:1055C000FCF7ECF8431C00D038BD2B68002BFBD057
:1055D000236038BD100D002038B50D46084C8446B8
:1055E000114628461A46002323606546FEF7E6FD6D
:1055F000431C00D038BD2368002BFBD02B6038BD86
:10560000100D0020014B1868704700BF2C040020CB
:1056100070B50F4B0F4DAB42A3EB050607D0B6108C
:10562000002455F8043B01349847A642F9D808F005
:1056300089FB094D094B5E1BAB424FEAA60606D01B
:10564000002455F8043B01349847A642F9D870BDB0
:10565000C8E10008C8E10008C8E10008D0E100087E
:10566000704700BF704700BF704700BF704700BF62
:10567000082802D14FF48050704708B5FFF7C2FFE9
:10568000162303604FF0FF3008BD00BF024B13B17B
:10569000024800F005B8704700000000BDA70008F0
:1056A000002301461A46184605F0D2B82DE9F84302
:1056B000064608208946FFF7DBFFDFF89C80054699
:1056C0003046FFF7CFFCD8F808305F6827F00307B3
:1056D000A7F11104A4EB09042C44B4FBF5F4013C3C
:1056E00005FB04F4A54208DC00213046FFF762FF09
:1056F000D8F808303B44984205D03046FFF7B8FC54
:105700000020BDE8F88361423046FFF753FF0130C7
:105710000FD0124AD8F808303F1B47F001075F60EE
:10572000136830461B1B1360FFF7A2FC0120BDE885
:10573000F88300213046FFF73DFFD8F80820831A90
:105740000F2BDADD43F001035360054B03491B685F
:10575000C01A0860D1E700BF18000020A00B00208D
:105760000C00002000295BD0F8B50C460746FFF777
:1057700079FC54F804CC744DA4F108022CF0010318
:10578000D118A8684E68884226F003060CF0010E76
:105790007ED088194E60406800F00100BEF1000F15
:1057A0002FD154F8084C121B2344946805F1080CBF
:1057B000644562D0D2F80CE0C4F80CE0CEF80840A2
:1057C00000287FD043F0010050600B60B3F5007FEC
:1057D0002FD2D90868685C090131012309B2A340BE
:1057E00003436B6055F83100906005EBC103083B43
:1057F000D36045F83120C2603846BDE8F840FFF775
:1058000037BC70B9334405F1080C8868604543F033
:10581000010471D0C968C16088605460D350D5E775
:1058200070474CF00101B3F5007F44F8041CD350DD
:10583000CFD3B3F5206F4FEA532045D2980900F13A
:10584000390109B200F13804C900681869580838EC
:10585000884203D157E08968884204D04C6824F01C
:1058600003049C42F7D8C868C2E902108260384637
:10587000CA60BDE8F840FFF7FBBB88BB1E44D1E916
:105880000213CB60996046F0010353609651B3E771
:105890001E44BEF1000F07D154F8083CD21A1E4432
:1058A000D2E90213CB60996046F001035360274BA5
:1058B000AA601B68B3429FD8254B38461968FFF78A
:1058C000F5FE99E73344A0E714280ED9542821D8CF
:1058D000180B00F16F0109B200F16E04C900B4E7C2
:1058E00043F0010050600B6086E700F15C0109B2F3
:1058F00000F15B04C900A8E7C5E90422C2E902CCB3
:105900005460D35078E76E68A4100123A34033435A
:105910006B60A9E7B0F5AA7F07D8D80B00F1780132
:1059200009B200F17704C9008FE740F25451884270
:1059300006D8980C00F17D0100F17C04C90084E7D1
:105940004FF47E717E2480E71800002010000020B4
:10595000D00B00202DE9F04FDBB00C460A91154624
:105960000E93834604F026FF036817931846FBF74F
:1059700067F80021169008222AA8FFF75BFDA3898B
:10598000190603D52369002B01F0AC8000239E4645
:10599000CDE92F33CDE91AEE31AB1A4600242E9310
:1059A0000023CDE91234CDF860E0CDF864E0CDF805
:1059B00020E01446CDF844E02F463D46694BD3F82D
:1059C000E46004F0F1FE2AAA0346009226A92A46C2
:1059D0005846B047002800F09880C0F28E80269A82
:1059E000252A034601D01D44E8E7B5EB0708064623
:1059F00040F08F8000234FF0FF328DF88F309A46B1
:105A0000099301352B78079201359946A9F12003B6
:105A10005A2B00F2A980DFE813F03B02A700A70091
:105A20003702A700A700A7001A02A700A700E501F8
:105A3000F401A700F001FD01A700F9015B005B0084
:105A40005B005B005B005B005B005B005B00A70032
:105A5000A700A700A700A700A700A7001C01A70098
:105A60007201F9021C011C011C01A700A700A7007C
:105A7000A700F502A700A7004502A700A700A700FE
:105A8000AF01A7009B02A700A700BB07A700A700C4
:105A9000A700A700A700A700A700A7001C01A70058
:105AA00072015D011C011C011C0119035D016C00E8
:105AB000A7003203A700230367033C036C00A70081
:105AC000AF016A00D402A700A7002D08A7006A0052
:105AD000A9F13003002215F8019B02EB820203EBCF
:105AE0004202A9F13003092BF5D909928EE72B78F0
:105AF0008AE72B784AF0200A86E7082200212AA8A4
